{
  "_format": "hh-sol-artifact-1",
  "contractName": "DesireSwapV0Factory",
  "sourceName": "contracts/DesireSwapV0Factory.sol",
  "abi": [
    {
      "inputs": [
        {
          "internalType": "address",
          "name": "_owner",
          "type": "address"
        },
        {
          "internalType": "address",
          "name": "deployerAddress_",
          "type": "address"
        }
      ],
      "stateMutability": "nonpayable",
      "type": "constructor"
    },
    {
      "anonymous": false,
      "inputs": [
        {
          "indexed": false,
          "internalType": "address",
          "name": "oldFeeCollector",
          "type": "address"
        },
        {
          "indexed": false,
          "internalType": "address",
          "name": "newFeeCollector",
          "type": "address"
        }
      ],
      "name": "CollectorChanged",
      "type": "event"
    },
    {
      "anonymous": false,
      "inputs": [
        {
          "indexed": false,
          "internalType": "uint256",
          "name": "rangeMultiplier",
          "type": "uint256"
        },
        {
          "indexed": false,
          "internalType": "uint256",
          "name": "fee",
          "type": "uint256"
        }
      ],
      "name": "NewPoolType",
      "type": "event"
    },
    {
      "anonymous": false,
      "inputs": [
        {
          "indexed": false,
          "internalType": "address",
          "name": "oldOwner",
          "type": "address"
        },
        {
          "indexed": false,
          "internalType": "address",
          "name": "newOwner",
          "type": "address"
        }
      ],
      "name": "OwnerChanged",
      "type": "event"
    },
    {
      "anonymous": false,
      "inputs": [
        {
          "indexed": false,
          "internalType": "address",
          "name": "token0",
          "type": "address"
        },
        {
          "indexed": false,
          "internalType": "address",
          "name": "token1",
          "type": "address"
        },
        {
          "indexed": false,
          "internalType": "uint256",
          "name": "fee",
          "type": "uint256"
        },
        {
          "indexed": false,
          "internalType": "address",
          "name": "pool",
          "type": "address"
        }
      ],
      "name": "PoolCreated",
      "type": "event"
    },
    {
      "anonymous": false,
      "inputs": [
        {
          "indexed": false,
          "internalType": "address",
          "name": "odlSwapRouter",
          "type": "address"
        },
        {
          "indexed": false,
          "internalType": "address",
          "name": "newSwapRouter",
          "type": "address"
        }
      ],
      "name": "SwapRouterChanged",
      "type": "event"
    },
    {
      "inputs": [
        {
          "internalType": "uint256",
          "name": "fee_",
          "type": "uint256"
        },
        {
          "internalType": "uint256",
          "name": "ticksInRange_",
          "type": "uint256"
        }
      ],
      "name": "addPoolType",
      "outputs": [],
      "stateMutability": "nonpayable",
      "type": "function"
    },
    {
      "inputs": [
        {
          "internalType": "address",
          "name": "",
          "type": "address"
        }
      ],
      "name": "allowlisted",
      "outputs": [
        {
          "internalType": "bool",
          "name": "",
          "type": "bool"
        }
      ],
      "stateMutability": "view",
      "type": "function"
    },
    {
      "inputs": [
        {
          "internalType": "address",
          "name": "tokenA_",
          "type": "address"
        },
        {
          "internalType": "address",
          "name": "tokenB_",
          "type": "address"
        },
        {
          "internalType": "uint256",
          "name": "fee_",
          "type": "uint256"
        },
        {
          "internalType": "string",
          "name": "name_",
          "type": "string"
        },
        {
          "internalType": "string",
          "name": "symbol_",
          "type": "string"
        }
      ],
      "name": "createPool",
      "outputs": [],
      "stateMutability": "nonpayable",
      "type": "function"
    },
    {
      "inputs": [],
      "name": "deployerAddress",
      "outputs": [
        {
          "internalType": "address",
          "name": "",
          "type": "address"
        }
      ],
      "stateMutability": "view",
      "type": "function"
    },
    {
      "inputs": [],
      "name": "feeCollector",
      "outputs": [
        {
          "internalType": "address",
          "name": "",
          "type": "address"
        }
      ],
      "stateMutability": "view",
      "type": "function"
    },
    {
      "inputs": [
        {
          "internalType": "uint256",
          "name": "",
          "type": "uint256"
        }
      ],
      "name": "feeToPoolType",
      "outputs": [
        {
          "internalType": "uint256",
          "name": "ticksInRange",
          "type": "uint256"
        },
        {
          "internalType": "uint256",
          "name": "sqrtRangeMultiplier",
          "type": "uint256"
        },
        {
          "internalType": "uint256",
          "name": "sqrtRangeMultiplier100",
          "type": "uint256"
        }
      ],
      "stateMutability": "view",
      "type": "function"
    },
    {
      "inputs": [
        {
          "internalType": "uint256",
          "name": "fee_",
          "type": "uint256"
        }
      ],
      "name": "getPoolType",
      "outputs": [
        {
          "internalType": "uint256",
          "name": "ticksInRange",
          "type": "uint256"
        },
        {
          "internalType": "uint256",
          "name": "sqrtRangeMultiplier",
          "type": "uint256"
        },
        {
          "internalType": "uint256",
          "name": "sqrtRangeMultiplier100",
          "type": "uint256"
        }
      ],
      "stateMutability": "view",
      "type": "function"
    },
    {
      "inputs": [],
      "name": "owner",
      "outputs": [
        {
          "internalType": "address",
          "name": "",
          "type": "address"
        }
      ],
      "stateMutability": "view",
      "type": "function"
    },
    {
      "inputs": [
        {
          "internalType": "address",
          "name": "",
          "type": "address"
        },
        {
          "internalType": "address",
          "name": "",
          "type": "address"
        },
        {
          "internalType": "uint256",
          "name": "",
          "type": "uint256"
        }
      ],
      "name": "poolAddress",
      "outputs": [
        {
          "internalType": "address",
          "name": "",
          "type": "address"
        }
      ],
      "stateMutability": "view",
      "type": "function"
    },
    {
      "inputs": [],
      "name": "poolCount",
      "outputs": [
        {
          "internalType": "uint256",
          "name": "",
          "type": "uint256"
        }
      ],
      "stateMutability": "view",
      "type": "function"
    },
    {
      "inputs": [
        {
          "internalType": "uint256",
          "name": "",
          "type": "uint256"
        }
      ],
      "name": "poolList",
      "outputs": [
        {
          "internalType": "address",
          "name": "",
          "type": "address"
        }
      ],
      "stateMutability": "view",
      "type": "function"
    },
    {
      "inputs": [
        {
          "internalType": "address",
          "name": "_feeCollector",
          "type": "address"
        }
      ],
      "name": "setFeeCollector",
      "outputs": [],
      "stateMutability": "nonpayable",
      "type": "function"
    },
    {
      "inputs": [
        {
          "internalType": "address",
          "name": "_owner",
          "type": "address"
        }
      ],
      "name": "setOwner",
      "outputs": [],
      "stateMutability": "nonpayable",
      "type": "function"
    },
    {
      "inputs": [
        {
          "internalType": "address",
          "name": "swapRouter_",
          "type": "address"
        }
      ],
      "name": "setSwapRouter",
      "outputs": [],
      "stateMutability": "nonpayable",
      "type": "function"
    },
    {
      "inputs": [],
      "name": "swapRouter",
      "outputs": [
        {
          "internalType": "address",
          "name": "",
          "type": "address"
        }
      ],
      "stateMutability": "view",
      "type": "function"
    }
  ],
  "bytecode": "0x60a06040523480156200001157600080fd5b50604051620011943803806200119483398101604081905262000034916200035c565b600180546001600160a01b0384166001600160a01b0319918216811790925560028054909116821790556001600160601b0319606083901b16608052604080516000815260208101929092527fb532073b38c83145e3e5135377a08bf9aab55bc0fd7c1179cd4fb995d2a5159c910160405180910390a160408051600081526001600160a01b03841660208201527f1f032125113845f9706c98ef37be7ab0a61fbaef59a6736f7e853e0d21839b16910160405180910390a160078054600181810183556000929092527fa66cc928b5edb82af9bd49922954155ab7b0942694bea4ce44661d9a8736c6880180546001600160a01b03191690556200013d906101909062000163565b6200014c6101f4603262000163565b6200015b610bb860c862000163565b505062000424565b6001546001600160a01b03163314620001a85760405162461bcd60e51b8152602060048201526002602482015261046360f41b60448201526064015b60405180910390fd5b8115801590620001b757508015155b620001ed5760405162461bcd60e51b8152602060048201526005602482015264046615054360dc1b60448201526064016200019f565b60008281526006602052604090205415620002335760405162461bcd60e51b8152602060048201526005602482015264466150543160d81b60448201526064016200019f565b6000828152600660205260409020819055670de0b6b3a76400005b81156200029557670de0b6b3a764000062000272670de0e42ce52097a083620003b4565b6200027e919062000393565b9050816200028c81620003d6565b9250506200024e565b670de0b6b3a764000060005b6064811015620002e357670de0b6b3a7640000620002c08484620003b4565b620002cc919062000393565b915080620002da81620003f0565b915050620002a1565b506000848152600660209081526040918290206001810185905560020183905581518581529081018690527f0f9ee03d929e4a79835d1c4050edfadb368f4146771dc018536d57899a3d2da7910160405180910390a150505050565b80516001600160a01b03811681146200035757600080fd5b919050565b600080604083850312156200036f578182fd5b6200037a836200033f565b91506200038a602084016200033f565b90509250929050565b600082620003af57634e487b7160e01b81526012600452602481fd5b500490565b6000816000190483118215151615620003d157620003d16200040e565b500290565b600081620003e857620003e86200040e565b506000190190565b60006000198214156200040757620004076200040e565b5060010190565b634e487b7160e01b600052601160045260246000fd5b60805160601c610d4a6200044a6000396000818161027d01526105680152610d4a6000f3fe608060405234801561001057600080fd5b50600436106100c55760003560e01c806303f45d41146100ca57806313af4035146101025780632a48235b146101175780634127365714610142578063420f006514610155578063774f6c9f146101685780638da5cb5b146101b25780639d381473146101c5578063a42dce80146101d8578063c31c9c07146101eb578063c415b95c146101fe578063c4c6a0ee14610211578063cdcf87831461024b578063efdee94f14610278578063f525cb681461029f575b600080fd5b6100ed6100d8366004610a1c565b60046020526000908152604090205460ff1681565b60405190151581526020015b60405180910390f35b610115610110366004610a1c565b6102b6565b005b61012a610125366004610b2a565b610342565b6040516001600160a01b0390911681526020016100f9565b610115610150366004610a1c565b61036c565b610115610163366004610a9b565b6103e4565b610197610176366004610b2a565b60066020526000908152604090208054600182015460029092015490919083565b604080519384526020840192909252908201526060016100f9565b60015461012a906001600160a01b031681565b6101156101d3366004610b42565b610772565b6101156101e6366004610a1c565b61091e565b60035461012a906001600160a01b031681565b60025461012a906001600160a01b031681565b61012a61021f366004610a5b565b60056020908152600093845260408085208252928452828420905282529020546001600160a01b031681565b610197610259366004610b2a565b6000908152600660205260409020805460018201546002909201549092565b61012a7f000000000000000000000000000000000000000000000000000000000000000081565b6102a860005481565b6040519081526020016100f9565b6001546001600160a01b031633146102e95760405162461bcd60e51b81526004016102e090610c43565b60405180910390fd5b600180546001600160a01b0319166001600160a01b0383169081179091556040517fb532073b38c83145e3e5135377a08bf9aab55bc0fd7c1179cd4fb995d2a5159c91610337918490610bae565b60405180910390a150565b6007818154811061035257600080fd5b6000918252602090912001546001600160a01b0316905081565b6001546001600160a01b031633146103965760405162461bcd60e51b81526004016102e090610c43565b600380546001600160a01b0319166001600160a01b0383169081179091556040517f5c5b0bb5085481c320dc523e3b3f829eaa807936f615add0077fa213f345090e91610337918490610bae565b6001546001600160a01b0316331461040e5760405162461bcd60e51b81526004016102e090610c43565b836001600160a01b0316856001600160a01b031614156104595760405162461bcd60e51b81526004016102e0906020808252600490820152630466350360e41b604082015260600190565b6001600160a01b0385161580159061047957506001600160a01b03841615155b6104ae5760405162461bcd60e51b81526004016102e0906020808252600490820152634663503160e01b604082015260600190565b6001600160a01b0385811660009081526005602090815260408083208885168452825280832087845290915290205416156105145760405162461bcd60e51b81526004016102e0906020808252600490820152632331a81960e11b604082015260600190565b6000838152600660205260409020546105585760405162461bcd60e51b81526004016102e0906020808252600490820152634663503360e01b604082015260600190565b6003546000906001600160a01b037f000000000000000000000000000000000000000000000000000000000000000081169163ddab4ef5913091811690898116908b16106105a657886105a8565b895b8a6001600160a01b03168a6001600160a01b0316106105c757896105c9565b8a5b60008a815260066020526040908190208054600182015460029092015492516001600160e01b031960e08a901b16815261061097969594938e93918e908e90600401610bc8565b602060405180830381600087803b15801561062a57600080fd5b505af115801561063e573d6000803e3d6000fd5b505050506040513d601f19601f820116820180604052508101906106629190610a3f565b6001600160a01b0380881660008181526005602081815260408084208c87168086529083528185208c8652835281852080549789166001600160a01b031998891681179091559085529282528084209484529381528383208a845290529181208054841683179055600780546001810182559082527fa66cc928b5edb82af9bd49922954155ab7b0942694bea4ce44661d9a8736c68801805490931690911790915580549192508061071383610cb5565b9091555050604080516001600160a01b03888116825287811660208301528183018790528316606082015290517f0537d3e5d88810bbfb16874b28bc0f95856d7bb24c8f29511fe463c5b1d27c6b9181900360800190a1505050505050565b6001546001600160a01b0316331461079c5760405162461bcd60e51b81526004016102e090610c43565b81158015906107aa57508015155b6107de5760405162461bcd60e51b8152602060048201526005602482015264046615054360dc1b60448201526064016102e0565b600082815260066020526040902054156108225760405162461bcd60e51b8152602060048201526005602482015264466150543160d81b60448201526064016102e0565b6000828152600660205260409020819055670de0b6b3a76400005b811561087c57670de0b6b3a764000061085e670de0e42ce52097a083610c7f565b6108689190610c5f565b90508161087481610c9e565b92505061083d565b670de0b6b3a764000060005b60648110156108c257670de0b6b3a76400006108a48484610c7f565b6108ae9190610c5f565b9150806108ba81610cb5565b915050610888565b506000848152600660209081526040918290206001810185905560020183905581518581529081018690527f0f9ee03d929e4a79835d1c4050edfadb368f4146771dc018536d57899a3d2da7910160405180910390a150505050565b6001546001600160a01b031633146109485760405162461bcd60e51b81526004016102e090610c43565b600280546001600160a01b0319166001600160a01b0383169081179091556040517f1f032125113845f9706c98ef37be7ab0a61fbaef59a6736f7e853e0d21839b1691610337918490610bae565b600082601f8301126109a6578081fd5b81356001600160401b03808211156109c0576109c0610ce6565b604051601f8301601f19908116603f011681019082821181831017156109e8576109e8610ce6565b81604052838152866020858801011115610a00578485fd5b8360208701602083013792830160200193909352509392505050565b600060208284031215610a2d578081fd5b8135610a3881610cfc565b9392505050565b600060208284031215610a50578081fd5b8151610a3881610cfc565b600080600060608486031215610a6f578182fd5b8335610a7a81610cfc565b92506020840135610a8a81610cfc565b929592945050506040919091013590565b600080600080600060a08688031215610ab2578081fd5b8535610abd81610cfc565b94506020860135610acd81610cfc565b93506040860135925060608601356001600160401b0380821115610aef578283fd5b610afb89838a01610996565b93506080880135915080821115610b10578283fd5b50610b1d88828901610996565b9150509295509295909350565b600060208284031215610b3b578081fd5b5035919050565b60008060408385031215610b54578182fd5b50508035926020909101359150565b60008151808452815b81811015610b8857602081850181015186830182015201610b6c565b81811115610b995782602083870101525b50601f01601f19169290920160200192915050565b6001600160a01b0392831681529116602082015260400190565b600061014060018060a01b03808e168452808d166020850152808c166040850152808b166060850152508860808401528760a08401528660c08401528560e084015280610100840152610c1d81840186610b63565b9050828103610120840152610c328185610b63565b9d9c50505050505050505050505050565b602080825260029082015261046360f41b604082015260600190565b600082610c7a57634e487b7160e01b81526012600452602481fd5b500490565b6000816000190483118215151615610c9957610c99610cd0565b500290565b600081610cad57610cad610cd0565b506000190190565b6000600019821415610cc957610cc9610cd0565b5060010190565b634e487b7160e01b600052601160045260246000fd5b634e487b7160e01b600052604160045260246000fd5b6001600160a01b0381168114610d1157600080fd5b5056fea264697066735822122093c5c49f53d6d64a8596a2f1d68a967cbb72643d9457d9849a552cb9b58e151c64736f6c63430008040033",
  "linkReferences": {},
  "deployedLinkReferences": {}
}