{
  "_format": "hh-sol-artifact-1",
  "contractName": "SwapRouter",
  "sourceName": "contracts/SwapRouter.sol",
  "abi": [
    {
      "inputs": [
        {
          "internalType": "address",
          "name": "_factory",
          "type": "address"
        },
        {
          "internalType": "address",
          "name": "_WETH9",
          "type": "address"
        }
      ],
      "stateMutability": "nonpayable",
      "type": "constructor"
    },
    {
      "inputs": [],
      "name": "WETH9",
      "outputs": [
        {
          "internalType": "address",
          "name": "",
          "type": "address"
        }
      ],
      "stateMutability": "view",
      "type": "function"
    },
    {
      "inputs": [
        {
          "internalType": "int256",
          "name": "amount0Delta",
          "type": "int256"
        },
        {
          "internalType": "int256",
          "name": "amount1Delta",
          "type": "int256"
        },
        {
          "internalType": "bytes",
          "name": "_data",
          "type": "bytes"
        }
      ],
      "name": "desireSwapV0SwapCallback",
      "outputs": [],
      "stateMutability": "nonpayable",
      "type": "function"
    },
    {
      "inputs": [
        {
          "components": [
            {
              "internalType": "bytes",
              "name": "path",
              "type": "bytes"
            },
            {
              "internalType": "address",
              "name": "recipient",
              "type": "address"
            },
            {
              "internalType": "uint256",
              "name": "deadline",
              "type": "uint256"
            },
            {
              "internalType": "uint256",
              "name": "amountIn",
              "type": "uint256"
            },
            {
              "internalType": "uint256",
              "name": "amountOutMinimum",
              "type": "uint256"
            }
          ],
          "internalType": "struct ISwapRouter.ExactInputParams",
          "name": "params",
          "type": "tuple"
        }
      ],
      "name": "exactInput",
      "outputs": [
        {
          "internalType": "uint256",
          "name": "amountOut",
          "type": "uint256"
        }
      ],
      "stateMutability": "payable",
      "type": "function"
    },
    {
      "inputs": [
        {
          "components": [
            {
              "internalType": "address",
              "name": "tokenIn",
              "type": "address"
            },
            {
              "internalType": "address",
              "name": "tokenOut",
              "type": "address"
            },
            {
              "internalType": "uint256",
              "name": "fee",
              "type": "uint256"
            },
            {
              "internalType": "address",
              "name": "recipient",
              "type": "address"
            },
            {
              "internalType": "uint256",
              "name": "deadline",
              "type": "uint256"
            },
            {
              "internalType": "uint256",
              "name": "amountIn",
              "type": "uint256"
            },
            {
              "internalType": "uint256",
              "name": "amountOutMinimum",
              "type": "uint256"
            },
            {
              "internalType": "uint160",
              "name": "sqrtPriceLimitX96",
              "type": "uint160"
            }
          ],
          "internalType": "struct ISwapRouter.ExactInputSingleParams",
          "name": "params",
          "type": "tuple"
        }
      ],
      "name": "exactInputSingle",
      "outputs": [
        {
          "internalType": "uint256",
          "name": "amountOut",
          "type": "uint256"
        }
      ],
      "stateMutability": "payable",
      "type": "function"
    },
    {
      "inputs": [
        {
          "components": [
            {
              "internalType": "bytes",
              "name": "path",
              "type": "bytes"
            },
            {
              "internalType": "address",
              "name": "recipient",
              "type": "address"
            },
            {
              "internalType": "uint256",
              "name": "deadline",
              "type": "uint256"
            },
            {
              "internalType": "uint256",
              "name": "amountOut",
              "type": "uint256"
            },
            {
              "internalType": "uint256",
              "name": "amountInMaximum",
              "type": "uint256"
            }
          ],
          "internalType": "struct ISwapRouter.ExactOutputParams",
          "name": "params",
          "type": "tuple"
        }
      ],
      "name": "exactOutput",
      "outputs": [
        {
          "internalType": "uint256",
          "name": "amountIn",
          "type": "uint256"
        }
      ],
      "stateMutability": "payable",
      "type": "function"
    },
    {
      "inputs": [
        {
          "components": [
            {
              "internalType": "address",
              "name": "tokenIn",
              "type": "address"
            },
            {
              "internalType": "address",
              "name": "tokenOut",
              "type": "address"
            },
            {
              "internalType": "uint256",
              "name": "fee",
              "type": "uint256"
            },
            {
              "internalType": "address",
              "name": "recipient",
              "type": "address"
            },
            {
              "internalType": "uint256",
              "name": "deadline",
              "type": "uint256"
            },
            {
              "internalType": "uint256",
              "name": "amountOut",
              "type": "uint256"
            },
            {
              "internalType": "uint256",
              "name": "amountInMaximum",
              "type": "uint256"
            },
            {
              "internalType": "uint160",
              "name": "sqrtPriceLimitX96",
              "type": "uint160"
            }
          ],
          "internalType": "struct ISwapRouter.ExactOutputSingleParams",
          "name": "params",
          "type": "tuple"
        }
      ],
      "name": "exactOutputSingle",
      "outputs": [
        {
          "internalType": "uint256",
          "name": "amountIn",
          "type": "uint256"
        }
      ],
      "stateMutability": "payable",
      "type": "function"
    },
    {
      "inputs": [],
      "name": "factory",
      "outputs": [
        {
          "internalType": "address",
          "name": "",
          "type": "address"
        }
      ],
      "stateMutability": "view",
      "type": "function"
    },
    {
      "inputs": [
        {
          "internalType": "bytes[]",
          "name": "data",
          "type": "bytes[]"
        }
      ],
      "name": "multicall",
      "outputs": [
        {
          "internalType": "bytes[]",
          "name": "results",
          "type": "bytes[]"
        }
      ],
      "stateMutability": "payable",
      "type": "function"
    },
    {
      "inputs": [],
      "name": "refundETH",
      "outputs": [],
      "stateMutability": "payable",
      "type": "function"
    },
    {
      "inputs": [
        {
          "internalType": "address",
          "name": "token",
          "type": "address"
        },
        {
          "internalType": "uint256",
          "name": "amountMinimum",
          "type": "uint256"
        },
        {
          "internalType": "address",
          "name": "recipient",
          "type": "address"
        }
      ],
      "name": "sweepToken",
      "outputs": [],
      "stateMutability": "payable",
      "type": "function"
    },
    {
      "inputs": [
        {
          "internalType": "uint256",
          "name": "amountMinimum",
          "type": "uint256"
        },
        {
          "internalType": "address",
          "name": "recipient",
          "type": "address"
        }
      ],
      "name": "unwrapWETH9",
      "outputs": [],
      "stateMutability": "payable",
      "type": "function"
    },
    {
      "stateMutability": "payable",
      "type": "receive"
    }
  ],
  "bytecode": "0x60c06040526000196000553480156200001757600080fd5b5060405162002186380380620021868339810160408190526200003a9162000076565b6001600160601b0319606092831b8116608052911b1660a052620000ad565b80516001600160a01b03811681146200007157600080fd5b919050565b6000806040838503121562000089578182fd5b620000948362000059565b9150620000a46020840162000059565b90509250929050565b60805160601c60a05160601c612076620001106000396000818160a001528181610152015281816103d1015281816104b901528181610e6901528181610eaf0152610f35015260008181610203015281816102dd01526117b301526120766000f3fe6080604052600436106100905760003560e01c806312210e8a14610105578063482357eb1461010d57806349404b7c1461012d5780634aa4a4fc146101405780639ddbc8531461018a578063ac9650d8146101ab578063bcf868bd146101cb578063c04b8d59146101de578063c45a0155146101f1578063df2ab5bb14610225578063f28c04981461023857600080fd5b3661010057336001600160a01b037f000000000000000000000000000000000000000000000000000000000000000016146100fe5760405162461bcd60e51b81526020600482015260096024820152684e6f7420574554483960b81b60448201526064015b60405180910390fd5b005b600080fd5b6100fe61024b565b34801561011957600080fd5b506100fe6101283660046119d1565b61025d565b6100fe61013b366004611c5c565b6103b7565b34801561014c57600080fd5b506101747f000000000000000000000000000000000000000000000000000000000000000081565b6040516101819190611d0b565b60405180910390f35b61019d610198366004611b5c565b61052c565b604051908152602001610181565b6101be6101b936600461191f565b610690565b6040516101819190611d9c565b61019d6101d9366004611b5c565b610811565b61019d6101ec366004611abd565b610979565b3480156101fd57600080fd5b506101747f000000000000000000000000000000000000000000000000000000000000000081565b6100fe6102333660046118de565b610ad3565b61019d610246366004611b78565b610bb0565b471561025b5761025b3347610ce6565b565b600084138061026c5750600083135b6102b05760405162461bcd60e51b815260206004820152601560248201527429a91439bbb0b821b0b6363130b1b5949d1032b93960591b60448201526064016100f5565b60006102be82840184611baf565b905060008060006102d28460000151610d89565b9250925092506103047f0000000000000000000000000000000000000000000000000000000000000000848484610dc5565b5060008060008a1361032b57846001600160a01b0316846001600160a01b03161089610342565b836001600160a01b0316856001600160a01b0316108a5b9150915081156103615761035c8587602001513384610e67565b6103ab565b855161036c90610ff4565b1561039157855161037c9061102e565b865261038b8133600089611065565b506103ab565b806000819055508394506103ab8587602001513384610e67565b50505050505050505050565b6040516370a0823160e01b81526000906001600160a01b037f000000000000000000000000000000000000000000000000000000000000000016906370a0823190610406903090600401611d0b565b60206040518083038186803b15801561041e57600080fd5b505afa158015610432573d6000803e3d6000fd5b505050506040513d601f19601f820116820180604052508101906104569190611c44565b90508281101561049d5760405162461bcd60e51b8152602060048201526012602482015271496e73756666696369656e7420574554483960701b60448201526064016100f5565b801561052757604051632e1a7d4d60e01b8152600481018290527f00000000000000000000000000000000000000000000000000000000000000006001600160a01b031690632e1a7d4d90602401600060405180830381600087803b15801561050557600080fd5b505af1158015610519573d6000803e3d6000fd5b505050506105278282610ce6565b505050565b60006080820135804211156105535760405162461bcd60e51b81526004016100f590611e38565b333b1561059a5760405162461bcd60e51b815260206004820152601560248201527414d48a195254ca4e8818dbdb9d1c9858dd10d85b1b605a1b60448201526064016100f5565b61063660a08401356105b2608086016060870161189f565b6105c3610100870160e0880161189f565b6001600160a01b031660405180604001604052808860000160208101906105ea919061189f565b60408a018035906105fe9060208d0161189f565b60405160200161061093929190611cb7565b6040516020818303038152906040528152602001336001600160a01b03168152506111d6565b91508260c0013582101561068a5760405162461bcd60e51b815260206004820152601b60248201527a14d48a195254ca4e951bdbc81b1a5d1d1b19481c9958d95a5d9959602a1b60448201526064016100f5565b50919050565b6060816001600160401b038111156106b857634e487b7160e01b600052604160045260246000fd5b6040519080825280602002602001820160405280156106eb57816020015b60608152602001906001900390816106d65790505b50905060005b8281101561080a576000803086868581811061071d57634e487b7160e01b600052603260045260246000fd5b905060200281019061072f9190611ea2565b60405161073d929190611cdf565b600060405180830381855af49150503d8060008114610778576040519150601f19603f3d011682016040523d82523d6000602084013e61077d565b606091505b5091509150816107c95760448151101561079657600080fd5b600481019050808060200190518101906107b09190611a4b565b60405162461bcd60e51b81526004016100f59190611dfd565b808484815181106107ea57634e487b7160e01b600052603260045260246000fd5b60200260200101819052505050808061080290611fc7565b9150506106f1565b5092915050565b60006080820135804211156108385760405162461bcd60e51b81526004016100f590611e38565b333b1561087f5760405162461bcd60e51b815260206004820152601560248201527414d48a1953d4ca4e8818dbdb9d1c9858dd10d85b1b605a1b60448201526064016100f5565b61091960a0840135610897608086016060870161189f565b6108a8610100870160e0880161189f565b6001600160a01b031660405180604001604052808860200160208101906108cf919061189f565b60408a01356108e160208c018c61189f565b6040516020016108f393929190611cb7565b6040516020818303038152906040528152602001336001600160a01b0316815250611065565b91508260c0013582111561096d5760405162461bcd60e51b815260206004820152601b60248201527a14d48a1953d4ca4e88151bdbc81b5d58da081c995c5d595cdd1959602a1b60448201526064016100f5565b50600019600055919050565b60008160400151806109884290565b11156109a65760405162461bcd60e51b81526004016100f590611e38565b33803b156109ed5760405162461bcd60e51b815260206004820152601460248201527314d48a19524a4e8818dbdb9d1c9858dd10d85b1b60621b60448201526064016100f5565b60006109fc8560000151610ff4565b9050610a48856060015182610a15578660200151610a17565b305b60006040518060400160405280610a318b600001516112ed565b8152602001876001600160a01b03168152506111d6565b60608601528015610a68578451309250610a619061102e565b8552610a75565b8460600151935050610a7b565b506109ed565b8360800151831015610acc5760405162461bcd60e51b815260206004820152601a60248201527914d48a19524a4e951bdbc81b1a5d1d1b19481c9958d95a5d995960321b60448201526064016100f5565b5050919050565b6040516370a0823160e01b81526000906001600160a01b038516906370a0823190610b02903090600401611d0b565b60206040518083038186803b158015610b1a57600080fd5b505afa158015610b2e573d6000803e3d6000fd5b505050506040513d601f19601f82011682018060405250810190610b529190611c44565b905082811015610b995760405162461bcd60e51b815260206004820152601260248201527124b739bab33334b1b4b2b73a103a37b5b2b760711b60448201526064016100f5565b8015610baa57610baa84838361130b565b50505050565b6000604082013580421115610bd75760405162461bcd60e51b81526004016100f590611e38565b333b15610c1d5760405162461bcd60e51b815260206004820152601460248201527314d48a1953ca4e8818dbdb9d1c9858dd10d85b1b60621b60448201526064016100f5565b610c906060840135610c35604086016020870161189f565b6040805180820190915260009080610c4d8980611ea2565b8080601f01602080910402602001604051908101604052809392919081815260200183838082843760009201919091525050509082525033602090910152611065565b506000549150826080013582111561096d5760405162461bcd60e51b815260206004820152601960248201527814d48a1953ca4e951bdbc81b5d58da081c995c5d595cdd1959603a1b60448201526064016100f5565b604080516000808252602082019092526001600160a01b038416908390604051610d109190611cef565b60006040518083038185875af1925050503d8060008114610d4d576040519150601f19603f3d011682016040523d82523d6000602084013e610d52565b606091505b50509050806105275760405162461bcd60e51b815260206004820152600360248201526253544560e81b60448201526064016100f5565b60008080610d978482611415565b9250610da48460146114c9565b9050610dbc610db560206014611f6c565b8590611415565b91509193909250565b604051636263507760e11b81526000906001600160a01b0386169063c4c6a0ee90610df890879087908790600401611d1f565b60206040518083038186803b158015610e1057600080fd5b505afa158015610e24573d6000803e3d6000fd5b505050506040513d601f19601f82011682018060405250810190610e4891906118c2565b9050336001600160a01b03821614610e5f57600080fd5b949350505050565b7f00000000000000000000000000000000000000000000000000000000000000006001600160a01b0316846001600160a01b0316148015610ea85750804710155b15610fc7577f00000000000000000000000000000000000000000000000000000000000000006001600160a01b031663d0e30db0826040518263ffffffff1660e01b81526004016000604051808303818588803b158015610f0857600080fd5b505af1158015610f1c573d6000803e3d6000fd5b505060405163a9059cbb60e01b81526001600160a01b037f000000000000000000000000000000000000000000000000000000000000000016935063a9059cbb9250610f6f915085908590600401611d83565b602060405180830381600087803b158015610f8957600080fd5b505af1158015610f9d573d6000803e3d6000fd5b505050506040513d601f19601f82011682018060405250810190610fc1919061198e565b50610baa565b6001600160a01b038316301415610fe857610fe384838361130b565b610baa565b610baa84848484611576565b600061100260206014611f6c565b601461100f602082611f6c565b6110199190611f6c565b6110239190611f6c565b825110159050919050565b606061105f61103f60206014611f6c565b61104b60206014611f6c565b84516110579190611f84565b849190611684565b92915050565b60006001600160a01b038416611079573093505b600080600061108b8560000151610d89565b919450925090506001600160a01b03808416908316106000806110af858786611799565b6001600160a01b03166353a14c258b856110c88f611fe2565b60008d6040516020016110db9190611e65565b6040516020818303038152906040526040518663ffffffff1660e01b815260040161110a959493929190611d43565b6040805180830381600087803b15801561112357600080fd5b505af1158015611137573d6000803e3d6000fd5b505050506040513d601f19601f8201168201806040525081019061115b91906119ae565b91509150600083611175578161117084611fe2565b61117f565b8261117f83611fe2565b9098509050896111c7578b81146111c75760405162461bcd60e51b815260206004820152600c60248201526b29a91432a7a4949d1032b93960a11b60448201526064016100f5565b50505050505050949350505050565b60006001600160a01b0384166111ea573093505b60008060006111fc8560000151610d89565b919450925090506001600160a01b0380831690841610600080611220868686611799565b6001600160a01b03166353a14c258b858e60008d6040516020016112449190611e65565b6040516020818303038152906040526040518663ffffffff1660e01b8152600401611273959493929190611d43565b6040805180830381600087803b15801561128c57600080fd5b505af11580156112a0573d6000803e3d6000fd5b505050506040513d601f19601f820116820180604052508101906112c491906119ae565b91509150826112d357816112d5565b805b6112de90611fe2565b9b9a5050505050505050505050565b606061105f60006014611301602082611f6c565b6110579190611f6c565b600080846001600160a01b031663a9059cbb60e01b8585604051602401611333929190611d83565b60408051601f198184030181529181526020820180516001600160e01b03166001600160e01b03199094169390931790925290516113719190611cef565b6000604051808303816000865af19150503d80600081146113ae576040519150601f19603f3d011682016040523d82523d6000602084013e6113b3565b606091505b50915091508180156113dd5750805115806113dd5750808060200190518101906113dd919061198e565b61140e5760405162461bcd60e51b815260206004820152600260248201526114d560f21b60448201526064016100f5565b5050505050565b600081611423816014611f6c565b10156114665760405162461bcd60e51b8152602060048201526012602482015271746f416464726573735f6f766572666c6f7760701b60448201526064016100f5565b611471826014611f6c565b835110156114b95760405162461bcd60e51b8152602060048201526015602482015274746f416464726573735f6f75744f66426f756e647360581b60448201526064016100f5565b500160200151600160601b900490565b6000816114d7816020611f6c565b101561151a5760405162461bcd60e51b8152602060048201526012602482015271746f55696e743235365f6f766572666c6f7760701b60448201526064016100f5565b611525826020611f6c565b8351101561156d5760405162461bcd60e51b8152602060048201526015602482015274746f55696e743235365f6f75744f66426f756e647360581b60448201526064016100f5565b50016020015190565b600080856001600160a01b03166323b872dd60e01b8686866040516024016115a093929190611d1f565b60408051601f198184030181529181526020820180516001600160e01b03166001600160e01b03199094169390931790925290516115de9190611cef565b6000604051808303816000865af19150503d806000811461161b576040519150601f19603f3d011682016040523d82523d6000602084013e611620565b606091505b509150915081801561164a57508051158061164a57508080602001905181019061164a919061198e565b61167c5760405162461bcd60e51b815260206004820152600360248201526229aa2360e91b60448201526064016100f5565b505050505050565b60608161169281601f611f6c565b10156116b05760405162461bcd60e51b81526004016100f590611e10565b826116bb8382611f6c565b10156116d95760405162461bcd60e51b81526004016100f590611e10565b6116e38284611f6c565b845110156117275760405162461bcd60e51b8152602060048201526011602482015270736c6963655f6f75744f66426f756e647360781b60448201526064016100f5565b6060821580156117465760405191506000825260208201604052611790565b6040519150601f8416801560200281840101858101878315602002848b0101015b8183101561177f578051835260209283019201611767565b5050858452601f01601f1916604052505b50949350505050565b604051636263507760e11b81526000906001600160a01b037f0000000000000000000000000000000000000000000000000000000000000000169063c4c6a0ee906117ec90879087908790600401611d1f565b60206040518083038186803b15801561180457600080fd5b505afa158015611818573d6000803e3d6000fd5b505050506040513d601f19601f82011682018060405250810190610e5f91906118c2565b600082601f83011261184c578081fd5b813561185f61185a82611f45565b611f15565b818152846020838601011115611873578283fd5b816020850160208301379081016020019190915292915050565b6000610100828403121561068a578081fd5b6000602082840312156118b0578081fd5b81356118bb81612028565b9392505050565b6000602082840312156118d3578081fd5b81516118bb81612028565b6000806000606084860312156118f2578182fd5b83356118fd81612028565b925060208401359150604084013561191481612028565b809150509250925092565b60008060208385031215611931578182fd5b82356001600160401b0380821115611947578384fd5b818501915085601f83011261195a578384fd5b813581811115611968578485fd5b8660208260051b850101111561197c578485fd5b60209290920196919550909350505050565b60006020828403121561199f578081fd5b815180151581146118bb578182fd5b600080604083850312156119c0578182fd5b505080516020909101519092909150565b600080600080606085870312156119e6578081fd5b843593506020850135925060408501356001600160401b0380821115611a0a578283fd5b818701915087601f830112611a1d578283fd5b813581811115611a2b578384fd5b886020828501011115611a3c578384fd5b95989497505060200194505050565b600060208284031215611a5c578081fd5b81516001600160401b03811115611a71578182fd5b8201601f81018413611a81578182fd5b8051611a8f61185a82611f45565b818152856020838501011115611aa3578384fd5b611ab4826020830160208601611f9b565b95945050505050565b600060208284031215611ace578081fd5b81356001600160401b0380821115611ae4578283fd5b9083019060a08286031215611af7578283fd5b611aff611eed565b823582811115611b0d578485fd5b611b198782860161183c565b82525060208301359150611b2c82612028565b81602082015260408301356040820152606083013560608201526080830135608082015280935050505092915050565b60006101008284031215611b6e578081fd5b6118bb838361188d565b600060208284031215611b89578081fd5b81356001600160401b03811115611b9e578182fd5b820160a081850312156118bb578182fd5b600060208284031215611bc0578081fd5b81356001600160401b0380821115611bd6578283fd5b9083019060408286031215611be9578283fd5b604051604081018181108382111715611c0457611c04612012565b604052823582811115611c15578485fd5b611c218782860161183c565b82525060208301359250611c3483612028565b6020810192909252509392505050565b600060208284031215611c55578081fd5b5051919050565b60008060408385031215611c6e578182fd5b823591506020830135611c8081612028565b809150509250929050565b60008151808452611ca3816020860160208601611f9b565b601f01601f19169290920160200192915050565b6001600160601b0319606094851b811682526014820193909352921b16603482015260480190565b8183823760009101908152919050565b60008251611d01818460208701611f9b565b9190910192915050565b6001600160a01b0391909116815260200190565b6001600160a01b039384168152919092166020820152604081019190915260600190565b60018060a01b0386168152841515602082015283604082015282606082015260a060808201526000611d7860a0830184611c8b565b979650505050505050565b6001600160a01b03929092168252602082015260400190565b6000602080830181845280855180835260408601915060408160051b8701019250838701855b82811015611df057603f19888603018452611dde858351611c8b565b94509285019290850190600101611dc2565b5092979650505050505050565b6020815260006118bb6020830184611c8b565b6020808252600e908201526d736c6963655f6f766572666c6f7760901b604082015260600190565b602080825260139082015272151c985b9cd858dd1a5bdb881d1bdbc81bdb19606a1b604082015260600190565b602081526000825160406020840152611e816060840182611c8b565b602094909401516001600160a01b0316604093909301929092525090919050565b6000808335601e19843603018112611eb8578283fd5b8301803591506001600160401b03821115611ed1578283fd5b602001915036819003821315611ee657600080fd5b9250929050565b60405160a081016001600160401b0381118282101715611f0f57611f0f612012565b60405290565b604051601f8201601f191681016001600160401b0381118282101715611f3d57611f3d612012565b604052919050565b60006001600160401b03821115611f5e57611f5e612012565b50601f01601f191660200190565b60008219821115611f7f57611f7f611ffc565b500190565b600082821015611f9657611f96611ffc565b500390565b60005b83811015611fb6578181015183820152602001611f9e565b83811115610baa5750506000910152565b6000600019821415611fdb57611fdb611ffc565b5060010190565b6000600160ff1b821415611ff857611ff8611ffc565b0390565b634e487b7160e01b600052601160045260246000fd5b634e487b7160e01b600052604160045260246000fd5b6001600160a01b038116811461203d57600080fd5b5056fea2646970667358221220963c5784dfe59d37b56401f0b819830c2074bbc779d60b9aba335e5c0fadafb264736f6c63430008040033",
  "linkReferences": {},
  "deployedLinkReferences": {}
}