{
  "_format": "hh-sol-artifact-1",
  "contractName": "DesireSwapV0Factory",
  "sourceName": "contracts/Factory.sol",
  "abi": [
    {
      "inputs": [
        {
          "internalType": "address",
          "name": "_owner",
          "type": "address"
        },
        {
          "internalType": "address",
          "name": "deployerAddress_",
          "type": "address"
        }
      ],
      "stateMutability": "nonpayable",
      "type": "constructor"
    },
    {
      "anonymous": false,
      "inputs": [
        {
          "indexed": false,
          "internalType": "address",
          "name": "oldFeeCollector",
          "type": "address"
        },
        {
          "indexed": false,
          "internalType": "address",
          "name": "newFeeCollector",
          "type": "address"
        }
      ],
      "name": "CollectorChanged",
      "type": "event"
    },
    {
      "anonymous": false,
      "inputs": [
        {
          "indexed": false,
          "internalType": "uint256",
          "name": "rangeMultiplier",
          "type": "uint256"
        },
        {
          "indexed": false,
          "internalType": "uint256",
          "name": "fee",
          "type": "uint256"
        }
      ],
      "name": "NewPoolType",
      "type": "event"
    },
    {
      "anonymous": false,
      "inputs": [
        {
          "indexed": false,
          "internalType": "address",
          "name": "oldOwner",
          "type": "address"
        },
        {
          "indexed": false,
          "internalType": "address",
          "name": "newOwner",
          "type": "address"
        }
      ],
      "name": "OwnerChanged",
      "type": "event"
    },
    {
      "anonymous": false,
      "inputs": [
        {
          "indexed": false,
          "internalType": "address",
          "name": "token0",
          "type": "address"
        },
        {
          "indexed": false,
          "internalType": "address",
          "name": "token1",
          "type": "address"
        },
        {
          "indexed": false,
          "internalType": "uint256",
          "name": "fee",
          "type": "uint256"
        },
        {
          "indexed": false,
          "internalType": "address",
          "name": "pool",
          "type": "address"
        }
      ],
      "name": "PoolCreated",
      "type": "event"
    },
    {
      "anonymous": false,
      "inputs": [
        {
          "indexed": false,
          "internalType": "address",
          "name": "odlSwapRouter",
          "type": "address"
        },
        {
          "indexed": false,
          "internalType": "address",
          "name": "newSwapRouter",
          "type": "address"
        }
      ],
      "name": "SwapRouterChanged",
      "type": "event"
    },
    {
      "inputs": [
        {
          "internalType": "uint256",
          "name": "fee_",
          "type": "uint256"
        },
        {
          "internalType": "uint256",
          "name": "ticksInRange_",
          "type": "uint256"
        }
      ],
      "name": "addPoolType",
      "outputs": [],
      "stateMutability": "nonpayable",
      "type": "function"
    },
    {
      "inputs": [
        {
          "internalType": "address",
          "name": "",
          "type": "address"
        }
      ],
      "name": "allowlisted",
      "outputs": [
        {
          "internalType": "bool",
          "name": "",
          "type": "bool"
        }
      ],
      "stateMutability": "view",
      "type": "function"
    },
    {
      "inputs": [
        {
          "internalType": "address",
          "name": "tokenA_",
          "type": "address"
        },
        {
          "internalType": "address",
          "name": "tokenB_",
          "type": "address"
        },
        {
          "internalType": "uint256",
          "name": "fee_",
          "type": "uint256"
        },
        {
          "internalType": "string",
          "name": "name_",
          "type": "string"
        },
        {
          "internalType": "string",
          "name": "symbol_",
          "type": "string"
        }
      ],
      "name": "createPool",
      "outputs": [],
      "stateMutability": "nonpayable",
      "type": "function"
    },
    {
      "inputs": [],
      "name": "deployerAddress",
      "outputs": [
        {
          "internalType": "address",
          "name": "",
          "type": "address"
        }
      ],
      "stateMutability": "view",
      "type": "function"
    },
    {
      "inputs": [],
      "name": "feeCollector",
      "outputs": [
        {
          "internalType": "address",
          "name": "",
          "type": "address"
        }
      ],
      "stateMutability": "view",
      "type": "function"
    },
    {
      "inputs": [
        {
          "internalType": "uint256",
          "name": "",
          "type": "uint256"
        }
      ],
      "name": "feeToTicksInRange",
      "outputs": [
        {
          "internalType": "uint256",
          "name": "",
          "type": "uint256"
        }
      ],
      "stateMutability": "view",
      "type": "function"
    },
    {
      "inputs": [],
      "name": "owner",
      "outputs": [
        {
          "internalType": "address",
          "name": "",
          "type": "address"
        }
      ],
      "stateMutability": "view",
      "type": "function"
    },
    {
      "inputs": [
        {
          "internalType": "address",
          "name": "",
          "type": "address"
        },
        {
          "internalType": "address",
          "name": "",
          "type": "address"
        },
        {
          "internalType": "uint256",
          "name": "",
          "type": "uint256"
        }
      ],
      "name": "poolAddress",
      "outputs": [
        {
          "internalType": "address",
          "name": "",
          "type": "address"
        }
      ],
      "stateMutability": "view",
      "type": "function"
    },
    {
      "inputs": [],
      "name": "poolCount",
      "outputs": [
        {
          "internalType": "uint256",
          "name": "",
          "type": "uint256"
        }
      ],
      "stateMutability": "view",
      "type": "function"
    },
    {
      "inputs": [
        {
          "internalType": "uint256",
          "name": "",
          "type": "uint256"
        }
      ],
      "name": "poolList",
      "outputs": [
        {
          "internalType": "address",
          "name": "",
          "type": "address"
        }
      ],
      "stateMutability": "view",
      "type": "function"
    },
    {
      "inputs": [
        {
          "internalType": "address",
          "name": "_feeCollector",
          "type": "address"
        }
      ],
      "name": "setFeeCollector",
      "outputs": [],
      "stateMutability": "nonpayable",
      "type": "function"
    },
    {
      "inputs": [
        {
          "internalType": "address",
          "name": "_owner",
          "type": "address"
        }
      ],
      "name": "setOwner",
      "outputs": [],
      "stateMutability": "nonpayable",
      "type": "function"
    },
    {
      "inputs": [
        {
          "internalType": "address",
          "name": "swapRouter_",
          "type": "address"
        }
      ],
      "name": "setSwapRouter",
      "outputs": [],
      "stateMutability": "nonpayable",
      "type": "function"
    },
    {
      "inputs": [],
      "name": "swapRouter",
      "outputs": [
        {
          "internalType": "address",
          "name": "",
          "type": "address"
        }
      ],
      "stateMutability": "view",
      "type": "function"
    }
  ],
  "bytecode": "0x60a0604052600060075534801561001557600080fd5b50604051610dbc380380610dbc833981016040819052610034916101a4565b600080546001600160a01b0384166001600160a01b0319918216811783556001805490921681179091556040805192835260208301919091527fb532073b38c83145e3e5135377a08bf9aab55bc0fd7c1179cd4fb995d2a5159c910160405180910390a16006805460018082019092557ff652222313e28459528d920b65115c16c04f3efc82aaedc97be59f3f377c0d3f0180546001600160a01b031916905560046020527f41709b11ea140d39516ab8b2a2d76a2a5a86b73e82bac3ab5a2c6e9f09eca4fd55600a7f094a855607c1b62ef3982a14df17e82aa72612ee877771c36bb6f47165346a0f5560327f84ccaeac3536b0fb59d08277121964172ae3d97e4fa64aa5d813e71486424f2655662386f26fc1000060005260c87ffa4cbb9ca2d2e92f688e1799f2e905a8747a618e8d6cd828ed629d66bba0fcf45560601b6001600160601b031916608052506101d6565b80516001600160a01b038116811461019f57600080fd5b919050565b600080604083850312156101b6578182fd5b6101bf83610188565b91506101cd60208401610188565b90509250929050565b60805160601c610bc16101fb60003960008181610229015261057c0152610bc16000f3fe608060405234801561001057600080fd5b50600436106100ba5760003560e01c806303f45d41146100bf57806313af4035146100f75780632a48235b1461010c5780634127365714610137578063420f00651461014a5780638da5cb5b1461015d5780638e0aa3fa146101705780639d3814731461019e578063a42dce80146101b1578063c31c9c07146101c4578063c415b95c146101d7578063c4c6a0ee146101ea578063efdee94f14610224578063f525cb681461024b575b600080fd5b6100e26100cd3660046108d0565b60036020526000908152604090205460ff1681565b60405190151581526020015b60405180910390f35b61010a6101053660046108d0565b610254565b005b61011f61011a3660046109de565b6102f0565b6040516001600160a01b0390911681526020016100ee565b61010a6101453660046108d0565b61031a565b61010a61015836600461094f565b6103ad565b60005461011f906001600160a01b031681565b61019061017e3660046109de565b60046020526000908152604090205481565b6040519081526020016100ee565b61010a6101ac3660046109f6565b610725565b61010a6101bf3660046108d0565b6107b7565b60025461011f906001600160a01b031681565b60015461011f906001600160a01b031681565b61011f6101f836600461090f565b60056020908152600093845260408085208252928452828420905282529020546001600160a01b031681565b61011f7f000000000000000000000000000000000000000000000000000000000000000081565b61019060075481565b6000546001600160a01b031633146102875760405162461bcd60e51b815260040161027e90610aea565b60405180910390fd5b6000546040517fb532073b38c83145e3e5135377a08bf9aab55bc0fd7c1179cd4fb995d2a5159c916102c6916001600160a01b03909116908490610a62565b60405180910390a1600080546001600160a01b0319166001600160a01b0392909216919091179055565b6006818154811061030057600080fd5b6000918252602090912001546001600160a01b0316905081565b6000546001600160a01b031633146103445760405162461bcd60e51b815260040161027e90610aea565b6002546040517f5c5b0bb5085481c320dc523e3b3f829eaa807936f615add0077fa213f345090e91610383916001600160a01b03909116908490610a62565b60405180910390a1600280546001600160a01b0319166001600160a01b0392909216919091179055565b6000546001600160a01b031633146103d75760405162461bcd60e51b815260040161027e90610aea565b836001600160a01b0316856001600160a01b031614156104255760405162461bcd60e51b815260206004820152600960248201526810549157d15455505360ba1b604482015260640161027e565b600080856001600160a01b0316876001600160a01b03161061044857858761044b565b86865b90925090506001600160a01b0382166104915760405162461bcd60e51b8152602060048201526008602482015267304144445245535360c01b604482015260640161027e565b6001600160a01b0382811660009081526005602090815260408083208585168452825280832089845290915290205416156104ff5760405162461bcd60e51b815260206004820152600e60248201526d414c52454144595f45584953545360901b604482015260640161027e565b60008581526004602052604090205461054f5760405162461bcd60e51b81526020600482015260126024820152711413d3d31516541157d5539111519253915160721b604482015260640161027e565b6002546000868152600460208190526040808320549051639331f2ab60e01b815292936001600160a01b037f0000000000000000000000000000000000000000000000000000000000000000811694639331f2ab946105bf943094909316928a928a928f92918f918f9101610a7c565b602060405180830381600087803b1580156105d957600080fd5b505af11580156105ed573d6000803e3d6000fd5b505050506040513d601f19601f8201168201806040525081019061061191906108f3565b6001600160a01b0380851660008181526005602081815260408084208987168086529083528185208e8652835281852080549789166001600160a01b031998891681179091559085529282528084209484529381528383208c845290529181208054841683179055600680546001810182559082527ff652222313e28459528d920b65115c16c04f3efc82aaedc97be59f3f377c0d3f01805490931690911790915560078054929350906106c483610b36565b9091555050604080516001600160a01b03858116825284811660208301528183018990528316606082015290517f0537d3e5d88810bbfb16874b28bc0f95856d7bb24c8f29511fe463c5b1d27c6b9181900360800190a15050505050505050565b6000546001600160a01b0316331461074f5760405162461bcd60e51b815260040161027e90610aea565b6000828152600460205260409020541561076857600080fd5b60008281526004602090815260409182902083905581518381529081018490527f0f9ee03d929e4a79835d1c4050edfadb368f4146771dc018536d57899a3d2da7910160405180910390a15050565b6000546001600160a01b031633146107e15760405162461bcd60e51b815260040161027e90610aea565b6001546040517f1f032125113845f9706c98ef37be7ab0a61fbaef59a6736f7e853e0d21839b1691610820916001600160a01b03909116908490610a62565b60405180910390a1600180546001600160a01b0319166001600160a01b0392909216919091179055565b600082601f83011261085a578081fd5b81356001600160401b038082111561087457610874610b5d565b604051601f8301601f19908116603f0116810190828211818310171561089c5761089c610b5d565b816040528381528660208588010111156108b4578485fd5b8360208701602083013792830160200193909352509392505050565b6000602082840312156108e1578081fd5b81356108ec81610b73565b9392505050565b600060208284031215610904578081fd5b81516108ec81610b73565b600080600060608486031215610923578182fd5b833561092e81610b73565b9250602084013561093e81610b73565b929592945050506040919091013590565b600080600080600060a08688031215610966578081fd5b853561097181610b73565b9450602086013561098181610b73565b93506040860135925060608601356001600160401b03808211156109a3578283fd5b6109af89838a0161084a565b935060808801359150808211156109c4578283fd5b506109d18882890161084a565b9150509295509295909350565b6000602082840312156109ef578081fd5b5035919050565b60008060408385031215610a08578182fd5b50508035926020909101359150565b60008151808452815b81811015610a3c57602081850181015186830182015201610a20565b81811115610a4d5782602083870101525b50601f01601f19169290920160200192915050565b6001600160a01b0392831681529116602082015260400190565b6001600160a01b03898116825288811660208301528781166040830152861660608201526080810185905260a0810184905261010060c08201819052600090610ac783820186610a17565b905082810360e0840152610adb8185610a17565b9b9a5050505050505050505050565b6020808252602c908201527f446573697265537761705630466163746f72793a2053454e4445525f49535f4e60408201526b27aa2faa2422afa7aba722a960a11b606082015260800190565b6000600019821415610b5657634e487b7160e01b81526011600452602481fd5b5060010190565b634e487b7160e01b600052604160045260246000fd5b6001600160a01b0381168114610b8857600080fd5b5056fea26469706673582212205e3b9d2c8b2b3fdc4ce07fb38f471f90efd1ba2790c62d537dac8175edc1984d64736f6c63430008040033",
  "linkReferences": {},
  "deployedLinkReferences": {}
}