{
  "_format": "hh-sol-artifact-1",
  "contractName": "DesireSwapV0Pool",
  "sourceName": "contracts/DesireSwapV0Pool.sol",
  "abi": [
    {
      "inputs": [
        {
          "internalType": "address",
          "name": "factory_",
          "type": "address"
        },
        {
          "internalType": "address",
          "name": "swapRouter_",
          "type": "address"
        },
        {
          "internalType": "address",
          "name": "token0_",
          "type": "address"
        },
        {
          "internalType": "address",
          "name": "token1_",
          "type": "address"
        },
        {
          "internalType": "uint256",
          "name": "fee_",
          "type": "uint256"
        },
        {
          "internalType": "uint256",
          "name": "ticksInRange_",
          "type": "uint256"
        },
        {
          "internalType": "uint256",
          "name": "sqrtRangeMultiplier_",
          "type": "uint256"
        },
        {
          "internalType": "uint256",
          "name": "sqrtRangeMultiplier100_",
          "type": "uint256"
        },
        {
          "internalType": "string",
          "name": "name_",
          "type": "string"
        },
        {
          "internalType": "string",
          "name": "symbol_",
          "type": "string"
        }
      ],
      "stateMutability": "nonpayable",
      "type": "constructor"
    },
    {
      "anonymous": false,
      "inputs": [
        {
          "indexed": true,
          "internalType": "address",
          "name": "owner",
          "type": "address"
        },
        {
          "indexed": true,
          "internalType": "address",
          "name": "approved",
          "type": "address"
        },
        {
          "indexed": true,
          "internalType": "uint256",
          "name": "tokenId",
          "type": "uint256"
        }
      ],
      "name": "Approval",
      "type": "event"
    },
    {
      "anonymous": false,
      "inputs": [
        {
          "indexed": true,
          "internalType": "address",
          "name": "owner",
          "type": "address"
        },
        {
          "indexed": true,
          "internalType": "address",
          "name": "operator",
          "type": "address"
        },
        {
          "indexed": false,
          "internalType": "bool",
          "name": "approved",
          "type": "bool"
        }
      ],
      "name": "ApprovalForAll",
      "type": "event"
    },
    {
      "anonymous": false,
      "inputs": [
        {
          "indexed": true,
          "internalType": "address",
          "name": "to",
          "type": "address"
        },
        {
          "indexed": false,
          "internalType": "address",
          "name": "recipient",
          "type": "address"
        },
        {
          "indexed": true,
          "internalType": "int24",
          "name": "lowestRangeIndex",
          "type": "int24"
        },
        {
          "indexed": true,
          "internalType": "int24",
          "name": "highestRangeIndex",
          "type": "int24"
        },
        {
          "indexed": false,
          "internalType": "uint256",
          "name": "ticketID",
          "type": "uint256"
        },
        {
          "indexed": false,
          "internalType": "uint256",
          "name": "amount0Redeemed",
          "type": "uint256"
        },
        {
          "indexed": false,
          "internalType": "uint256",
          "name": "amount1Redeemed",
          "type": "uint256"
        }
      ],
      "name": "Burn",
      "type": "event"
    },
    {
      "anonymous": false,
      "inputs": [
        {
          "indexed": true,
          "internalType": "address",
          "name": "token",
          "type": "address"
        },
        {
          "indexed": false,
          "internalType": "uint256",
          "name": "amount",
          "type": "uint256"
        }
      ],
      "name": "CollectFee",
      "type": "event"
    },
    {
      "anonymous": false,
      "inputs": [
        {
          "indexed": true,
          "internalType": "address",
          "name": "msg_sender",
          "type": "address"
        },
        {
          "indexed": true,
          "internalType": "address",
          "name": "recipient",
          "type": "address"
        },
        {
          "indexed": false,
          "internalType": "uint256",
          "name": "amount0",
          "type": "uint256"
        },
        {
          "indexed": false,
          "internalType": "uint256",
          "name": "amount1",
          "type": "uint256"
        },
        {
          "indexed": false,
          "internalType": "uint256",
          "name": "paid0",
          "type": "uint256"
        },
        {
          "indexed": false,
          "internalType": "uint256",
          "name": "paid1",
          "type": "uint256"
        }
      ],
      "name": "Flash",
      "type": "event"
    },
    {
      "anonymous": false,
      "inputs": [
        {
          "indexed": true,
          "internalType": "int24",
          "name": "oldIndex",
          "type": "int24"
        },
        {
          "indexed": true,
          "internalType": "int24",
          "name": "newIndex",
          "type": "int24"
        }
      ],
      "name": "InUseRangeChanged",
      "type": "event"
    },
    {
      "anonymous": false,
      "inputs": [
        {
          "indexed": false,
          "internalType": "address",
          "name": "msgSender",
          "type": "address"
        },
        {
          "indexed": true,
          "internalType": "address",
          "name": "to",
          "type": "address"
        },
        {
          "indexed": true,
          "internalType": "int24",
          "name": "lowestRangeIndex",
          "type": "int24"
        },
        {
          "indexed": true,
          "internalType": "int24",
          "name": "highestRangeIndex",
          "type": "int24"
        },
        {
          "indexed": false,
          "internalType": "uint256",
          "name": "ticketID",
          "type": "uint256"
        },
        {
          "indexed": false,
          "internalType": "uint256",
          "name": "liqAdded",
          "type": "uint256"
        },
        {
          "indexed": false,
          "internalType": "uint256",
          "name": "amount0Added",
          "type": "uint256"
        },
        {
          "indexed": false,
          "internalType": "uint256",
          "name": "amount1Added",
          "type": "uint256"
        }
      ],
      "name": "Mint",
      "type": "event"
    },
    {
      "anonymous": false,
      "inputs": [
        {
          "indexed": true,
          "internalType": "address",
          "name": "msgSender",
          "type": "address"
        },
        {
          "indexed": true,
          "internalType": "address",
          "name": "to",
          "type": "address"
        },
        {
          "indexed": true,
          "internalType": "uint256",
          "name": "blockNumber",
          "type": "uint256"
        },
        {
          "indexed": false,
          "internalType": "int256",
          "name": "delta0",
          "type": "int256"
        },
        {
          "indexed": false,
          "internalType": "int256",
          "name": "delta1",
          "type": "int256"
        }
      ],
      "name": "Swap",
      "type": "event"
    },
    {
      "anonymous": false,
      "inputs": [
        {
          "indexed": true,
          "internalType": "address",
          "name": "from",
          "type": "address"
        },
        {
          "indexed": true,
          "internalType": "address",
          "name": "to",
          "type": "address"
        },
        {
          "indexed": true,
          "internalType": "uint256",
          "name": "tokenId",
          "type": "uint256"
        }
      ],
      "name": "Transfer",
      "type": "event"
    },
    {
      "inputs": [
        {
          "internalType": "int24",
          "name": "index",
          "type": "int24"
        }
      ],
      "name": "activate",
      "outputs": [],
      "stateMutability": "nonpayable",
      "type": "function"
    },
    {
      "inputs": [
        {
          "internalType": "address",
          "name": "to",
          "type": "address"
        },
        {
          "internalType": "uint256",
          "name": "tokenId",
          "type": "uint256"
        }
      ],
      "name": "approve",
      "outputs": [],
      "stateMutability": "nonpayable",
      "type": "function"
    },
    {
      "inputs": [],
      "name": "balance0",
      "outputs": [
        {
          "internalType": "uint256",
          "name": "",
          "type": "uint256"
        }
      ],
      "stateMutability": "view",
      "type": "function"
    },
    {
      "inputs": [],
      "name": "balance1",
      "outputs": [
        {
          "internalType": "uint256",
          "name": "",
          "type": "uint256"
        }
      ],
      "stateMutability": "view",
      "type": "function"
    },
    {
      "inputs": [
        {
          "internalType": "address",
          "name": "owner",
          "type": "address"
        }
      ],
      "name": "balanceOf",
      "outputs": [
        {
          "internalType": "uint256",
          "name": "",
          "type": "uint256"
        }
      ],
      "stateMutability": "view",
      "type": "function"
    },
    {
      "inputs": [
        {
          "internalType": "address",
          "name": "to",
          "type": "address"
        },
        {
          "internalType": "uint256",
          "name": "ticketId",
          "type": "uint256"
        }
      ],
      "name": "burn",
      "outputs": [
        {
          "internalType": "uint256",
          "name": "",
          "type": "uint256"
        },
        {
          "internalType": "uint256",
          "name": "",
          "type": "uint256"
        }
      ],
      "stateMutability": "nonpayable",
      "type": "function"
    },
    {
      "inputs": [
        {
          "internalType": "address",
          "name": "token",
          "type": "address"
        },
        {
          "internalType": "uint256",
          "name": "amount",
          "type": "uint256"
        }
      ],
      "name": "collectFee",
      "outputs": [],
      "stateMutability": "nonpayable",
      "type": "function"
    },
    {
      "inputs": [],
      "name": "factory",
      "outputs": [
        {
          "internalType": "address",
          "name": "",
          "type": "address"
        }
      ],
      "stateMutability": "view",
      "type": "function"
    },
    {
      "inputs": [],
      "name": "fee",
      "outputs": [
        {
          "internalType": "uint256",
          "name": "",
          "type": "uint256"
        }
      ],
      "stateMutability": "view",
      "type": "function"
    },
    {
      "inputs": [
        {
          "internalType": "address",
          "name": "recipient",
          "type": "address"
        },
        {
          "internalType": "uint256",
          "name": "amount0",
          "type": "uint256"
        },
        {
          "internalType": "uint256",
          "name": "amount1",
          "type": "uint256"
        },
        {
          "internalType": "bytes",
          "name": "data",
          "type": "bytes"
        }
      ],
      "name": "flash",
      "outputs": [],
      "stateMutability": "nonpayable",
      "type": "function"
    },
    {
      "inputs": [
        {
          "internalType": "address",
          "name": "owner_",
          "type": "address"
        }
      ],
      "name": "getAddressTicketIdList",
      "outputs": [
        {
          "internalType": "uint256[]",
          "name": "ticketIdList",
          "type": "uint256[]"
        }
      ],
      "stateMutability": "view",
      "type": "function"
    },
    {
      "inputs": [
        {
          "internalType": "address",
          "name": "owner_",
          "type": "address"
        }
      ],
      "name": "getAddressTicketsAmount",
      "outputs": [
        {
          "internalType": "uint256",
          "name": "",
          "type": "uint256"
        }
      ],
      "stateMutability": "view",
      "type": "function"
    },
    {
      "inputs": [
        {
          "internalType": "address",
          "name": "owner_",
          "type": "address"
        },
        {
          "internalType": "uint256",
          "name": "position_",
          "type": "uint256"
        }
      ],
      "name": "getAddressTicketsByPosition",
      "outputs": [
        {
          "internalType": "uint256",
          "name": "",
          "type": "uint256"
        }
      ],
      "stateMutability": "view",
      "type": "function"
    },
    {
      "inputs": [
        {
          "internalType": "uint256",
          "name": "tokenId",
          "type": "uint256"
        }
      ],
      "name": "getApproved",
      "outputs": [
        {
          "internalType": "address",
          "name": "",
          "type": "address"
        }
      ],
      "stateMutability": "view",
      "type": "function"
    },
    {
      "inputs": [
        {
          "internalType": "int24",
          "name": "index",
          "type": "int24"
        }
      ],
      "name": "getFullRangeInfo",
      "outputs": [
        {
          "internalType": "uint256",
          "name": "_reserve0",
          "type": "uint256"
        },
        {
          "internalType": "uint256",
          "name": "_reserve1",
          "type": "uint256"
        },
        {
          "internalType": "uint256",
          "name": "_sqrtPriceBottom",
          "type": "uint256"
        },
        {
          "internalType": "uint256",
          "name": "_sqrtPriceTop",
          "type": "uint256"
        },
        {
          "internalType": "uint256",
          "name": "_supplyCoefficient",
          "type": "uint256"
        },
        {
          "internalType": "bool",
          "name": "_activated",
          "type": "bool"
        }
      ],
      "stateMutability": "view",
      "type": "function"
    },
    {
      "inputs": [],
      "name": "getLastBalances",
      "outputs": [
        {
          "internalType": "uint256",
          "name": "_lastBalance0",
          "type": "uint256"
        },
        {
          "internalType": "uint256",
          "name": "_lastBalance1",
          "type": "uint256"
        }
      ],
      "stateMutability": "view",
      "type": "function"
    },
    {
      "inputs": [],
      "name": "getNextTicketId",
      "outputs": [
        {
          "internalType": "uint256",
          "name": "",
          "type": "uint256"
        }
      ],
      "stateMutability": "view",
      "type": "function"
    },
    {
      "inputs": [
        {
          "internalType": "uint256",
          "name": "ticketId_",
          "type": "uint256"
        }
      ],
      "name": "getTicketData",
      "outputs": [
        {
          "components": [
            {
              "internalType": "int24",
              "name": "lowestRangeIndex",
              "type": "int24"
            },
            {
              "internalType": "int24",
              "name": "highestRangeIndex",
              "type": "int24"
            },
            {
              "internalType": "uint256",
              "name": "liqAdded",
              "type": "uint256"
            }
          ],
          "internalType": "struct ITicket.TicketData",
          "name": "",
          "type": "tuple"
        }
      ],
      "stateMutability": "view",
      "type": "function"
    },
    {
      "inputs": [
        {
          "internalType": "uint256",
          "name": "ticketId_",
          "type": "uint256"
        }
      ],
      "name": "getTicketPosition",
      "outputs": [
        {
          "internalType": "uint256",
          "name": "",
          "type": "uint256"
        }
      ],
      "stateMutability": "view",
      "type": "function"
    },
    {
      "inputs": [
        {
          "internalType": "uint256",
          "name": "ticketId_",
          "type": "uint256"
        },
        {
          "internalType": "int24",
          "name": "index_",
          "type": "int24"
        }
      ],
      "name": "getTicketSupplyData",
      "outputs": [
        {
          "internalType": "uint256",
          "name": "",
          "type": "uint256"
        }
      ],
      "stateMutability": "view",
      "type": "function"
    },
    {
      "inputs": [],
      "name": "getTotalReserves",
      "outputs": [
        {
          "internalType": "uint256",
          "name": "_totalReserve0",
          "type": "uint256"
        },
        {
          "internalType": "uint256",
          "name": "_totalReserve1",
          "type": "uint256"
        }
      ],
      "stateMutability": "view",
      "type": "function"
    },
    {
      "inputs": [],
      "name": "highestActivatedRange",
      "outputs": [
        {
          "internalType": "int24",
          "name": "",
          "type": "int24"
        }
      ],
      "stateMutability": "view",
      "type": "function"
    },
    {
      "inputs": [],
      "name": "inUseInfo",
      "outputs": [
        {
          "internalType": "int24",
          "name": "usingRange",
          "type": "int24"
        },
        {
          "internalType": "uint256",
          "name": "sqrtCurrentPrice",
          "type": "uint256"
        },
        {
          "internalType": "uint256",
          "name": "inUseLiq",
          "type": "uint256"
        },
        {
          "internalType": "uint256",
          "name": "inUseReserve0",
          "type": "uint256"
        },
        {
          "internalType": "uint256",
          "name": "inUseReserve1",
          "type": "uint256"
        }
      ],
      "stateMutability": "view",
      "type": "function"
    },
    {
      "inputs": [],
      "name": "inUseRange",
      "outputs": [
        {
          "internalType": "int24",
          "name": "",
          "type": "int24"
        }
      ],
      "stateMutability": "view",
      "type": "function"
    },
    {
      "inputs": [
        {
          "internalType": "int24",
          "name": "_startingInUseRange",
          "type": "int24"
        }
      ],
      "name": "initialize",
      "outputs": [],
      "stateMutability": "nonpayable",
      "type": "function"
    },
    {
      "inputs": [],
      "name": "initialized",
      "outputs": [
        {
          "internalType": "bool",
          "name": "",
          "type": "bool"
        }
      ],
      "stateMutability": "view",
      "type": "function"
    },
    {
      "inputs": [
        {
          "internalType": "address",
          "name": "owner",
          "type": "address"
        },
        {
          "internalType": "address",
          "name": "operator",
          "type": "address"
        }
      ],
      "name": "isApprovedForAll",
      "outputs": [
        {
          "internalType": "bool",
          "name": "",
          "type": "bool"
        }
      ],
      "stateMutability": "view",
      "type": "function"
    },
    {
      "inputs": [],
      "name": "lowestActivatedRange",
      "outputs": [
        {
          "internalType": "int24",
          "name": "",
          "type": "int24"
        }
      ],
      "stateMutability": "view",
      "type": "function"
    },
    {
      "inputs": [
        {
          "internalType": "address",
          "name": "to",
          "type": "address"
        },
        {
          "internalType": "int24",
          "name": "lowestRangeIndex",
          "type": "int24"
        },
        {
          "internalType": "int24",
          "name": "highestRangeIndex",
          "type": "int24"
        },
        {
          "internalType": "uint256",
          "name": "liqToAdd",
          "type": "uint256"
        },
        {
          "internalType": "bytes",
          "name": "data",
          "type": "bytes"
        }
      ],
      "name": "mint",
      "outputs": [
        {
          "internalType": "uint256",
          "name": "ticketId",
          "type": "uint256"
        },
        {
          "internalType": "uint256",
          "name": "amount0",
          "type": "uint256"
        },
        {
          "internalType": "uint256",
          "name": "amount1",
          "type": "uint256"
        }
      ],
      "stateMutability": "nonpayable",
      "type": "function"
    },
    {
      "inputs": [],
      "name": "name",
      "outputs": [
        {
          "internalType": "string",
          "name": "",
          "type": "string"
        }
      ],
      "stateMutability": "view",
      "type": "function"
    },
    {
      "inputs": [
        {
          "internalType": "uint256",
          "name": "tokenId",
          "type": "uint256"
        }
      ],
      "name": "ownerOf",
      "outputs": [
        {
          "internalType": "address",
          "name": "",
          "type": "address"
        }
      ],
      "stateMutability": "view",
      "type": "function"
    },
    {
      "inputs": [],
      "name": "protocolFeeIsOn",
      "outputs": [
        {
          "internalType": "bool",
          "name": "",
          "type": "bool"
        }
      ],
      "stateMutability": "view",
      "type": "function"
    },
    {
      "inputs": [],
      "name": "protocolFeePart",
      "outputs": [
        {
          "internalType": "uint256",
          "name": "",
          "type": "uint256"
        }
      ],
      "stateMutability": "view",
      "type": "function"
    },
    {
      "inputs": [
        {
          "internalType": "int24",
          "name": "",
          "type": "int24"
        }
      ],
      "name": "ranges",
      "outputs": [
        {
          "internalType": "uint256",
          "name": "reserve0",
          "type": "uint256"
        },
        {
          "internalType": "uint256",
          "name": "reserve1",
          "type": "uint256"
        },
        {
          "internalType": "uint256",
          "name": "sqrtPriceBottom",
          "type": "uint256"
        },
        {
          "internalType": "uint256",
          "name": "supplyCoefficient",
          "type": "uint256"
        },
        {
          "internalType": "bool",
          "name": "activated",
          "type": "bool"
        }
      ],
      "stateMutability": "view",
      "type": "function"
    },
    {
      "inputs": [
        {
          "internalType": "address",
          "name": "from",
          "type": "address"
        },
        {
          "internalType": "address",
          "name": "to",
          "type": "address"
        },
        {
          "internalType": "uint256",
          "name": "tokenId",
          "type": "uint256"
        }
      ],
      "name": "safeTransferFrom",
      "outputs": [],
      "stateMutability": "nonpayable",
      "type": "function"
    },
    {
      "inputs": [
        {
          "internalType": "address",
          "name": "from",
          "type": "address"
        },
        {
          "internalType": "address",
          "name": "to",
          "type": "address"
        },
        {
          "internalType": "uint256",
          "name": "tokenId",
          "type": "uint256"
        },
        {
          "internalType": "bytes",
          "name": "_data",
          "type": "bytes"
        }
      ],
      "name": "safeTransferFrom",
      "outputs": [],
      "stateMutability": "nonpayable",
      "type": "function"
    },
    {
      "inputs": [
        {
          "internalType": "address",
          "name": "operator",
          "type": "address"
        },
        {
          "internalType": "bool",
          "name": "approved",
          "type": "bool"
        }
      ],
      "name": "setApprovalForAll",
      "outputs": [],
      "stateMutability": "nonpayable",
      "type": "function"
    },
    {
      "inputs": [
        {
          "internalType": "bool",
          "name": "_protocolFeeIsOn",
          "type": "bool"
        },
        {
          "internalType": "uint256",
          "name": "_protocolFeePart",
          "type": "uint256"
        }
      ],
      "name": "setProtocolFee",
      "outputs": [],
      "stateMutability": "nonpayable",
      "type": "function"
    },
    {
      "inputs": [],
      "name": "setSwapRouter",
      "outputs": [],
      "stateMutability": "nonpayable",
      "type": "function"
    },
    {
      "inputs": [],
      "name": "sqrtRangeMultiplier",
      "outputs": [
        {
          "internalType": "uint256",
          "name": "",
          "type": "uint256"
        }
      ],
      "stateMutability": "view",
      "type": "function"
    },
    {
      "inputs": [],
      "name": "sqrtRangeMultiplier100",
      "outputs": [
        {
          "internalType": "uint256",
          "name": "",
          "type": "uint256"
        }
      ],
      "stateMutability": "view",
      "type": "function"
    },
    {
      "inputs": [
        {
          "internalType": "bytes4",
          "name": "interfaceId",
          "type": "bytes4"
        }
      ],
      "name": "supportsInterface",
      "outputs": [
        {
          "internalType": "bool",
          "name": "",
          "type": "bool"
        }
      ],
      "stateMutability": "view",
      "type": "function"
    },
    {
      "inputs": [
        {
          "internalType": "address",
          "name": "to",
          "type": "address"
        },
        {
          "internalType": "bool",
          "name": "zeroForOne",
          "type": "bool"
        },
        {
          "internalType": "int256",
          "name": "amount",
          "type": "int256"
        },
        {
          "internalType": "uint256",
          "name": "sqrtPriceLimit",
          "type": "uint256"
        },
        {
          "internalType": "bytes",
          "name": "data",
          "type": "bytes"
        }
      ],
      "name": "swap",
      "outputs": [
        {
          "internalType": "int256",
          "name": "",
          "type": "int256"
        },
        {
          "internalType": "int256",
          "name": "",
          "type": "int256"
        }
      ],
      "stateMutability": "nonpayable",
      "type": "function"
    },
    {
      "inputs": [],
      "name": "swapRouter",
      "outputs": [
        {
          "internalType": "address",
          "name": "",
          "type": "address"
        }
      ],
      "stateMutability": "view",
      "type": "function"
    },
    {
      "inputs": [],
      "name": "symbol",
      "outputs": [
        {
          "internalType": "string",
          "name": "",
          "type": "string"
        }
      ],
      "stateMutability": "view",
      "type": "function"
    },
    {
      "inputs": [],
      "name": "token0",
      "outputs": [
        {
          "internalType": "address",
          "name": "",
          "type": "address"
        }
      ],
      "stateMutability": "view",
      "type": "function"
    },
    {
      "inputs": [],
      "name": "token1",
      "outputs": [
        {
          "internalType": "address",
          "name": "",
          "type": "address"
        }
      ],
      "stateMutability": "view",
      "type": "function"
    },
    {
      "inputs": [
        {
          "internalType": "uint256",
          "name": "tokenId",
          "type": "uint256"
        }
      ],
      "name": "tokenURI",
      "outputs": [
        {
          "internalType": "string",
          "name": "",
          "type": "string"
        }
      ],
      "stateMutability": "view",
      "type": "function"
    },
    {
      "inputs": [
        {
          "internalType": "address",
          "name": "from",
          "type": "address"
        },
        {
          "internalType": "address",
          "name": "to",
          "type": "address"
        },
        {
          "internalType": "uint256",
          "name": "tokenId",
          "type": "uint256"
        }
      ],
      "name": "transferFrom",
      "outputs": [],
      "stateMutability": "nonpayable",
      "type": "function"
    }
  ],
  "bytecode": "0x6101606040526001600855600c805461ff00191661010017905562030d40600d553480156200002d57600080fd5b50604051620058e1380380620058e18339810160408190526200005091620002c9565b8181818181600090805190602001906200006c92919062000153565b5080516200008290600190602084019062000153565b50505050506000600c60006101000a81548160ff021916908315150217905550896001600160a01b03166080816001600160a01b031660601b8152505088600c60026101000a8154816001600160a01b0302191690836001600160a01b03160217905550876001600160a01b031660a0816001600160a01b031660601b81525050866001600160a01b031660c0816001600160a01b031660601b815250508561014081815250508460e0818152505083610100818152505082610120818152505050505050505050505050620003f5565b8280546200016190620003a2565b90600052602060002090601f016020900481019282620001855760008555620001d0565b82601f10620001a057805160ff1916838001178555620001d0565b82800160010185558215620001d0579182015b82811115620001d0578251825591602001919060010190620001b3565b50620001de929150620001e2565b5090565b5b80821115620001de5760008155600101620001e3565b80516001600160a01b03811681146200021157600080fd5b919050565b600082601f83011262000227578081fd5b81516001600160401b0380821115620002445762000244620003df565b604051601f8301601f19908116603f011681019082821181831017156200026f576200026f620003df565b816040528381526020925086838588010111156200028b578485fd5b8491505b83821015620002ae57858201830151818301840152908201906200028f565b83821115620002bf57848385830101525b9695505050505050565b6000806000806000806000806000806101408b8d031215620002e9578586fd5b620002f48b620001f9565b99506200030460208c01620001f9565b98506200031460408c01620001f9565b97506200032460608c01620001f9565b965060808b0151955060a08b0151945060c08b0151935060e08b015192506101008b015160018060401b03808211156200035c578384fd5b6200036a8e838f0162000216565b93506101208d015191508082111562000381578283fd5b50620003908d828e0162000216565b9150509295989b9194979a5092959850565b600181811c90821680620003b757607f821691505b60208210811415620003d957634e487b7160e01b600052602260045260246000fd5b50919050565b634e487b7160e01b600052604160045260246000fd5b60805160601c60a05160601c60c05160601c60e0516101005161012051610140516153cb62000516600039600081816107a5015281816115de0152818161161a01528181611cb801528181611db10152613bdc0152600081816103b501526141480152600081816103dc01528181611873015281816122db015281816123de0152818161367e0152614127015260006118eb0152600081816106e901528181610e700152818161169f01528181611efc015281816128c30152612c430152600081816102c701528181610b6301528181610dc80152818161166e01528181611ed6015261289401526000818161062a01528181610a9201528181610c3b01528181610d19015281816119c201528181612b340152612c7a01526153cb6000f3fe608060405234801561001057600080fd5b506004361061024b5760003560e01c806353a14c251161014257806353a14c25146105065780636352211e146105195780636f2faebf1461052c57806370a082311461053f57806395d89b41146105525780639dc29fac1461055a578063a22cb4651461056d578063b0d827b514610580578063b1ed2521146105a0578063b88d4fde146105c0578063bb2dcb60146105d3578063bbf34469146105e5578063c31c9c07146105f8578063c34ff9fd14610611578063c45a015514610625578063c45c4f581461064c578063c6abb1d014610654578063c846266614610667578063c87b56dd146106d1578063d21220a7146106e4578063d9895e6a1461070b578063ddca3f43146107a0578063e985e9c5146107c7578063ea570027146107da578063f83c3d08146107fa57600080fd5b806301ffc9a71461025057806306fdde0314610278578063081812fc1461028d578063095ea7b3146102ad5780630dfe1681146102c2578063158ef93e146102e957806319e7b786146102f65780631a3dac33146102fe5780631c69ad0014610342578063222e2f951461034a57806323b872dd14610353578063242693d31461036657806325ba60ec14610382578063263810251461038a5780632ec0ff6c1461039d57806332b7f1d8146103b0578063349593a3146103d75780633c50594f146103fe5780633c6d5c72146104305780634213cd321461043b57806342842e0e14610469578063490e6cbc1461047c5780635029f54d1461048f5780635273f2bc146104d1575b600080fd5b61026361025e366004614cc0565b61080e565b60405190151581526020015b60405180910390f35b610280610860565b60405161026f9190614eb8565b6102a061029b366004614d12565b6108f2565b60405161026f9190614e0d565b6102c06102bb366004614bf5565b61097f565b005b6102a07f000000000000000000000000000000000000000000000000000000000000000081565b600c546102639060ff1681565b6102c0610a90565b61033461030c366004614bf5565b6001600160a01b03919091166000908152600960209081526040808320938352929052205490565b60405190815260200161026f565b610334610b49565b610334600d5481565b6102c06103613660046149d7565b610bed565b600e54600f545b6040805192835260208301919091520161026f565b600854610334565b610334610398366004614967565b610c1e565b6102c06103ab366004614bf5565b610c39565b6103347f000000000000000000000000000000000000000000000000000000000000000081565b6103347f000000000000000000000000000000000000000000000000000000000000000081565b61033461040c366004614d42565b6000918252600660209081526040808420600293840b90930b845291905290205490565b60105460115461036d565b61044e610449366004614b95565b610f74565b6040805193845260208401929092529082015260600161026f565b6102c06104773660046149d7565b6115b8565b6102c061048a366004614c20565b6115d3565b6104a261049d366004614cf8565b611840565b6040805196875260208701959095529385019290925260608401526080830152151560a082015260c00161026f565b6104d96118d7565b6040805160029690960b86526020860194909452928401919091526060830152608082015260a00161026f565b61036d610514366004614b1c565b61198e565b6102a0610527366004614d12565b6121c5565b6102c061053a366004614cf8565b61223c565b61033461054d366004614967565b6124a2565b610280612529565b61036d610568366004614bf5565b612538565b6102c061057b366004614aef565b612a39565b61033461058e366004614d12565b6000908152600b602052604090205490565b6013546105ad9060020b81565b60405160029190910b815260200161026f565b6102c06105ce366004614a17565b612afa565b600c5461026390610100900460ff1681565b6102c06105f3366004614ca3565b612b32565b600c546102a0906201000090046001600160a01b031681565b6013546105ad90600160301b900460020b81565b6102a07f000000000000000000000000000000000000000000000000000000000000000081565b610334612c29565b6102c0610662366004614cf8565b612c78565b6106a7610675366004614cf8565b601260205260009081526040902080546001820154600283015460038401546004909401549293919290919060ff1685565b6040805195865260208601949094529284019190915260608301521515608082015260a00161026f565b6102806106df366004614d12565b612e07565b6102a07f000000000000000000000000000000000000000000000000000000000000000081565b610776610719366004614d12565b6040805160608082018352600080835260208084018290529284018190529384526007825292829020825193840183528054600281810b810b810b86526301000000909104810b810b900b91840191909152600101549082015290565b604080518251600290810b825260208085015190910b90820152918101519082015260600161026f565b6103347f000000000000000000000000000000000000000000000000000000000000000081565b6102636107d536600461499f565b612edf565b6107ed6107e8366004614967565b612f0d565b60405161026f9190614e54565b6013546105ad906301000000900460020b81565b60006001600160e01b031982166380ac58cd60e01b148061083f57506001600160e01b03198216635b5e139f60e01b145b8061085a57506301ffc9a760e01b6001600160e01b03198316145b92915050565b60606000805461086f9061525a565b80601f016020809104026020016040519081016040528092919081815260200182805461089b9061525a565b80156108e85780601f106108bd576101008083540402835291602001916108e8565b820191906000526020600020905b8154815290600101906020018083116108cb57829003601f168201915b5050505050905090565b60006108fd82612f90565b6109635760405162461bcd60e51b815260206004820152602c60248201527f4552433732313a20617070726f76656420717565727920666f72206e6f6e657860448201526b34b9ba32b73a103a37b5b2b760a11b60648201526084015b60405180910390fd5b506000908152600460205260409020546001600160a01b031690565b600061098a826121c5565b9050806001600160a01b0316836001600160a01b031614156109f85760405162461bcd60e51b815260206004820152602160248201527f4552433732313a20617070726f76616c20746f2063757272656e74206f776e656044820152603960f91b606482015260840161095a565b336001600160a01b0382161480610a145750610a148133612edf565b610a815760405162461bcd60e51b815260206004820152603860248201527f4552433732313a20617070726f76652063616c6c6572206973206e6f74206f776044820152771b995c881b9bdc88185c1c1c9bdd995908199bdc88185b1b60421b606482015260840161095a565b610a8b8383612fad565b505050565b7f00000000000000000000000000000000000000000000000000000000000000006001600160a01b031663c31c9c076040518163ffffffff1660e01b815260040160206040518083038186803b158015610ae957600080fd5b505afa158015610afd573d6000803e3d6000fd5b505050506040513d601f19601f82011682018060405250810190610b219190614983565b600c60026101000a8154816001600160a01b0302191690836001600160a01b03160217905550565b6040516370a0823160e01b81526000906001600160a01b037f000000000000000000000000000000000000000000000000000000000000000016906370a0823190610b98903090600401614e0d565b60206040518083038186803b158015610bb057600080fd5b505afa158015610bc4573d6000803e3d6000fd5b505050506040513d601f19601f82011682018060405250810190610be89190614d2a565b905090565b610bf7338261301b565b610c135760405162461bcd60e51b815260040161095a90614f1d565b610a8b8383836130e5565b6001600160a01b03166000908152600a602052604090205490565b7f00000000000000000000000000000000000000000000000000000000000000006001600160a01b0316638da5cb5b6040518163ffffffff1660e01b815260040160206040518083038186803b158015610c9257600080fd5b505afa158015610ca6573d6000803e3d6000fd5b505050506040513d601f19601f82011682018060405250810190610cca9190614983565b6001600160a01b0316336001600160a01b031614610d135760405162461bcd60e51b815260040161095a906020808252600490820152630506346360e41b604082015260600190565b610dae827f00000000000000000000000000000000000000000000000000000000000000006001600160a01b031663c415b95c6040518163ffffffff1660e01b815260040160206040518083038186803b158015610d7057600080fd5b505afa158015610d84573d6000803e3d6000fd5b505050506040513d601f19601f82011682018060405250810190610da89190614983565b8361327e565b600e546040516370a0823160e01b81526001600160a01b037f000000000000000000000000000000000000000000000000000000000000000016906370a0823190610dfd903090600401614e0d565b60206040518083038186803b158015610e1557600080fd5b505afa158015610e29573d6000803e3d6000fd5b505050506040513d601f19601f82011682018060405250810190610e4d9190614d2a565b10158015610ef85750600f546040516370a0823160e01b81526001600160a01b037f000000000000000000000000000000000000000000000000000000000000000016906370a0823190610ea5903090600401614e0d565b60206040518083038186803b158015610ebd57600080fd5b505afa158015610ed1573d6000803e3d6000fd5b505050506040513d601f19601f82011682018060405250810190610ef59190614d2a565b10155b610f2d5760405162461bcd60e51b815260040161095a906020808252600490820152635063463160e01b604082015260600190565b816001600160a01b03167fdfeef5879c25440d1418a79a16489f0e739d22ac040c8c76f7b998fc704edeb882604051610f6891815260200190565b60405180910390a25050565b600c546000908190819060ff16610fb35760405162461bcd60e51b81526020600482015260036024820152620506d360ec1b604482015260640161095a565b8760020b8760020b1215610fef5760405162461bcd60e51b8152602060048201526003602482015262506d3160e81b604482015260640161095a565b6000604051806101000160405280601054815260200160115481526020016000815260200160008152602001600081526020016000815260200160008152602001600081525090506008600081548092919061104a906152b1565b91905055935061105a8a8561337e565b6013546000858152600760205260409020805460028b810b62ffffff90811663010000000265ffffffffffff199093168e830b918216179290921783556001929092018a905591810b919082900b12156110ec57885b8a60020b8160020b126110e6576110c881878b61339c565b6110d29086614fd3565b9450806110de8161521f565b9150506110b0565b50611449565b8060020b8960020b121561113257895b8960020b8160020b136110e65761111481878b61352b565b61111e9085614fd3565b93508061112a8161528f565b9150506110fc565b600061113f826001614f8d565b90505b8960020b8160020b136111785761115a81878b61339c565b6111649086614fd3565b9450806111708161528f565b915050611142565b506000611186600183615195565b90505b8a60020b8160020b126111bf576111a181878b61352b565b6111ab9085614fd3565b9350806111b78161521f565b915050611189565b506111c98161364d565b60e0860181905260c0860182905260a08601839052608086018490526000936111f593909290916136b6565b905060008084608001516000148015611210575060a0850151155b80611219575082155b156112be5760028560e001518660c001516112349190615176565b8660c001518760e0015161124891906151dc565b61125a670de0b6b3a76400008f615176565b6112649190615176565b61126e9190614feb565b6112789190614feb565b91506002670de0b6b3a76400008660c001518760e0015161129991906151dc565b6112a3908e615176565b6112ad9190614feb565b6112b79190614feb565b90506112f9565b8285608001518c6112cf9190615176565b6112d99190614feb565b9150828560a001518c6112ec9190615176565b6112f69190614feb565b90505b600061132d83876080015161130e9190614fd3565b838860a0015161131e9190614fd3565b8860c001518960e001516136b6565b90506113398389614fd3565b97506113458288614fd3565b600286810b900b6000908152601260205260409020600301549097501580159061136e57508315155b156113d0578361137e81836151dc565b600287810b900b6000908152601260205260409020600301546113a19190615176565b6113ab9190614feb565b60008a815260066020908152604080832060028a810b900b84529091529020556113f3565b6000898152600660209081526040808320600289810b900b845290915290208190555b6000898152600660209081526040808320600289810b900b84528252808320546012909252822060030180549192909161142e908490614fd3565b90915550611444905085848460018060006137e5565b505050505b604051637b52f4f760e01b81523390637b52f4f79061147290879087908c908c90600401614e98565b600060405180830381600087803b15801561148c57600080fd5b505af11580156114a0573d6000803e3d6000fd5b505050506114ac610b49565b60408301526114b9612c29565b606083015281516114cb908590614fd3565b8260400151101580156114f157508282602001516114e99190614fd3565b826060015110155b6115235760405162461bcd60e51b815260206004820152600360248201526228369960e91b604482015260640161095a565b6040805133815260208101879052908101899052606081018590526080810184905260028a810b91908c900b906001600160a01b038e16907f0ef23dbed0ea024864438901c1124e19c53127c263e6d85a0b217e55d1f8b8169060a00160405180910390a46115a082604001518360600151601091909155601155565b6115a86148ab565b9150505096509650969350505050565b610a8b83838360405180602001604052806000815250612afa565b6000620f42406116037f000000000000000000000000000000000000000000000000000000000000000087615176565b61160d9190614feb565b90506000620f424061163f7f000000000000000000000000000000000000000000000000000000000000000087615176565b6116499190614feb565b90506000611655610b49565b90506000611661612c29565b90508715611694576116947f00000000000000000000000000000000000000000000000000000000000000008a8a61327e565b86156116c5576116c57f00000000000000000000000000000000000000000000000000000000000000008a8961327e565b604051630e19c67d60e01b81523390630e19c67d906116ee90879087908b908b90600401614e98565b600060405180830381600087803b15801561170857600080fd5b505af115801561171c573d6000803e3d6000fd5b50505050600061172a610b49565b90506000611736612c29565b9050816117438786614fd3565b11156117775760405162461bcd60e51b815260206004820152600360248201526205066360ec1b604482015260640161095a565b806117828685614fd3565b11156117b65760405162461bcd60e51b815260206004820152600360248201526250663160e81b604482015260640161095a565b60006117c285846151dc565b905060006117d085846151dc565b601085905560118490559050604080518d8152602081018d9052908101839052606081018290526001600160a01b038e169033907fbdbdb71d7860376ba52b25a5028beea23581364a40522f6bcfb86bb1f2dca6339060800160405180910390a350505050505050505050505050565b600281810b810b600090815260126020526040812080546001820154919093015490918080670de0b6b3a76400006118987f000000000000000000000000000000000000000000000000000000000000000086615176565b6118a29190614feb565b600297880b90970b600090815260126020526040902060038101546004909101549698959794969495909460ff169350915050565b6013546000908190819081908190611913907f00000000000000000000000000000000000000000000000000000000000000009060020b6150ed565b94506000806000806119248961364d565b9350935093509350611938848484846136b6565b96508061194d670de0b6b3a764000089615176565b6119579190614feb565b6119619085614fd3565b611973670de0b6b3a764000089615176565b61197d9190614feb565b989996975092959194509092505050565b600c5460009081906201000090046001600160a01b03163314611a79576040516303f45d4160e01b81526001600160a01b037f000000000000000000000000000000000000000000000000000000000000000016906303f45d41906119f7903390600401614e0d565b60206040518083038186803b158015611a0f57600080fd5b505afa158015611a23573d6000803e3d6000fd5b505050506040513d601f19601f82011682018060405250810190611a479190614c87565b611a795760405162461bcd60e51b815260206004820152600360248201526205073360ec1b604482015260640161095a565b600060405180608001604052808a6001600160a01b03168152602001891515815260200188815260200186868080601f0160208091040260200160405190810160405280939291908181526020018383808284376000920182905250939094525050604080516101008101825260105481526011546020820152808201839052606081018390526080810183905260a0810183905260c0810183905260e08101839052601354918501519495509391925082918291829160029190910b90821315611c99578660400151611b4c906152e0565b9150866020015115611bb057600f54821115611b905760405162461bcd60e51b815260206004820152600360248201526250733160e81b604482015260640161095a565b600281810b900b6000908152601260205260409020600101549450611c04565b600e54821115611beb5760405162461bcd60e51b815260040161095a906020808252600490820152632839981960e11b604082015260600190565b600281810b900b60009081526012602052604090205494505b84821115611c6257611c1b81886020015187613aa8565b611c259085614fd3565b9350611c3185836151dc565b601354602089015191935060020b9150611b9057600281810b900b6000908152601260205260409020549450611c04565b8115611c8457611c7781886020015184613aa8565b611c819085614fd3565b93505b8660400151611c92906152e0565b9250611ec8565b600087604001511315611ec857604087015191506000620f4240611cdd7f000000000000000000000000000000000000000000000000000000000000000085615176565b611ce79190614feb565b9050611cf28261364d565b60e08b0181905260c08b0182905260a08b0183905260808b0184905260208c0151600094611d2d9491939092611d28888b6151dc565b613dd7565b90508860200151611d42578760800151611d48565b8760a001515b96505b86811115611e51576020890151611d7790849080611d6d578a60800151613aa8565b8a60a00151613aa8565b611d8190856151dc565b93508860200151611d96578760800151611d9c565b8760a001515b611da69086614fd3565b9450620f4240611dd67f000000000000000000000000000000000000000000000000000000000000000086615176565b611de09190614feb565b60135460020b93509150611df38361364d565b60e08c015260c08b015260a08a015260808901526020890151611e1a578760800151611e20565b8760a001515b9650611e4a896020015189608001518a60a001518b60c001518c60e00151878a611d2891906151dc565b9050611d4b565b6000611e62848b6020015184613aa8565b905084811115611e9a5760405162461bcd60e51b815260206004820152600360248201526250733360e81b604482015260640161095a565b611ea481866151dc565b9450611eb08287614fd3565b9550848a60400151611ec291906151dc565b96505050505b611f248760200151611efa577f0000000000000000000000000000000000000000000000000000000000000000611f1c565b7f00000000000000000000000000000000000000000000000000000000000000005b88518561327e565b336001600160a01b031663482357eb8860200151611f4a57611f45856152e0565b611f4c565b855b8960200151611f5b5786611f64565b611f64866152e0565b8e8e6040518563ffffffff1660e01b8152600401611f859493929190614e98565b600060405180830381600087803b158015611f9f57600080fd5b505af1158015611fb3573d6000803e3d6000fd5b50505050611fbf610b49565b6040870152611fcc612c29565b6060870152602087015115612045578551611fe8908590614fd3565b86604001511015801561200e575082866020015161200691906151dc565b866060015110155b6120405760405162461bcd60e51b8152602060048201526003602482015262141ccd60ea1b604482015260640161095a565b6120aa565b8386602001516120559190614fd3565b866060015110158015612078575085516120709084906151dc565b866040015110155b6120aa5760405162461bcd60e51b815260206004820152600360248201526250733560e81b604482015260640161095a565b6120c286604001518760600151601091909155601155565b6120ca6148ab565b955086602001511561214b57865143906001600160a01b0316337f453be16f272d63a7cf83a171f12cdd6ec417913cb2b4f49aeeef4aefc031a72e8761210f886152e0565b6040805192835260208301919091520160405180910390a461212f6148f0565b96508361213b846152e0565b98509850505050505050506121ba565b6121536148f0565b805190975043906001600160a01b0316337f453be16f272d63a7cf83a171f12cdd6ec417913cb2b4f49aeeef4aefc031a72e61218e876152e0565b60408051918252602082018a90520160405180910390a46121ae836152e0565b98509296505050505050505b965096945050505050565b6000818152600260205260408120546001600160a01b03168061085a5760405162461bcd60e51b815260206004820152602960248201527f4552433732313a206f776e657220717565727920666f72206e6f6e657869737460448201526832b73a103a37b5b2b760b91b606482015260840161095a565b600281810b900b60009081526012602052604090206004015460ff161561228a5760405162461bcd60e51b8152602060048201526002602482015261506160f01b604482015260640161095a565b60135463010000009004600290810b810b9082900b1315612395576013546000906122c0906301000000900460020b6001614f8d565b90505b8160020b8160020b1361237157670de0b6b3a76400007f000000000000000000000000000000000000000000000000000000000000000060126000612309600186615195565b60020b60020b81526020019081526020016000206002015461232b9190615176565b6123359190614feb565b600282810b810b600090815260126020526040902090810191909155600401805460ff19166001179055806123698161528f565b9150506122c3565b506013805465ffffff0000001916630100000062ffffff600285900b160217905550565b601354600160301b9004600290810b810b9082900b121561249f576013546000906123cc90600190600160301b900460020b615195565b90505b8160020b8160020b1261247d577f0000000000000000000000000000000000000000000000000000000000000000670de0b6b3a764000060126000612415856001614f8d565b60020b60020b8152602001908152602001600020600201546124379190615176565b6124419190614feb565b600282810b810b600090815260126020526040902090810191909155600401805460ff19166001179055806124758161521f565b9150506123cf565b506013805462ffffff60301b1916600160301b62ffffff600285900b16021790555b50565b60006001600160a01b03821661250d5760405162461bcd60e51b815260206004820152602a60248201527f4552433732313a2062616c616e636520717565727920666f7220746865207a65604482015269726f206164647265737360b01b606482015260840161095a565b506001600160a01b031660009081526003602052604090205490565b60606001805461086f9061525a565b60008061254483612f90565b6125765760405162461bcd60e51b815260206004820152600360248201526205062360ec1b604482015260640161095a565b61257f836121c5565b6001600160a01b0316336001600160a01b0316146125f9576125a1338461301b565b6125d35760405162461bcd60e51b815260206004820152600360248201526250623160e81b604482015260640161095a565b6125dc836121c5565b6001600160a01b0316326001600160a01b0316146125f957600080fd5b604080516101008101825260105481526011546020808301919091526000828401819052606083018190526080830181905260a0830181905260c0830181905260e08301819052601354878252600790925292909220549091600290810b9163010000008104820b9190810b9083810b9083900b12156126ba57815b8160020b8160020b126126b45761268e81896001613f65565b8560800181815161269f9190614fd3565b905250806126ac8161521f565b915050612675565b5061288f565b8260020b8160020b131561270957805b8260020b8160020b136126b4576126e381896000613f65565b8560a0018181516126f49190614fd3565b905250806127018161528f565b9150506126ca565b815b8360020b8160020b131561274b5761272581896001613f65565b856080018181516127369190614fd3565b905250806127438161521f565b91505061270b565b50805b8360020b8160020b121561278e5761276881896000613f65565b8560a0018181516127799190614fd3565b905250806127868161528f565b91505061274e565b506000878152600660209081526040808320600287810b900b845282528083208054908490556012909252909120600381015490546127cd9083615176565b6127d79190614feb565b60c0860152600284810b900b600090815260126020526040902060038101546001909101546128069083615176565b6128109190614feb565b60e086015260c085015160808601805161282b908390614fd3565b90525060e085015160a086018051612844908390614fd3565b90525060c085015160e0860151612860918691600080806137e5565b600284810b900b600090815260126020526040812060030180548392906128889084906151dc565b9091555050505b6128be7f000000000000000000000000000000000000000000000000000000000000000089866080015161327e565b6128ed7f0000000000000000000000000000000000000000000000000000000000000000898660a0015161327e565b6128f5610b49565b6040850152612902612c29565b60608501526080840151845161291891906151dc565b84604001511015801561294257508360a00151846020015161293a91906151dc565b846060015110155b6129745760405162461bcd60e51b815260206004820152600360248201526228311960e91b604482015260640161095a565b8160020b8160020b612985896121c5565b6001600160a01b03167f0b557284304b8283f8be757e1a8cea2735fc957b7a9c6936c41bffd3dae646d58b8b89608001518a60a001516040516129ec94939291906001600160a01b0394909416845260208401929092526040830152606082015260800190565b60405180910390a46129fd87614054565b612a1584604001518560600151601091909155601155565b608084015160a0850151612a276148ab565b509096509450505050505b9250929050565b6001600160a01b038216331415612a8e5760405162461bcd60e51b815260206004820152601960248201527822a9219b99189d1030b8383937bb32903a379031b0b63632b960391b604482015260640161095a565b3360008181526005602090815260408083206001600160a01b03871680855290835292819020805460ff191686151590811790915590519081529192917f17307eab39ab6107e8899845ad3d59bd9653f200f220920489ca2b5937696c31910160405180910390a35050565b612b04338361301b565b612b205760405162461bcd60e51b815260040161095a90614f1d565b612b2c848484846140e9565b50505050565b7f00000000000000000000000000000000000000000000000000000000000000006001600160a01b0316638da5cb5b6040518163ffffffff1660e01b815260040160206040518083038186803b158015612b8b57600080fd5b505afa158015612b9f573d6000803e3d6000fd5b505050506040513d601f19601f82011682018060405250810190612bc39190614983565b6001600160a01b0316336001600160a01b031614612c0b5760405162461bcd60e51b8152602060048201526005602482015264050735046360dc1b604482015260640161095a565b600c80549215156101000261ff001990931692909217909155600d55565b6040516370a0823160e01b81526000906001600160a01b037f000000000000000000000000000000000000000000000000000000000000000016906370a0823190610b98903090600401614e0d565b7f00000000000000000000000000000000000000000000000000000000000000006001600160a01b0316638da5cb5b6040518163ffffffff1660e01b815260040160206040518083038186803b158015612cd157600080fd5b505afa158015612ce5573d6000803e3d6000fd5b505050506040513d601f19601f82011682018060405250810190612d099190614983565b6001600160a01b0316336001600160a01b031614612d4f5760405162461bcd60e51b815260206004820152600360248201526205069360ec1b604482015260640161095a565b600c5460ff1615612d885760405162461bcd60e51b815260206004820152600360248201526250693160e81b604482015260640161095a565b612d918161411c565b600291820b80830b60009081526012602052604090209283019190915560049091018054600160ff199182168117909255600c805490911690911790556013805465ffffffffffff191662ffffff909216918217630100000083021762ffffff60301b1916600160301b92909202919091179055565b6060612e1282612f90565b612e765760405162461bcd60e51b815260206004820152602f60248201527f4552433732314d657461646174613a2055524920717565727920666f72206e6f60448201526e3732bc34b9ba32b73a103a37b5b2b760891b606482015260840161095a565b6000612e8d60408051602081019091526000815290565b90506000815111612ead5760405180602001604052806000815250612ed8565b80612eb78461425c565b604051602001612ec8929190614dde565b6040516020818303038152906040525b9392505050565b6001600160a01b03918216600090815260056020908152604080832093909416825291909152205460ff1690565b60606000612f1a83610c1e565b905060015b818111612f89576001600160a01b03841660009081526009602090815260408083208484529091529020548351849083908110612f6c57634e487b7160e01b600052603260045260246000fd5b602090810291909101015280612f81816152b1565b915050612f1f565b5050919050565b6000908152600260205260409020546001600160a01b0316151590565b600081815260046020526040902080546001600160a01b0319166001600160a01b0384169081179091558190612fe2826121c5565b6001600160a01b03167f8c5be1e5ebec7d5bd14f71427d1e84f3dd0314c0f7b2291e5b200ac8c7c3b92560405160405180910390a45050565b600061302682612f90565b6130875760405162461bcd60e51b815260206004820152602c60248201527f4552433732313a206f70657261746f7220717565727920666f72206e6f6e657860448201526b34b9ba32b73a103a37b5b2b760a11b606482015260840161095a565b6000613092836121c5565b9050806001600160a01b0316846001600160a01b031614806130cd5750836001600160a01b03166130c2846108f2565b6001600160a01b0316145b806130dd57506130dd8185612edf565b949350505050565b826001600160a01b03166130f8826121c5565b6001600160a01b0316146131605760405162461bcd60e51b815260206004820152602960248201527f4552433732313a207472616e73666572206f6620746f6b656e2074686174206960448201526839903737ba1037bbb760b91b606482015260840161095a565b6001600160a01b0382166131c25760405162461bcd60e51b8152602060048201526024808201527f4552433732313a207472616e7366657220746f20746865207a65726f206164646044820152637265737360e01b606482015260840161095a565b6131cd838383614375565b6131d8600082612fad565b6001600160a01b03831660009081526003602052604081208054600192906132019084906151dc565b90915550506001600160a01b038216600090815260036020526040812080546001929061322f908490614fd3565b909155505060008181526002602052604080822080546001600160a01b0319166001600160a01b03868116918217909255915184939187169160008051602061537683398151915291a4505050565b604080516001600160a01b038481166024830152604480830185905283518084039091018152606490920183526020820180516001600160e01b031663a9059cbb60e01b17905291516000928392908716916132da9190614dc2565b6000604051808303816000865af19150503d8060008114613317576040519150601f19603f3d011682016040523d82523d6000602084013e61331c565b606091505b50915091508180156133465750805115806133465750808060200190518101906133469190614c87565b6133775760405162461bcd60e51b815260206004820152600260248201526114d560f21b604482015260640161095a565b5050505050565b613398828260405180602001604052806000815250614462565b5050565b600283810b900b60009081526012602052604081206004015460ff166133c5576133c58461223c565b60008060006133d38761364d565b93509350509250670de0b6b3a764000082101561342b576133f48183615176565b6133fe83836151dc565b613410670de0b6b3a764000088615176565b61341a9190615176565b6134249190614feb565b9350613469565b670de0b6b3a764000061343e8284615176565b6134489190614feb565b61345283836151dc565b61345c9087615176565b6134669190614feb565b93505b600287810b900b600090815260126020526040812060030154156134be57600288810b900b60009081526012602052604090206003015484906134ad908790615176565b6134b79190614feb565b90506134ce565b6134cb85600085856136b6565b90505b600087815260066020908152604080832060028c810b900b8452825280832084905560129091528120600301805483929061350a908490614fd3565b90915550613520905088866000600180826137e5565b505050509392505050565b600283810b900b60009081526012602052604081206004015460ff16613554576135548461223c565b60008060006135628761364d565b93509350935050670de0b6b3a7640000828261357e91906151dc565b6135889087615176565b6135929190614feb565b600288810b900b60009081526012602052604081206003015491955090156135eb57600288810b900b60009081526012602052604090206003015484906135da908790615176565b6135e49190614feb565b90506135fb565b6135f860008685856136b6565b90505b600087815260066020908152604080832060028c810b900b84528252808320849055601290915281206003018054839290613637908490614fd3565b90915550613520905088600087600180836137e5565b600281810b810b60009081526012602052604081208054600182015491909301549091670de0b6b3a76400006136a37f000000000000000000000000000000000000000000000000000000000000000084615176565b6136ad9190614feb565b90509193509193565b600080826136cc670de0b6b3a764000087615176565b6136d69190614feb565b670de0b6b3a76400006136e98689615176565b6136f39190614feb565b6136fd9190614fd3565b90506000613777670de0b6b3a7640000856137188289615176565b6137229190614feb565b61373490670de0b6b3a76400006151dc565b61373e898b615176565b6137489190615176565b6137529190614feb565b61375d906004615176565b613768600285615042565b6137729190614fd3565b614495565b90508361378c86670de0b6b3a7640000615176565b6137969190614feb565b6137a890670de0b6b3a76400006151dc565b6137b3906002615176565b670de0b6b3a76400006137c68385614fd3565b6137d09190615176565b6137da9190614feb565b979650505050505050565b60008361381257600287810b900b60009081526012602052604090205461380d9087906151dc565b613833565b600287810b900b600090815260126020526040902054613833908790614fd3565b905060008361386557600288810b900b6000908152601260205260409020600101546138609087906151dc565b613889565b600288810b900b600090815260126020526040902060010154613889908790614fd3565b600289810b900b60009081526012602052604090208381556001018190559050846138c15786600e546138bc91906151dc565b6138cf565b86600e546138cf9190614fd3565b600e55836138ea5785600f546138e591906151dc565b6138f8565b85600f546138f89190614fd3565b600f558215613a9e578115801561394057506013546012906000906139219060020b6001614f8d565b600290810b900b815260208101919091526040016000206004015460ff165b80156139565750601354600289810b91810b900b145b156139cf576013805460020b90600061396e8361528f565b91906101000a81548162ffffff021916908360020b62ffffff1602179055505087600161399b9190614f8d565b60020b8860020b7fd574b3e557912c2f77746e9b82d60793270e94af3c27d050f3ac93fb8bbd47ac60405160405180910390a35b80158015613a0f57506013546012906000906139f09060019060020b615195565b600290810b900b815260208101919091526040016000206004015460ff165b8015613a255750601354600289810b91810b900b145b15613a9e576013805460020b906000613a3d8361521f565b91906101000a81548162ffffff021916908360020b62ffffff16021790555050600188613a6a9190615195565b60020b8860020b7fd574b3e557912c2f77746e9b82d60793270e94af3c27d050f3ac93fb8bbd47ac60405160405180910390a35b5050505050505050565b601354600090600285810b91810b900b14613aed5760405162461bcd60e51b8152602060048201526005602482015264050734952360dc1b604482015260640161095a565b600060405180610100016040528060105481526020016011548152602001600081526020016000815260200160008152602001600081526020016000815260200160008152509050613b3e8561364d565b60e085015260c084015260a08301526080820152838015613b6357508060a001518311155b80613b7b575083158015613b7b575080608001518311155b613baf5760405162461bcd60e51b8152602060048201526005602482015264507349523160d81b604482015260640161095a565b6000613bcf8583608001518460a001518560c001518660e0015189614505565b90506000620f4240613c017f000000000000000000000000000000000000000000000000000000000000000084615176565b613c0b9190614feb565b9050613c178183614fd3565b600c54909450849250610100900460ff1615613c5657620f4240600d5482613c3f9190615176565b613c499190614feb565b613c5390856151dc565b91505b8515613d0257613c7883608001518460a001518560c001518660e001516136b6565b613caa838560800151613c8b9190614fd3565b878660a00151613c9b91906151dc565b8660c001518760e001516136b6565b1015613cc85760405162461bcd60e51b815260040161095a90614f6e565b8260a00151851115613cec5760405162461bcd60e51b815260040161095a90614f6e565b613cfd8783876001600060016137e5565b613dc3565b613d1e83608001518460a001518560c001518660e001516136b6565b613d41868560800151613d3191906151dc565b848660a00151613c9b9190614fd3565b1015613d775760405162461bcd60e51b8152602060048201526005602482015264507349523360d81b604482015260640161095a565b8260800151851115613db35760405162461bcd60e51b8152602060048201526005602482015264141cd2548d60da1b604482015260640161095a565b613dc387868460006001806137e5565b613dcb6148ab565b92505050509392505050565b600081613de657506000613f5b565b6000613df4878787876136b6565b905060008111613e2e5760405162461bcd60e51b8152602060048201526005602482015264121053dd5d60da1b604482015260640161095a565b8715613ec9578284613e48670de0b6b3a764000084615176565b613e529190614feb565b613e5c9089614fd3565b613e669190614fd3565b613e708280615176565b613e7a9190614feb565b670de0b6b3a7640000613e8d8784615176565b613e979190614feb565b613ea19088614fd3565b613eab91906151dc565b91506001821115613ec45781613ec081615243565b9250505b613f59565b82670de0b6b3a7640000613edd8784615176565b613ee79190614feb565b613ef19088614fd3565b613efb9190614fd3565b613f058280615176565b613f0f9190614feb565b84613f22670de0b6b3a764000084615176565b613f2c9190614feb565b613f369089614fd3565b613f4091906151dc565b91506001821115613f595781613f5581615243565b9250505b505b9695505050505050565b6000828152600660209081526040808320600287810b900b845290915281208054908290558215613fd757600285810b900b600090815260126020526040902060038101549054613fb69083615176565b613fc09190614feb565b9150613fd285836000806000806137e5565b61401e565b600285810b900b600090815260126020526040902060038101546001909101546140019083615176565b61400b9190614feb565b915061401e8560008460008060006137e5565b600285810b900b600090815260126020526040812060030180548392906140469084906151dc565b909155509195945050505050565b600061405f826121c5565b905061406d81600084614375565b614078600083612fad565b6001600160a01b03811660009081526003602052604081208054600192906140a19084906151dc565b909155505060008281526002602052604080822080546001600160a01b0319169055518391906001600160a01b03841690600080516020615376833981519152908390a45050565b6140f48484846130e5565b61410084848484614675565b612b2c5760405162461bcd60e51b815260040161095a90614ecb565b670de0b6b3a76400007f00000000000000000000000000000000000000000000000000000000000000007f00000000000000000000000000000000000000000000000000000000000000005b60008460020b13156141e25760648460020b13156141b157670de0b6b3a76400006141938285615176565b61419d9190614feb565b92506141aa606485615195565b9350614168565b670de0b6b3a76400006141c48385615176565b6141ce9190614feb565b9250836141da8161521f565b945050614168565b60008460020b1215612f895760648460020b131561422b578061420d670de0b6b3a764000085615176565b6142179190614feb565b9250614224846064614f8d565b93506141e2565b8161423e670de0b6b3a764000085615176565b6142489190614feb565b9250836142548161528f565b9450506141e2565b6060816142805750506040805180820190915260018152600360fc1b602082015290565b8160005b81156142aa5780614294816152b1565b91506142a39050600a83614feb565b9150614284565b6000816001600160401b038111156142d257634e487b7160e01b600052604160045260246000fd5b6040519080825280601f01601f1916602001820160405280156142fc576020820181803683370190505b5090505b84156130dd576143116001836151dc565b915061431e600a866152cc565b614329906030614fd3565b60f81b81838151811061434c57634e487b7160e01b600052603260045260246000fd5b60200101906001600160f81b031916908160001a90535061436e600a86614feb565b9450614300565b6000818152600b60209081526040808320546001600160a01b038088168552600984528285208286529093529083209290925583161561444e576001600160a01b0383166000908152600a60205260408120805490826143d4836152b1565b9091555090508061441857806143e9816152b1565b6001600160a01b0386166000908152600a602052604081208054929450919250614412836152b1565b91905055505b6001600160a01b03841660009081526009602090815260408083208484528252808320869055858352600b909152902055612b2c565b506000908152600b60205260408120555050565b61446c838361477f565b6144796000848484614675565b610a8b5760405162461bcd60e51b815260040161095a90614ecb565b600060038211156144f657508060006144af600283614feb565b6144ba906001614fd3565b90505b818110156144f0579050806002816144d58186614feb565b6144df9190614fd3565b6144e99190614feb565b90506144bd565b50919050565b8115614500575060015b919050565b60008161451457506000613f5b565b6000614522878787876136b6565b90506000811161455d5760405162461bcd60e51b815260040161095a906020808252600490820152632420a4b760e11b604082015260600190565b87156145ec5783614576670de0b6b3a764000083615176565b6145809190614feb565b61458a9088614fd3565b83670de0b6b3a764000061459e8885615176565b6145a89190614feb565b6145b29089614fd3565b6145bc91906151dc565b6145c68380615176565b6145d09190614feb565b6145da91906151dc565b91508115613ec45781613ec0816152b1565b670de0b6b3a76400006145ff8683615176565b6146099190614feb565b6146139087614fd3565b8385614627670de0b6b3a764000085615176565b6146319190614feb565b61463b908a614fd3565b61464591906151dc565b61464f8380615176565b6146599190614feb565b61466391906151dc565b91508115613f595781613f55816152b1565b60006001600160a01b0384163b1561477757604051630a85bd0160e11b81526001600160a01b0385169063150b7a02906146b9903390899088908890600401614e21565b602060405180830381600087803b1580156146d357600080fd5b505af1925050508015614703575060408051601f3d908101601f1916820190925261470091810190614cdc565b60015b61475d573d808015614731576040519150601f19603f3d011682016040523d82523d6000602084013e614736565b606091505b5080516147555760405162461bcd60e51b815260040161095a90614ecb565b805181602001fd5b6001600160e01b031916630a85bd0160e11b1490506130dd565b5060016130dd565b6001600160a01b0382166147d55760405162461bcd60e51b815260206004820181905260248201527f4552433732313a206d696e7420746f20746865207a65726f2061646472657373604482015260640161095a565b6147de81612f90565b1561482a5760405162461bcd60e51b815260206004820152601c60248201527b115490cdcc8c4e881d1bdad95b88185b1c9958591e481b5a5b9d195960221b604482015260640161095a565b61483660008383614375565b6001600160a01b038216600090815260036020526040812080546001929061485f908490614fd3565b909155505060008181526002602052604080822080546001600160a01b0319166001600160a01b0386169081179091559051839290600080516020615376833981519152908290a45050565b60405180610100016040528060008152602001600081526020016000815260200160008152602001600081526020016000815260200160008152602001600081525090565b604080516080810182526000808252602082018190529181019190915260608082015290565b60008083601f840112614927578182fd5b5081356001600160401b0381111561493d578182fd5b602083019150836020828501011115612a3257600080fd5b8035600281900b811461450057600080fd5b600060208284031215614978578081fd5b8135612ed88161533c565b600060208284031215614994578081fd5b8151612ed88161533c565b600080604083850312156149b1578081fd5b82356149bc8161533c565b915060208301356149cc8161533c565b809150509250929050565b6000806000606084860312156149eb578081fd5b83356149f68161533c565b92506020840135614a068161533c565b929592945050506040919091013590565b60008060008060808587031215614a2c578081fd5b8435614a378161533c565b93506020850135614a478161533c565b92506040850135915060608501356001600160401b0380821115614a69578283fd5b818701915087601f830112614a7c578283fd5b813581811115614a8e57614a8e615326565b604051601f8201601f19908116603f01168101908382118183101715614ab657614ab6615326565b816040528281528a6020848701011115614ace578586fd5b82602086016020830137918201602001949094529598949750929550505050565b60008060408385031215614b01578182fd5b8235614b0c8161533c565b915060208301356149cc81615351565b60008060008060008060a08789031215614b34578182fd5b8635614b3f8161533c565b95506020870135614b4f81615351565b9450604087013593506060870135925060808701356001600160401b03811115614b77578283fd5b614b8389828a01614916565b979a9699509497509295939492505050565b60008060008060008060a08789031215614bad578182fd5b8635614bb88161533c565b9550614bc660208801614955565b9450614bd460408801614955565b93506060870135925060808701356001600160401b03811115614b77578283fd5b60008060408385031215614c07578182fd5b8235614c128161533c565b946020939093013593505050565b600080600080600060808688031215614c37578283fd5b8535614c428161533c565b9450602086013593506040860135925060608601356001600160401b03811115614c6a578182fd5b614c7688828901614916565b969995985093965092949392505050565b600060208284031215614c98578081fd5b8151612ed881615351565b60008060408385031215614cb5578182fd5b8235614c1281615351565b600060208284031215614cd1578081fd5b8135612ed88161535f565b600060208284031215614ced578081fd5b8151612ed88161535f565b600060208284031215614d09578081fd5b612ed882614955565b600060208284031215614d23578081fd5b5035919050565b600060208284031215614d3b578081fd5b5051919050565b60008060408385031215614d54578182fd5b82359150614d6460208401614955565b90509250929050565b81835281816020850137506000828201602090810191909152601f909101601f19169091010190565b60008151808452614dae8160208601602086016151f3565b601f01601f19169290920160200192915050565b60008251614dd48184602087016151f3565b9190910192915050565b60008351614df08184602088016151f3565b835190830190614e048183602088016151f3565b01949350505050565b6001600160a01b0391909116815260200190565b6001600160a01b0385811682528416602082015260408101839052608060608201819052600090613f5b90830184614d96565b6020808252825182820181905260009190848201906040850190845b81811015614e8c57835183529284019291840191600101614e70565b50909695505050505050565b848152836020820152606060408201526000613f5b606083018486614d6d565b602081526000612ed86020830184614d96565b60208082526032908201527f4552433732313a207472616e7366657220746f206e6f6e20455243373231526560408201527131b2b4bb32b91034b6b83632b6b2b73a32b960711b606082015260800190565b60208082526031908201527f4552433732313a207472616e736665722063616c6c6572206973206e6f74206f6040820152701ddb995c881b9bdc88185c1c1c9bdd9959607a1b606082015260800190565b6020808252600590820152642839a4a91960d91b604082015260600190565b60008160020b8360020b82821282627fffff03821381151615614fb257614fb26152fa565b82627fffff19038212811615614fca57614fca6152fa565b50019392505050565b60008219821115614fe657614fe66152fa565b500190565b600082614ffa57614ffa615310565b500490565b600181815b8085111561503a578160001904821115615020576150206152fa565b8085161561502d57918102915b93841c9390800290615004565b509250929050565b6000612ed860ff84168360008261505b5750600161085a565b816150685750600061085a565b816001811461507e5760028114615088576150a4565b600191505061085a565b60ff841115615099576150996152fa565b50506001821b61085a565b5060208310610133831016604e8410600b84101617156150c7575081810a61085a565b6150d18383614fff565b80600019048211156150e5576150e56152fa565b029392505050565b60008160020b8360020b627fffff83821384841383830485118282161615615117576151176152fa565b627fffff1986851282811687830587121615615135576151356152fa565b878712925085820587128484161615615150576151506152fa565b85850587128184161615615166576151666152fa565b5050509290910295945050505050565b6000816000190483118215151615615190576151906152fa565b500290565b60008160020b8360020b82811281627fffff19018312811516156151bb576151bb6152fa565b81627fffff0183138116156151d2576151d26152fa565b5090039392505050565b6000828210156151ee576151ee6152fa565b500390565b60005b8381101561520e5781810151838201526020016151f6565b83811115612b2c5750506000910152565b60008160020b627fffff19811415615239576152396152fa565b6000190192915050565b600081615252576152526152fa565b506000190190565b600181811c9082168061526e57607f821691505b602082108114156144f057634e487b7160e01b600052602260045260246000fd5b60008160020b627fffff8114156152a8576152a86152fa565b60010192915050565b60006000198214156152c5576152c56152fa565b5060010190565b6000826152db576152db615310565b500690565b6000600160ff1b8214156152f6576152f66152fa565b0390565b634e487b7160e01b600052601160045260246000fd5b634e487b7160e01b600052601260045260246000fd5b634e487b7160e01b600052604160045260246000fd5b6001600160a01b038116811461249f57600080fd5b801515811461249f57600080fd5b6001600160e01b03198116811461249f57600080fdfeddf252ad1be2c89b69c2b068fc378daa952ba7f163c4a11628f55a4df523b3efa2646970667358221220150ed3eefb0fb242847f7fb96c7142e57acc3f8df39b07042ad8bf9097af265664736f6c63430008040033",
  "linkReferences": {},
  "deployedLinkReferences": {}
}