{
  "_format": "hh-sol-artifact-1",
  "contractName": "DesireSwapV0Pool",
  "sourceName": "contracts/DesireSwapV0Pool.sol",
  "abi": [
    {
      "inputs": [
        {
          "internalType": "address",
          "name": "factory_",
          "type": "address"
        },
        {
          "internalType": "address",
          "name": "swapRouter_",
          "type": "address"
        },
        {
          "internalType": "address",
          "name": "token0_",
          "type": "address"
        },
        {
          "internalType": "address",
          "name": "token1_",
          "type": "address"
        },
        {
          "internalType": "uint256",
          "name": "fee_",
          "type": "uint256"
        },
        {
          "internalType": "uint256",
          "name": "ticksInRange_",
          "type": "uint256"
        },
        {
          "internalType": "uint256",
          "name": "sqrtRangeMultiplier_",
          "type": "uint256"
        },
        {
          "internalType": "uint256",
          "name": "sqrtRangeMultiplier100_",
          "type": "uint256"
        },
        {
          "internalType": "string",
          "name": "name_",
          "type": "string"
        },
        {
          "internalType": "string",
          "name": "symbol_",
          "type": "string"
        }
      ],
      "stateMutability": "nonpayable",
      "type": "constructor"
    },
    {
      "anonymous": false,
      "inputs": [
        {
          "indexed": true,
          "internalType": "address",
          "name": "owner",
          "type": "address"
        },
        {
          "indexed": true,
          "internalType": "address",
          "name": "approved",
          "type": "address"
        },
        {
          "indexed": true,
          "internalType": "uint256",
          "name": "tokenId",
          "type": "uint256"
        }
      ],
      "name": "Approval",
      "type": "event"
    },
    {
      "anonymous": false,
      "inputs": [
        {
          "indexed": true,
          "internalType": "address",
          "name": "owner",
          "type": "address"
        },
        {
          "indexed": true,
          "internalType": "address",
          "name": "operator",
          "type": "address"
        },
        {
          "indexed": false,
          "internalType": "bool",
          "name": "approved",
          "type": "bool"
        }
      ],
      "name": "ApprovalForAll",
      "type": "event"
    },
    {
      "anonymous": false,
      "inputs": [
        {
          "indexed": true,
          "internalType": "address",
          "name": "to",
          "type": "address"
        },
        {
          "indexed": false,
          "internalType": "address",
          "name": "recipient",
          "type": "address"
        },
        {
          "indexed": true,
          "internalType": "int24",
          "name": "lowestRangeIndex",
          "type": "int24"
        },
        {
          "indexed": true,
          "internalType": "int24",
          "name": "highestRangeIndex",
          "type": "int24"
        },
        {
          "indexed": false,
          "internalType": "uint256",
          "name": "ticketID",
          "type": "uint256"
        },
        {
          "indexed": false,
          "internalType": "uint256",
          "name": "amount0Redeemed",
          "type": "uint256"
        },
        {
          "indexed": false,
          "internalType": "uint256",
          "name": "amount1Redeemed",
          "type": "uint256"
        }
      ],
      "name": "Burn",
      "type": "event"
    },
    {
      "anonymous": false,
      "inputs": [
        {
          "indexed": true,
          "internalType": "address",
          "name": "token",
          "type": "address"
        },
        {
          "indexed": false,
          "internalType": "uint256",
          "name": "amount",
          "type": "uint256"
        }
      ],
      "name": "CollectFee",
      "type": "event"
    },
    {
      "anonymous": false,
      "inputs": [
        {
          "indexed": true,
          "internalType": "address",
          "name": "msg_sender",
          "type": "address"
        },
        {
          "indexed": true,
          "internalType": "address",
          "name": "recipient",
          "type": "address"
        },
        {
          "indexed": false,
          "internalType": "uint256",
          "name": "amount0",
          "type": "uint256"
        },
        {
          "indexed": false,
          "internalType": "uint256",
          "name": "amount1",
          "type": "uint256"
        },
        {
          "indexed": false,
          "internalType": "uint256",
          "name": "paid0",
          "type": "uint256"
        },
        {
          "indexed": false,
          "internalType": "uint256",
          "name": "paid1",
          "type": "uint256"
        }
      ],
      "name": "Flash",
      "type": "event"
    },
    {
      "anonymous": false,
      "inputs": [
        {
          "indexed": true,
          "internalType": "int24",
          "name": "oldIndex",
          "type": "int24"
        },
        {
          "indexed": true,
          "internalType": "int24",
          "name": "newIndex",
          "type": "int24"
        }
      ],
      "name": "InUseRangeChanged",
      "type": "event"
    },
    {
      "anonymous": false,
      "inputs": [
        {
          "indexed": false,
          "internalType": "address",
          "name": "msgSender",
          "type": "address"
        },
        {
          "indexed": true,
          "internalType": "address",
          "name": "to",
          "type": "address"
        },
        {
          "indexed": true,
          "internalType": "int24",
          "name": "lowestRangeIndex",
          "type": "int24"
        },
        {
          "indexed": true,
          "internalType": "int24",
          "name": "highestRangeIndex",
          "type": "int24"
        },
        {
          "indexed": false,
          "internalType": "uint256",
          "name": "ticketID",
          "type": "uint256"
        },
        {
          "indexed": false,
          "internalType": "uint256",
          "name": "liqAdded",
          "type": "uint256"
        },
        {
          "indexed": false,
          "internalType": "uint256",
          "name": "amount0Added",
          "type": "uint256"
        },
        {
          "indexed": false,
          "internalType": "uint256",
          "name": "amount1Added",
          "type": "uint256"
        }
      ],
      "name": "Mint",
      "type": "event"
    },
    {
      "anonymous": false,
      "inputs": [
        {
          "indexed": true,
          "internalType": "address",
          "name": "msgSender",
          "type": "address"
        },
        {
          "indexed": true,
          "internalType": "address",
          "name": "to",
          "type": "address"
        },
        {
          "indexed": true,
          "internalType": "uint256",
          "name": "blockNumber",
          "type": "uint256"
        },
        {
          "indexed": false,
          "internalType": "int256",
          "name": "delta0",
          "type": "int256"
        },
        {
          "indexed": false,
          "internalType": "int256",
          "name": "delta1",
          "type": "int256"
        }
      ],
      "name": "Swap",
      "type": "event"
    },
    {
      "anonymous": false,
      "inputs": [
        {
          "indexed": true,
          "internalType": "address",
          "name": "from",
          "type": "address"
        },
        {
          "indexed": true,
          "internalType": "address",
          "name": "to",
          "type": "address"
        },
        {
          "indexed": true,
          "internalType": "uint256",
          "name": "tokenId",
          "type": "uint256"
        }
      ],
      "name": "Transfer",
      "type": "event"
    },
    {
      "inputs": [
        {
          "internalType": "int24",
          "name": "index",
          "type": "int24"
        }
      ],
      "name": "activate",
      "outputs": [],
      "stateMutability": "nonpayable",
      "type": "function"
    },
    {
      "inputs": [
        {
          "internalType": "address",
          "name": "to",
          "type": "address"
        },
        {
          "internalType": "uint256",
          "name": "tokenId",
          "type": "uint256"
        }
      ],
      "name": "approve",
      "outputs": [],
      "stateMutability": "nonpayable",
      "type": "function"
    },
    {
      "inputs": [],
      "name": "balance0",
      "outputs": [
        {
          "internalType": "uint256",
          "name": "",
          "type": "uint256"
        }
      ],
      "stateMutability": "view",
      "type": "function"
    },
    {
      "inputs": [],
      "name": "balance1",
      "outputs": [
        {
          "internalType": "uint256",
          "name": "",
          "type": "uint256"
        }
      ],
      "stateMutability": "view",
      "type": "function"
    },
    {
      "inputs": [
        {
          "internalType": "address",
          "name": "owner",
          "type": "address"
        }
      ],
      "name": "balanceOf",
      "outputs": [
        {
          "internalType": "uint256",
          "name": "",
          "type": "uint256"
        }
      ],
      "stateMutability": "view",
      "type": "function"
    },
    {
      "inputs": [
        {
          "internalType": "address",
          "name": "to",
          "type": "address"
        },
        {
          "internalType": "uint256",
          "name": "ticketId",
          "type": "uint256"
        }
      ],
      "name": "burn",
      "outputs": [
        {
          "internalType": "uint256",
          "name": "",
          "type": "uint256"
        },
        {
          "internalType": "uint256",
          "name": "",
          "type": "uint256"
        }
      ],
      "stateMutability": "nonpayable",
      "type": "function"
    },
    {
      "inputs": [
        {
          "internalType": "address",
          "name": "token",
          "type": "address"
        },
        {
          "internalType": "uint256",
          "name": "amount",
          "type": "uint256"
        }
      ],
      "name": "collectFee",
      "outputs": [],
      "stateMutability": "nonpayable",
      "type": "function"
    },
    {
      "inputs": [],
      "name": "factory",
      "outputs": [
        {
          "internalType": "address",
          "name": "",
          "type": "address"
        }
      ],
      "stateMutability": "view",
      "type": "function"
    },
    {
      "inputs": [],
      "name": "fee",
      "outputs": [
        {
          "internalType": "uint256",
          "name": "",
          "type": "uint256"
        }
      ],
      "stateMutability": "view",
      "type": "function"
    },
    {
      "inputs": [
        {
          "internalType": "address",
          "name": "recipient",
          "type": "address"
        },
        {
          "internalType": "uint256",
          "name": "amount0",
          "type": "uint256"
        },
        {
          "internalType": "uint256",
          "name": "amount1",
          "type": "uint256"
        },
        {
          "internalType": "bytes",
          "name": "data",
          "type": "bytes"
        }
      ],
      "name": "flash",
      "outputs": [],
      "stateMutability": "nonpayable",
      "type": "function"
    },
    {
      "inputs": [
        {
          "internalType": "address",
          "name": "owner_",
          "type": "address"
        }
      ],
      "name": "getAddressTicketIdList",
      "outputs": [
        {
          "internalType": "uint256[]",
          "name": "ticketIdList",
          "type": "uint256[]"
        }
      ],
      "stateMutability": "view",
      "type": "function"
    },
    {
      "inputs": [
        {
          "internalType": "address",
          "name": "owner_",
          "type": "address"
        }
      ],
      "name": "getAddressTicketsAmount",
      "outputs": [
        {
          "internalType": "uint256",
          "name": "",
          "type": "uint256"
        }
      ],
      "stateMutability": "view",
      "type": "function"
    },
    {
      "inputs": [
        {
          "internalType": "address",
          "name": "owner_",
          "type": "address"
        },
        {
          "internalType": "uint256",
          "name": "position_",
          "type": "uint256"
        }
      ],
      "name": "getAddressTicketsByPosition",
      "outputs": [
        {
          "internalType": "uint256",
          "name": "",
          "type": "uint256"
        }
      ],
      "stateMutability": "view",
      "type": "function"
    },
    {
      "inputs": [
        {
          "internalType": "uint256",
          "name": "tokenId",
          "type": "uint256"
        }
      ],
      "name": "getApproved",
      "outputs": [
        {
          "internalType": "address",
          "name": "",
          "type": "address"
        }
      ],
      "stateMutability": "view",
      "type": "function"
    },
    {
      "inputs": [
        {
          "internalType": "int24",
          "name": "index",
          "type": "int24"
        }
      ],
      "name": "getFullRangeInfo",
      "outputs": [
        {
          "internalType": "uint256",
          "name": "_reserve0",
          "type": "uint256"
        },
        {
          "internalType": "uint256",
          "name": "_reserve1",
          "type": "uint256"
        },
        {
          "internalType": "uint256",
          "name": "_sqrtPriceBottom",
          "type": "uint256"
        },
        {
          "internalType": "uint256",
          "name": "_sqrtPriceTop",
          "type": "uint256"
        },
        {
          "internalType": "uint256",
          "name": "_supplyCoefficient",
          "type": "uint256"
        },
        {
          "internalType": "bool",
          "name": "_activated",
          "type": "bool"
        }
      ],
      "stateMutability": "view",
      "type": "function"
    },
    {
      "inputs": [],
      "name": "getLastBalances",
      "outputs": [
        {
          "internalType": "uint256",
          "name": "_lastBalance0",
          "type": "uint256"
        },
        {
          "internalType": "uint256",
          "name": "_lastBalance1",
          "type": "uint256"
        }
      ],
      "stateMutability": "view",
      "type": "function"
    },
    {
      "inputs": [],
      "name": "getNextTicketId",
      "outputs": [
        {
          "internalType": "uint256",
          "name": "",
          "type": "uint256"
        }
      ],
      "stateMutability": "view",
      "type": "function"
    },
    {
      "inputs": [
        {
          "internalType": "uint256",
          "name": "ticketId_",
          "type": "uint256"
        }
      ],
      "name": "getTicketData",
      "outputs": [
        {
          "components": [
            {
              "internalType": "int24",
              "name": "lowestRangeIndex",
              "type": "int24"
            },
            {
              "internalType": "int24",
              "name": "highestRangeIndex",
              "type": "int24"
            },
            {
              "internalType": "uint256",
              "name": "liqAdded",
              "type": "uint256"
            },
            {
              "internalType": "address",
              "name": "owner",
              "type": "address"
            }
          ],
          "internalType": "struct ITicket.TicketData",
          "name": "",
          "type": "tuple"
        }
      ],
      "stateMutability": "view",
      "type": "function"
    },
    {
      "inputs": [
        {
          "internalType": "uint256",
          "name": "ticketId_",
          "type": "uint256"
        }
      ],
      "name": "getTicketOwner",
      "outputs": [
        {
          "internalType": "address",
          "name": "",
          "type": "address"
        }
      ],
      "stateMutability": "view",
      "type": "function"
    },
    {
      "inputs": [
        {
          "internalType": "uint256",
          "name": "ticketId_",
          "type": "uint256"
        }
      ],
      "name": "getTicketPosition",
      "outputs": [
        {
          "internalType": "uint256",
          "name": "",
          "type": "uint256"
        }
      ],
      "stateMutability": "view",
      "type": "function"
    },
    {
      "inputs": [
        {
          "internalType": "uint256",
          "name": "ticketId_",
          "type": "uint256"
        },
        {
          "internalType": "int24",
          "name": "index_",
          "type": "int24"
        }
      ],
      "name": "getTicketSupplyData",
      "outputs": [
        {
          "internalType": "uint256",
          "name": "",
          "type": "uint256"
        }
      ],
      "stateMutability": "view",
      "type": "function"
    },
    {
      "inputs": [],
      "name": "getTotalReserves",
      "outputs": [
        {
          "internalType": "uint256",
          "name": "_totalReserve0",
          "type": "uint256"
        },
        {
          "internalType": "uint256",
          "name": "_totalReserve1",
          "type": "uint256"
        }
      ],
      "stateMutability": "view",
      "type": "function"
    },
    {
      "inputs": [],
      "name": "highestActivatedRange",
      "outputs": [
        {
          "internalType": "int24",
          "name": "",
          "type": "int24"
        }
      ],
      "stateMutability": "view",
      "type": "function"
    },
    {
      "inputs": [],
      "name": "inUseInfo",
      "outputs": [
        {
          "internalType": "int24",
          "name": "usingRange",
          "type": "int24"
        },
        {
          "internalType": "uint256",
          "name": "sqrtCurrentPrice",
          "type": "uint256"
        },
        {
          "internalType": "uint256",
          "name": "inUseLiq",
          "type": "uint256"
        },
        {
          "internalType": "uint256",
          "name": "inUseReserve0",
          "type": "uint256"
        },
        {
          "internalType": "uint256",
          "name": "inUseReserve1",
          "type": "uint256"
        }
      ],
      "stateMutability": "view",
      "type": "function"
    },
    {
      "inputs": [],
      "name": "inUseRange",
      "outputs": [
        {
          "internalType": "int24",
          "name": "",
          "type": "int24"
        }
      ],
      "stateMutability": "view",
      "type": "function"
    },
    {
      "inputs": [
        {
          "internalType": "int24",
          "name": "_startingInUseRange",
          "type": "int24"
        }
      ],
      "name": "initialize",
      "outputs": [],
      "stateMutability": "nonpayable",
      "type": "function"
    },
    {
      "inputs": [],
      "name": "initialized",
      "outputs": [
        {
          "internalType": "bool",
          "name": "",
          "type": "bool"
        }
      ],
      "stateMutability": "view",
      "type": "function"
    },
    {
      "inputs": [
        {
          "internalType": "address",
          "name": "owner",
          "type": "address"
        },
        {
          "internalType": "address",
          "name": "operator",
          "type": "address"
        }
      ],
      "name": "isApprovedForAll",
      "outputs": [
        {
          "internalType": "bool",
          "name": "",
          "type": "bool"
        }
      ],
      "stateMutability": "view",
      "type": "function"
    },
    {
      "inputs": [],
      "name": "lowestActivatedRange",
      "outputs": [
        {
          "internalType": "int24",
          "name": "",
          "type": "int24"
        }
      ],
      "stateMutability": "view",
      "type": "function"
    },
    {
      "inputs": [
        {
          "internalType": "address",
          "name": "to",
          "type": "address"
        },
        {
          "internalType": "int24",
          "name": "lowestRangeIndex",
          "type": "int24"
        },
        {
          "internalType": "int24",
          "name": "highestRangeIndex",
          "type": "int24"
        },
        {
          "internalType": "uint256",
          "name": "liqToAdd",
          "type": "uint256"
        },
        {
          "internalType": "bytes",
          "name": "data",
          "type": "bytes"
        }
      ],
      "name": "mint",
      "outputs": [
        {
          "internalType": "uint256",
          "name": "ticketId",
          "type": "uint256"
        },
        {
          "internalType": "uint256",
          "name": "amount0",
          "type": "uint256"
        },
        {
          "internalType": "uint256",
          "name": "amount1",
          "type": "uint256"
        }
      ],
      "stateMutability": "nonpayable",
      "type": "function"
    },
    {
      "inputs": [],
      "name": "name",
      "outputs": [
        {
          "internalType": "string",
          "name": "",
          "type": "string"
        }
      ],
      "stateMutability": "view",
      "type": "function"
    },
    {
      "inputs": [
        {
          "internalType": "uint256",
          "name": "tokenId",
          "type": "uint256"
        }
      ],
      "name": "ownerOf",
      "outputs": [
        {
          "internalType": "address",
          "name": "",
          "type": "address"
        }
      ],
      "stateMutability": "view",
      "type": "function"
    },
    {
      "inputs": [],
      "name": "protocolFeeIsOn",
      "outputs": [
        {
          "internalType": "bool",
          "name": "",
          "type": "bool"
        }
      ],
      "stateMutability": "view",
      "type": "function"
    },
    {
      "inputs": [],
      "name": "protocolFeePart",
      "outputs": [
        {
          "internalType": "uint256",
          "name": "",
          "type": "uint256"
        }
      ],
      "stateMutability": "view",
      "type": "function"
    },
    {
      "inputs": [
        {
          "internalType": "int24",
          "name": "",
          "type": "int24"
        }
      ],
      "name": "ranges",
      "outputs": [
        {
          "internalType": "uint256",
          "name": "reserve0",
          "type": "uint256"
        },
        {
          "internalType": "uint256",
          "name": "reserve1",
          "type": "uint256"
        },
        {
          "internalType": "uint256",
          "name": "sqrtPriceBottom",
          "type": "uint256"
        },
        {
          "internalType": "uint256",
          "name": "supplyCoefficient",
          "type": "uint256"
        },
        {
          "internalType": "bool",
          "name": "activated",
          "type": "bool"
        }
      ],
      "stateMutability": "view",
      "type": "function"
    },
    {
      "inputs": [
        {
          "internalType": "address",
          "name": "from",
          "type": "address"
        },
        {
          "internalType": "address",
          "name": "to",
          "type": "address"
        },
        {
          "internalType": "uint256",
          "name": "tokenId",
          "type": "uint256"
        }
      ],
      "name": "safeTransferFrom",
      "outputs": [],
      "stateMutability": "nonpayable",
      "type": "function"
    },
    {
      "inputs": [
        {
          "internalType": "address",
          "name": "from",
          "type": "address"
        },
        {
          "internalType": "address",
          "name": "to",
          "type": "address"
        },
        {
          "internalType": "uint256",
          "name": "tokenId",
          "type": "uint256"
        },
        {
          "internalType": "bytes",
          "name": "_data",
          "type": "bytes"
        }
      ],
      "name": "safeTransferFrom",
      "outputs": [],
      "stateMutability": "nonpayable",
      "type": "function"
    },
    {
      "inputs": [
        {
          "internalType": "address",
          "name": "operator",
          "type": "address"
        },
        {
          "internalType": "bool",
          "name": "approved",
          "type": "bool"
        }
      ],
      "name": "setApprovalForAll",
      "outputs": [],
      "stateMutability": "nonpayable",
      "type": "function"
    },
    {
      "inputs": [
        {
          "internalType": "bool",
          "name": "_protocolFeeIsOn",
          "type": "bool"
        },
        {
          "internalType": "uint256",
          "name": "_protocolFeePart",
          "type": "uint256"
        }
      ],
      "name": "setProtocolFee",
      "outputs": [],
      "stateMutability": "nonpayable",
      "type": "function"
    },
    {
      "inputs": [],
      "name": "setSwapRouter",
      "outputs": [],
      "stateMutability": "nonpayable",
      "type": "function"
    },
    {
      "inputs": [],
      "name": "sqrtRangeMultiplier",
      "outputs": [
        {
          "internalType": "uint256",
          "name": "",
          "type": "uint256"
        }
      ],
      "stateMutability": "view",
      "type": "function"
    },
    {
      "inputs": [],
      "name": "sqrtRangeMultiplier100",
      "outputs": [
        {
          "internalType": "uint256",
          "name": "",
          "type": "uint256"
        }
      ],
      "stateMutability": "view",
      "type": "function"
    },
    {
      "inputs": [
        {
          "internalType": "bytes4",
          "name": "interfaceId",
          "type": "bytes4"
        }
      ],
      "name": "supportsInterface",
      "outputs": [
        {
          "internalType": "bool",
          "name": "",
          "type": "bool"
        }
      ],
      "stateMutability": "view",
      "type": "function"
    },
    {
      "inputs": [
        {
          "internalType": "address",
          "name": "to",
          "type": "address"
        },
        {
          "internalType": "bool",
          "name": "zeroForOne",
          "type": "bool"
        },
        {
          "internalType": "int256",
          "name": "amount",
          "type": "int256"
        },
        {
          "internalType": "bytes",
          "name": "data",
          "type": "bytes"
        }
      ],
      "name": "swap",
      "outputs": [
        {
          "internalType": "int256",
          "name": "",
          "type": "int256"
        },
        {
          "internalType": "int256",
          "name": "",
          "type": "int256"
        }
      ],
      "stateMutability": "nonpayable",
      "type": "function"
    },
    {
      "inputs": [],
      "name": "swapRouter",
      "outputs": [
        {
          "internalType": "address",
          "name": "",
          "type": "address"
        }
      ],
      "stateMutability": "view",
      "type": "function"
    },
    {
      "inputs": [],
      "name": "symbol",
      "outputs": [
        {
          "internalType": "string",
          "name": "",
          "type": "string"
        }
      ],
      "stateMutability": "view",
      "type": "function"
    },
    {
      "inputs": [],
      "name": "token0",
      "outputs": [
        {
          "internalType": "address",
          "name": "",
          "type": "address"
        }
      ],
      "stateMutability": "view",
      "type": "function"
    },
    {
      "inputs": [],
      "name": "token1",
      "outputs": [
        {
          "internalType": "address",
          "name": "",
          "type": "address"
        }
      ],
      "stateMutability": "view",
      "type": "function"
    },
    {
      "inputs": [
        {
          "internalType": "uint256",
          "name": "tokenId",
          "type": "uint256"
        }
      ],
      "name": "tokenURI",
      "outputs": [
        {
          "internalType": "string",
          "name": "",
          "type": "string"
        }
      ],
      "stateMutability": "view",
      "type": "function"
    },
    {
      "inputs": [
        {
          "internalType": "address",
          "name": "from",
          "type": "address"
        },
        {
          "internalType": "address",
          "name": "to",
          "type": "address"
        },
        {
          "internalType": "uint256",
          "name": "tokenId",
          "type": "uint256"
        }
      ],
      "name": "transferFrom",
      "outputs": [],
      "stateMutability": "nonpayable",
      "type": "function"
    }
  ],
  "bytecode": "0x6101606040526001600855600c805461ff00191661010017905562030d40600d553480156200002d57600080fd5b5060405162005966380380620059668339810160408190526200005091620002c9565b8181818181600090805190602001906200006c92919062000153565b5080516200008290600190602084019062000153565b50505050506000600c60006101000a81548160ff021916908315150217905550896001600160a01b03166080816001600160a01b031660601b8152505088600c60026101000a8154816001600160a01b0302191690836001600160a01b03160217905550876001600160a01b031660a0816001600160a01b031660601b81525050866001600160a01b031660c0816001600160a01b031660601b815250508561014081815250508460e0818152505083610100818152505082610120818152505050505050505050505050620003f5565b8280546200016190620003a2565b90600052602060002090601f016020900481019282620001855760008555620001d0565b82601f10620001a057805160ff1916838001178555620001d0565b82800160010185558215620001d0579182015b82811115620001d0578251825591602001919060010190620001b3565b50620001de929150620001e2565b5090565b5b80821115620001de5760008155600101620001e3565b80516001600160a01b03811681146200021157600080fd5b919050565b600082601f83011262000227578081fd5b81516001600160401b0380821115620002445762000244620003df565b604051601f8301601f19908116603f011681019082821181831017156200026f576200026f620003df565b816040528381526020925086838588010111156200028b578485fd5b8491505b83821015620002ae57858201830151818301840152908201906200028f565b83821115620002bf57848385830101525b9695505050505050565b6000806000806000806000806000806101408b8d031215620002e9578586fd5b620002f48b620001f9565b99506200030460208c01620001f9565b98506200031460408c01620001f9565b97506200032460608c01620001f9565b965060808b0151955060a08b0151945060c08b0151935060e08b015192506101008b015160018060401b03808211156200035c578384fd5b6200036a8e838f0162000216565b93506101208d015191508082111562000381578283fd5b50620003908d828e0162000216565b9150509295989b9194979a5092959850565b600181811c90821680620003b757607f821691505b60208210811415620003d957634e487b7160e01b600052602260045260246000fd5b50919050565b634e487b7160e01b600052604160045260246000fd5b60805160601c60a05160601c60c05160601c60e051610100516101205161014051615450620005166000396000818161081701528181610f890152818161108201528181611ea201528181611ede01526131dc0152600081816103d701526141d50152600081816103fe01528181612137015281816123680152818161246b0152818161340801526141b4015260006121af015260008181610724015281816111cd0152818161171801528181611f63015281816129500152612cd00152600081816102d201528181610bd5015281816111a70152818161167001528181611f32015261292101526000818161066501528181610b0401528181610c93015281816114e3015281816115c101528181612bc10152612d0701526154506000f3fe608060405234801561001057600080fd5b50600436106102565760003560e01c80636352211e116101425780636352211e146105285780636f2faebf1461053b57806370a082311461054e57806395d89b41146105615780639dc29fac14610569578063a22cb4651461057c578063ad0934091461058f578063b0d827b5146105bb578063b1ed2521146105db578063b88d4fde146105fb578063bb2dcb601461060e578063bbf3446914610620578063c31c9c0714610633578063c34ff9fd1461064c578063c45a015514610660578063c45c4f5814610687578063c6abb1d01461068f578063c8462666146106a2578063c87b56dd1461070c578063d21220a71461071f578063d9895e6a14610746578063ddca3f4314610812578063e985e9c514610839578063ea5700271461084c578063f83c3d081461086c57600080fd5b806301ffc9a71461025b57806306fdde0314610283578063081812fc14610298578063095ea7b3146102b85780630dfe1681146102cd578063158ef93e146102f457806319e7b786146103015780631a3dac33146103095780631c69ad001461034d5780631f18b37114610355578063222e2f951461037d57806323b872dd14610386578063242693d31461039957806325ba60ec146103a457806326381025146103ac5780632ec0ff6c146103bf57806332b7f1d8146103d2578063349593a3146103f95780633c50594f146104205780633c6d5c72146104525780634213cd321461045d57806342842e0e1461048b578063490e6cbc1461049e5780635029f54d146104b15780635273f2bc146104f3575b600080fd5b61026e610269366004614d45565b610880565b60405190151581526020015b60405180910390f35b61028b6108d2565b60405161027a9190614f3d565b6102ab6102a6366004614d97565b610964565b60405161027a9190614e92565b6102cb6102c6366004614c97565b6109f1565b005b6102ab7f000000000000000000000000000000000000000000000000000000000000000081565b600c5461026e9060ff1681565b6102cb610b02565b61033f610317366004614c97565b6001600160a01b03919091166000908152600960209081526040808320938352929052205490565b60405190815260200161027a565b61033f610bbb565b610368610363366004614ba9565b610c5f565b6040805192835260208301919091520161027a565b61033f600d5481565b6102cb610394366004614a64565b611495565b600e54600f54610368565b60085461033f565b61033f6103ba3660046149f4565b6114c6565b6102cb6103cd366004614c97565b6114e1565b61033f7f000000000000000000000000000000000000000000000000000000000000000081565b61033f7f000000000000000000000000000000000000000000000000000000000000000081565b61033f61042e366004614dc7565b6000918252600660209081526040808420600293840b90930b845291905290205490565b601054601154610368565b61047061046b366004614c19565b61181c565b6040805193845260208401929092529082015260600161027a565b6102cb610499366004614a64565b611e7c565b6102cb6104ac366004614cc2565b611e97565b6104c46104bf366004614d7d565b612104565b6040805196875260208701959095529385019290925260608401526080830152151560a082015260c00161027a565b6104fb61219b565b6040805160029690960b86526020860194909452928401919091526060830152608082015260a00161027a565b6102ab610536366004614d97565b612252565b6102cb610549366004614d7d565b6122c9565b61033f61055c3660046149f4565b61252f565b61028b6125b6565b610368610577366004614c97565b6125c5565b6102cb61058a366004614b7c565b612ac6565b6102ab61059d366004614d97565b6000908152600760205260409020600201546001600160a01b031690565b61033f6105c9366004614d97565b6000908152600b602052604090205490565b6013546105e89060020b81565b60405160029190910b815260200161027a565b6102cb610609366004614aa4565b612b87565b600c5461026e90610100900460ff1681565b6102cb61062e366004614d28565b612bbf565b600c546102ab906201000090046001600160a01b031681565b6013546105e890600160301b900460020b81565b6102ab7f000000000000000000000000000000000000000000000000000000000000000081565b61033f612cb6565b6102cb61069d366004614d7d565b612d05565b6106e26106b0366004614d7d565b601260205260009081526040902080546001820154600283015460038401546004909401549293919290919060ff1685565b6040805195865260208601949094529284019190915260608301521515608082015260a00161027a565b61028b61071a366004614d97565b612e94565b6102ab7f000000000000000000000000000000000000000000000000000000000000000081565b6107ce610754366004614d97565b604080516080808201835260008083526020808401829052838501829052606093840182905294815260078552839020835191820184528054600281810b810b810b84526301000000909104810b810b810b9583019590955260018101549382019390935292909101546001600160a01b03169082015290565b60405161027a91908151600290810b825260208084015190910b90820152604080830151908201526060918201516001600160a01b03169181019190915260800190565b61033f7f000000000000000000000000000000000000000000000000000000000000000081565b61026e610847366004614a2c565b612f6c565b61085f61085a3660046149f4565b612f9a565b60405161027a9190614ed9565b6013546105e8906301000000900460020b81565b60006001600160e01b031982166380ac58cd60e01b14806108b157506001600160e01b03198216635b5e139f60e01b145b806108cc57506301ffc9a760e01b6001600160e01b03198316145b92915050565b6060600080546108e1906152df565b80601f016020809104026020016040519081016040528092919081815260200182805461090d906152df565b801561095a5780601f1061092f5761010080835404028352916020019161095a565b820191906000526020600020905b81548152906001019060200180831161093d57829003601f168201915b5050505050905090565b600061096f8261301d565b6109d55760405162461bcd60e51b815260206004820152602c60248201527f4552433732313a20617070726f76656420717565727920666f72206e6f6e657860448201526b34b9ba32b73a103a37b5b2b760a11b60648201526084015b60405180910390fd5b506000908152600460205260409020546001600160a01b031690565b60006109fc82612252565b9050806001600160a01b0316836001600160a01b03161415610a6a5760405162461bcd60e51b815260206004820152602160248201527f4552433732313a20617070726f76616c20746f2063757272656e74206f776e656044820152603960f91b60648201526084016109cc565b336001600160a01b0382161480610a865750610a868133612f6c565b610af35760405162461bcd60e51b815260206004820152603860248201527f4552433732313a20617070726f76652063616c6c6572206973206e6f74206f776044820152771b995c881b9bdc88185c1c1c9bdd995908199bdc88185b1b60421b60648201526084016109cc565b610afd838361303a565b505050565b7f00000000000000000000000000000000000000000000000000000000000000006001600160a01b031663c31c9c076040518163ffffffff1660e01b815260040160206040518083038186803b158015610b5b57600080fd5b505afa158015610b6f573d6000803e3d6000fd5b505050506040513d601f19601f82011682018060405250810190610b939190614a10565b600c60026101000a8154816001600160a01b0302191690836001600160a01b03160217905550565b6040516370a0823160e01b81526000906001600160a01b037f000000000000000000000000000000000000000000000000000000000000000016906370a0823190610c0a903090600401614e92565b60206040518083038186803b158015610c2257600080fd5b505afa158015610c36573d6000803e3d6000fd5b505050506040513d601f19601f82011682018060405250810190610c5a9190614daf565b905090565b600c5460009081906201000090046001600160a01b03163314610d4a576040516303f45d4160e01b81526001600160a01b037f000000000000000000000000000000000000000000000000000000000000000016906303f45d4190610cc8903390600401614e92565b60206040518083038186803b158015610ce057600080fd5b505afa158015610cf4573d6000803e3d6000fd5b505050506040513d601f19601f82011682018060405250810190610d189190614d0c565b610d4a5760405162461bcd60e51b815260206004820152600360248201526205073360ec1b60448201526064016109cc565b60006040518060800160405280896001600160a01b03168152602001881515815260200187815260200186868080601f0160208091040260200160405190810160405280939291908181526020018383808284376000920182905250939094525050604080516101008101825260105481526011546020820152808201839052606081018390526080810183905260a0810183905260c0810183905260e08101839052601354918501519495509391925082918291829160029190910b90821315610f6a578660400151610e1d90615365565b9150866020015115610e8157600f54821115610e615760405162461bcd60e51b815260206004820152600360248201526250733160e81b60448201526064016109cc565b600281810b900b6000908152601260205260409020600101549450610ed5565b600e54821115610ebc5760405162461bcd60e51b81526004016109cc906020808252600490820152632839981960e11b604082015260600190565b600281810b900b60009081526012602052604090205494505b84821115610f3357610eec818860200151876130a8565b610ef69085615058565b9350610f028583615261565b601354602089015191935060020b9150610e6157600281810b900b6000908152601260205260409020549450610ed5565b8115610f5557610f48818860200151846130a8565b610f529085615058565b93505b8660400151610f6390615365565b9250611199565b60008760400151131561119957604087015191506000620f4240610fae7f0000000000000000000000000000000000000000000000000000000000000000856151fb565b610fb89190615070565b9050610fc3826133d7565b60e08b0181905260c08b0182905260a08b0183905260808b0184905260208c0151600094610ffe9491939092610ff9888b615261565b613440565b90508860200151611013578760800151611019565b8760a001515b96505b868111156111225760208901516110489084908061103e578a608001516130a8565b8a60a001516130a8565b6110529085615261565b9350886020015161106757876080015161106d565b8760a001515b6110779086615058565b9450620f42406110a77f0000000000000000000000000000000000000000000000000000000000000000866151fb565b6110b19190615070565b60135460020b935091506110c4836133d7565b60e08c015260c08b015260a08a0152608089015260208901516110eb5787608001516110f1565b8760a001515b965061111b896020015189608001518a60a001518b60c001518c60e00151878a610ff99190615261565b905061101c565b6000611133848b60200151846130a8565b90508481111561116b5760405162461bcd60e51b815260206004820152600360248201526250733360e81b60448201526064016109cc565b6111758186615261565b94506111818287615058565b9550848a604001516111939190615261565b96505050505b6111f587602001516111cb577f00000000000000000000000000000000000000000000000000000000000000006111ed565b7f00000000000000000000000000000000000000000000000000000000000000005b8851856135ce565b336001600160a01b031663482357eb886020015161121b5761121685615365565b61121d565b855b896020015161122c5786611235565b61123586615365565b8e8e6040518563ffffffff1660e01b81526004016112569493929190614f1d565b600060405180830381600087803b15801561127057600080fd5b505af1158015611284573d6000803e3d6000fd5b50505050611290610bbb565b604087015261129d612cb6565b60608701526020870151156113165785516112b9908590615058565b8660400151101580156112df57508286602001516112d79190615261565b866060015110155b6113115760405162461bcd60e51b8152602060048201526003602482015262141ccd60ea1b60448201526064016109cc565b61137b565b8386602001516113269190615058565b86606001511015801561134957508551611341908490615261565b866040015110155b61137b5760405162461bcd60e51b815260206004820152600360248201526250733560e81b60448201526064016109cc565b61139386604001518760600151601091909155601155565b61139b614938565b955086602001511561141c57865143906001600160a01b0316337f453be16f272d63a7cf83a171f12cdd6ec417913cb2b4f49aeeef4aefc031a72e876113e088615365565b6040805192835260208301919091520160405180910390a461140061497d565b96508361140c84615365565b985098505050505050505061148b565b61142461497d565b805190975043906001600160a01b0316337f453be16f272d63a7cf83a171f12cdd6ec417913cb2b4f49aeeef4aefc031a72e61145f87615365565b60408051918252602082018a90520160405180910390a461147f83615365565b98509296505050505050505b9550959350505050565b61149f33826136ce565b6114bb5760405162461bcd60e51b81526004016109cc90614fa2565b610afd838383613798565b6001600160a01b03166000908152600a602052604090205490565b7f00000000000000000000000000000000000000000000000000000000000000006001600160a01b0316638da5cb5b6040518163ffffffff1660e01b815260040160206040518083038186803b15801561153a57600080fd5b505afa15801561154e573d6000803e3d6000fd5b505050506040513d601f19601f820116820180604052508101906115729190614a10565b6001600160a01b0316336001600160a01b0316146115bb5760405162461bcd60e51b81526004016109cc906020808252600490820152630506346360e41b604082015260600190565b611656827f00000000000000000000000000000000000000000000000000000000000000006001600160a01b031663c415b95c6040518163ffffffff1660e01b815260040160206040518083038186803b15801561161857600080fd5b505afa15801561162c573d6000803e3d6000fd5b505050506040513d601f19601f820116820180604052508101906116509190614a10565b836135ce565b600e546040516370a0823160e01b81526001600160a01b037f000000000000000000000000000000000000000000000000000000000000000016906370a08231906116a5903090600401614e92565b60206040518083038186803b1580156116bd57600080fd5b505afa1580156116d1573d6000803e3d6000fd5b505050506040513d601f19601f820116820180604052508101906116f59190614daf565b101580156117a05750600f546040516370a0823160e01b81526001600160a01b037f000000000000000000000000000000000000000000000000000000000000000016906370a082319061174d903090600401614e92565b60206040518083038186803b15801561176557600080fd5b505afa158015611779573d6000803e3d6000fd5b505050506040513d601f19601f8201168201806040525081019061179d9190614daf565b10155b6117d55760405162461bcd60e51b81526004016109cc906020808252600490820152635063463160e01b604082015260600190565b816001600160a01b03167fdfeef5879c25440d1418a79a16489f0e739d22ac040c8c76f7b998fc704edeb88260405161181091815260200190565b60405180910390a25050565b600c546000908190819060ff1661185b5760405162461bcd60e51b81526020600482015260036024820152620506d360ec1b60448201526064016109cc565b8760020b8760020b12156118975760405162461bcd60e51b8152602060048201526003602482015262506d3160e81b60448201526064016109cc565b600060405180610100016040528060105481526020016011548152602001600081526020016000815260200160008152602001600081526020016000815260200160008152509050600860008154809291906118f290615336565b9190505593506119028a85613931565b6013546000858152600760205260409020805460028b810b62ffffff90811663010000000265ffffffffffff199093168e830b91821617929092178355600183018b905591820180546001600160a01b038f166001600160a01b031990911617905591810b919082900b12156119b057885b8a60020b8160020b126119aa5761198c81878b61394f565b6119969086615058565b9450806119a2816152a4565b915050611974565b50611d0d565b8060020b8960020b12156119f657895b8960020b8160020b136119aa576119d881878b613ade565b6119e29085615058565b9350806119ee81615314565b9150506119c0565b6000611a03826001615012565b90505b8960020b8160020b13611a3c57611a1e81878b61394f565b611a289086615058565b945080611a3481615314565b915050611a06565b506000611a4a60018361521a565b90505b8a60020b8160020b12611a8357611a6581878b613ade565b611a6f9085615058565b935080611a7b816152a4565b915050611a4d565b50611a8d816133d7565b60e0860181905260c0860182905260a0860183905260808601849052600093611ab99390929091613c00565b905060008084608001516000148015611ad4575060a0850151155b80611add575082155b15611b825760028560e001518660c00151611af891906151fb565b8660c001518760e00151611b0c9190615261565b611b1e670de0b6b3a76400008f6151fb565b611b2891906151fb565b611b329190615070565b611b3c9190615070565b91506002670de0b6b3a76400008660c001518760e00151611b5d9190615261565b611b67908e6151fb565b611b719190615070565b611b7b9190615070565b9050611bbd565b8285608001518c611b9391906151fb565b611b9d9190615070565b9150828560a001518c611bb091906151fb565b611bba9190615070565b90505b6000611bf1838760800151611bd29190615058565b838860a00151611be29190615058565b8860c001518960e00151613c00565b9050611bfd8389615058565b9750611c098288615058565b600286810b900b60009081526012602052604090206003015490975015801590611c3257508315155b15611c945783611c428183615261565b600287810b900b600090815260126020526040902060030154611c6591906151fb565b611c6f9190615070565b60008a815260066020908152604080832060028a810b900b8452909152902055611cb7565b6000898152600660209081526040808320600289810b900b845290915290208190555b6000898152600660209081526040808320600289810b900b845282528083205460129092528220600301805491929091611cf2908490615058565b90915550611d0890508584846001806000613d2f565b505050505b604051637b52f4f760e01b81523390637b52f4f790611d3690879087908c908c90600401614f1d565b600060405180830381600087803b158015611d5057600080fd5b505af1158015611d64573d6000803e3d6000fd5b50505050611d70610bbb565b6040830152611d7d612cb6565b60608301528151611d8f908590615058565b826040015110158015611db55750828260200151611dad9190615058565b826060015110155b611de75760405162461bcd60e51b815260206004820152600360248201526228369960e91b60448201526064016109cc565b6040805133815260208101879052908101899052606081018590526080810184905260028a810b91908c900b906001600160a01b038e16907f0ef23dbed0ea024864438901c1124e19c53127c263e6d85a0b217e55d1f8b8169060a00160405180910390a4611e6482604001518360600151601091909155601155565b611e6c614938565b9150505096509650969350505050565b610afd83838360405180602001604052806000815250612b87565b6000620f4240611ec77f0000000000000000000000000000000000000000000000000000000000000000876151fb565b611ed19190615070565b90506000620f4240611f037f0000000000000000000000000000000000000000000000000000000000000000876151fb565b611f0d9190615070565b90506000611f19610bbb565b90506000611f25612cb6565b90508715611f5857611f587f00000000000000000000000000000000000000000000000000000000000000008a8a6135ce565b8615611f8957611f897f00000000000000000000000000000000000000000000000000000000000000008a896135ce565b604051630e19c67d60e01b81523390630e19c67d90611fb290879087908b908b90600401614f1d565b600060405180830381600087803b158015611fcc57600080fd5b505af1158015611fe0573d6000803e3d6000fd5b505050506000611fee610bbb565b90506000611ffa612cb6565b9050816120078786615058565b111561203b5760405162461bcd60e51b815260206004820152600360248201526205066360ec1b60448201526064016109cc565b806120468685615058565b111561207a5760405162461bcd60e51b815260206004820152600360248201526250663160e81b60448201526064016109cc565b60006120868584615261565b905060006120948584615261565b601085905560118490559050604080518d8152602081018d9052908101839052606081018290526001600160a01b038e169033907fbdbdb71d7860376ba52b25a5028beea23581364a40522f6bcfb86bb1f2dca6339060800160405180910390a350505050505050505050505050565b600281810b810b600090815260126020526040812080546001820154919093015490918080670de0b6b3a764000061215c7f0000000000000000000000000000000000000000000000000000000000000000866151fb565b6121669190615070565b600297880b90970b600090815260126020526040902060038101546004909101549698959794969495909460ff169350915050565b60135460009081908190819081906121d7907f00000000000000000000000000000000000000000000000000000000000000009060020b615172565b94506000806000806121e8896133d7565b93509350935093506121fc84848484613c00565b965080612211670de0b6b3a7640000896151fb565b61221b9190615070565b6122259085615058565b612237670de0b6b3a7640000896151fb565b6122419190615070565b989996975092959194509092505050565b6000818152600260205260408120546001600160a01b0316806108cc5760405162461bcd60e51b815260206004820152602960248201527f4552433732313a206f776e657220717565727920666f72206e6f6e657869737460448201526832b73a103a37b5b2b760b91b60648201526084016109cc565b600281810b900b60009081526012602052604090206004015460ff16156123175760405162461bcd60e51b8152602060048201526002602482015261506160f01b60448201526064016109cc565b60135463010000009004600290810b810b9082900b13156124225760135460009061234d906301000000900460020b6001615012565b90505b8160020b8160020b136123fe57670de0b6b3a76400007f00000000000000000000000000000000000000000000000000000000000000006012600061239660018661521a565b60020b60020b8152602001908152602001600020600201546123b891906151fb565b6123c29190615070565b600282810b810b600090815260126020526040902090810191909155600401805460ff19166001179055806123f681615314565b915050612350565b506013805465ffffff0000001916630100000062ffffff600285900b160217905550565b601354600160301b9004600290810b810b9082900b121561252c5760135460009061245990600190600160301b900460020b61521a565b90505b8160020b8160020b1261250a577f0000000000000000000000000000000000000000000000000000000000000000670de0b6b3a7640000601260006124a2856001615012565b60020b60020b8152602001908152602001600020600201546124c491906151fb565b6124ce9190615070565b600282810b810b600090815260126020526040902090810191909155600401805460ff1916600117905580612502816152a4565b91505061245c565b506013805462ffffff60301b1916600160301b62ffffff600285900b16021790555b50565b60006001600160a01b03821661259a5760405162461bcd60e51b815260206004820152602a60248201527f4552433732313a2062616c616e636520717565727920666f7220746865207a65604482015269726f206164647265737360b01b60648201526084016109cc565b506001600160a01b031660009081526003602052604090205490565b6060600180546108e1906152df565b6000806125d18361301d565b6126035760405162461bcd60e51b815260206004820152600360248201526205062360ec1b60448201526064016109cc565b61260c83612252565b6001600160a01b0316336001600160a01b0316146126865761262e33846136ce565b6126605760405162461bcd60e51b815260206004820152600360248201526250623160e81b60448201526064016109cc565b61266983612252565b6001600160a01b0316326001600160a01b03161461268657600080fd5b604080516101008101825260105481526011546020808301919091526000828401819052606083018190526080830181905260a0830181905260c0830181905260e08301819052601354878252600790925292909220549091600290810b9163010000008104820b9190810b9083810b9083900b121561274757815b8160020b8160020b126127415761271b81896001613ff2565b8560800181815161272c9190615058565b90525080612739816152a4565b915050612702565b5061291c565b8260020b8160020b131561279657805b8260020b8160020b136127415761277081896000613ff2565b8560a0018181516127819190615058565b9052508061278e81615314565b915050612757565b815b8360020b8160020b13156127d8576127b281896001613ff2565b856080018181516127c39190615058565b905250806127d0816152a4565b915050612798565b50805b8360020b8160020b121561281b576127f581896000613ff2565b8560a0018181516128069190615058565b9052508061281381615314565b9150506127db565b506000878152600660209081526040808320600287810b900b8452825280832080549084905560129092529091206003810154905461285a90836151fb565b6128649190615070565b60c0860152600284810b900b6000908152601260205260409020600381015460019091015461289390836151fb565b61289d9190615070565b60e086015260c08501516080860180516128b8908390615058565b90525060e085015160a0860180516128d1908390615058565b90525060c085015160e08601516128ed91869160008080613d2f565b600284810b900b60009081526012602052604081206003018054839290612915908490615261565b9091555050505b61294b7f00000000000000000000000000000000000000000000000000000000000000008986608001516135ce565b61297a7f0000000000000000000000000000000000000000000000000000000000000000898660a001516135ce565b612982610bbb565b604085015261298f612cb6565b6060850152608084015184516129a59190615261565b8460400151101580156129cf57508360a0015184602001516129c79190615261565b846060015110155b612a015760405162461bcd60e51b815260206004820152600360248201526228311960e91b60448201526064016109cc565b8160020b8160020b612a1289612252565b6001600160a01b03167f0b557284304b8283f8be757e1a8cea2735fc957b7a9c6936c41bffd3dae646d58b8b89608001518a60a00151604051612a7994939291906001600160a01b0394909416845260208401929092526040830152606082015260800190565b60405180910390a4612a8a876140e1565b612aa284604001518560600151601091909155601155565b608084015160a0850151612ab4614938565b509096509450505050505b9250929050565b6001600160a01b038216331415612b1b5760405162461bcd60e51b815260206004820152601960248201527822a9219b99189d1030b8383937bb32903a379031b0b63632b960391b60448201526064016109cc565b3360008181526005602090815260408083206001600160a01b03871680855290835292819020805460ff191686151590811790915590519081529192917f17307eab39ab6107e8899845ad3d59bd9653f200f220920489ca2b5937696c31910160405180910390a35050565b612b9133836136ce565b612bad5760405162461bcd60e51b81526004016109cc90614fa2565b612bb984848484614176565b50505050565b7f00000000000000000000000000000000000000000000000000000000000000006001600160a01b0316638da5cb5b6040518163ffffffff1660e01b815260040160206040518083038186803b158015612c1857600080fd5b505afa158015612c2c573d6000803e3d6000fd5b505050506040513d601f19601f82011682018060405250810190612c509190614a10565b6001600160a01b0316336001600160a01b031614612c985760405162461bcd60e51b8152602060048201526005602482015264050735046360dc1b60448201526064016109cc565b600c80549215156101000261ff001990931692909217909155600d55565b6040516370a0823160e01b81526000906001600160a01b037f000000000000000000000000000000000000000000000000000000000000000016906370a0823190610c0a903090600401614e92565b7f00000000000000000000000000000000000000000000000000000000000000006001600160a01b0316638da5cb5b6040518163ffffffff1660e01b815260040160206040518083038186803b158015612d5e57600080fd5b505afa158015612d72573d6000803e3d6000fd5b505050506040513d601f19601f82011682018060405250810190612d969190614a10565b6001600160a01b0316336001600160a01b031614612ddc5760405162461bcd60e51b815260206004820152600360248201526205069360ec1b60448201526064016109cc565b600c5460ff1615612e155760405162461bcd60e51b815260206004820152600360248201526250693160e81b60448201526064016109cc565b612e1e816141a9565b600291820b80830b60009081526012602052604090209283019190915560049091018054600160ff199182168117909255600c805490911690911790556013805465ffffffffffff191662ffffff909216918217630100000083021762ffffff60301b1916600160301b92909202919091179055565b6060612e9f8261301d565b612f035760405162461bcd60e51b815260206004820152602f60248201527f4552433732314d657461646174613a2055524920717565727920666f72206e6f60448201526e3732bc34b9ba32b73a103a37b5b2b760891b60648201526084016109cc565b6000612f1a60408051602081019091526000815290565b90506000815111612f3a5760405180602001604052806000815250612f65565b80612f44846142e9565b604051602001612f55929190614e63565b6040516020818303038152906040525b9392505050565b6001600160a01b03918216600090815260056020908152604080832093909416825291909152205460ff1690565b60606000612fa7836114c6565b905060015b818111613016576001600160a01b03841660009081526009602090815260408083208484529091529020548351849083908110612ff957634e487b7160e01b600052603260045260246000fd5b60209081029190910101528061300e81615336565b915050612fac565b5050919050565b6000908152600260205260409020546001600160a01b0316151590565b600081815260046020526040902080546001600160a01b0319166001600160a01b038416908117909155819061306f82612252565b6001600160a01b03167f8c5be1e5ebec7d5bd14f71427d1e84f3dd0314c0f7b2291e5b200ac8c7c3b92560405160405180910390a45050565b601354600090600285810b91810b900b146130ed5760405162461bcd60e51b8152602060048201526005602482015264050734952360dc1b60448201526064016109cc565b60006040518061010001604052806010548152602001601154815260200160008152602001600081526020016000815260200160008152602001600081526020016000815250905061313e856133d7565b60e085015260c084015260a0830152608082015283801561316357508060a001518311155b8061317b57508315801561317b575080608001518311155b6131af5760405162461bcd60e51b8152602060048201526005602482015264507349523160d81b60448201526064016109cc565b60006131cf8583608001518460a001518560c001518660e0015189614402565b90506000620f42406132017f0000000000000000000000000000000000000000000000000000000000000000846151fb565b61320b9190615070565b90506132178183615058565b600c54909450849250610100900460ff161561325657620f4240600d548261323f91906151fb565b6132499190615070565b6132539085615261565b91505b85156133025761327883608001518460a001518560c001518660e00151613c00565b6132aa83856080015161328b9190615058565b878660a0015161329b9190615261565b8660c001518760e00151613c00565b10156132c85760405162461bcd60e51b81526004016109cc90614ff3565b8260a001518511156132ec5760405162461bcd60e51b81526004016109cc90614ff3565b6132fd878387600160006001613d2f565b6133c3565b61331e83608001518460a001518560c001518660e00151613c00565b6133418685608001516133319190615261565b848660a0015161329b9190615058565b10156133775760405162461bcd60e51b8152602060048201526005602482015264507349523360d81b60448201526064016109cc565b82608001518511156133b35760405162461bcd60e51b8152602060048201526005602482015264141cd2548d60da1b60448201526064016109cc565b6133c38786846000600180613d2f565b6133cb614938565b92505050509392505050565b600281810b810b60009081526012602052604081208054600182015491909301549091670de0b6b3a764000061342d7f0000000000000000000000000000000000000000000000000000000000000000846151fb565b6134379190615070565b90509193509193565b60008161344f575060006135c4565b600061345d87878787613c00565b9050600081116134975760405162461bcd60e51b8152602060048201526005602482015264121053dd5d60da1b60448201526064016109cc565b87156135325782846134b1670de0b6b3a7640000846151fb565b6134bb9190615070565b6134c59089615058565b6134cf9190615058565b6134d982806151fb565b6134e39190615070565b670de0b6b3a76400006134f687846151fb565b6135009190615070565b61350a9088615058565b6135149190615261565b9150600182111561352d5781613529816152c8565b9250505b6135c2565b82670de0b6b3a764000061354687846151fb565b6135509190615070565b61355a9088615058565b6135649190615058565b61356e82806151fb565b6135789190615070565b8461358b670de0b6b3a7640000846151fb565b6135959190615070565b61359f9089615058565b6135a99190615261565b915060018211156135c257816135be816152c8565b9250505b505b9695505050505050565b604080516001600160a01b038481166024830152604480830185905283518084039091018152606490920183526020820180516001600160e01b031663a9059cbb60e01b179052915160009283929087169161362a9190614e47565b6000604051808303816000865af19150503d8060008114613667576040519150601f19603f3d011682016040523d82523d6000602084013e61366c565b606091505b50915091508180156136965750805115806136965750808060200190518101906136969190614d0c565b6136c75760405162461bcd60e51b815260206004820152600260248201526114d560f21b60448201526064016109cc565b5050505050565b60006136d98261301d565b61373a5760405162461bcd60e51b815260206004820152602c60248201527f4552433732313a206f70657261746f7220717565727920666f72206e6f6e657860448201526b34b9ba32b73a103a37b5b2b760a11b60648201526084016109cc565b600061374583612252565b9050806001600160a01b0316846001600160a01b031614806137805750836001600160a01b031661377584610964565b6001600160a01b0316145b8061379057506137908185612f6c565b949350505050565b826001600160a01b03166137ab82612252565b6001600160a01b0316146138135760405162461bcd60e51b815260206004820152602960248201527f4552433732313a207472616e73666572206f6620746f6b656e2074686174206960448201526839903737ba1037bbb760b91b60648201526084016109cc565b6001600160a01b0382166138755760405162461bcd60e51b8152602060048201526024808201527f4552433732313a207472616e7366657220746f20746865207a65726f206164646044820152637265737360e01b60648201526084016109cc565b613880838383614572565b61388b60008261303a565b6001600160a01b03831660009081526003602052604081208054600192906138b4908490615261565b90915550506001600160a01b03821660009081526003602052604081208054600192906138e2908490615058565b909155505060008181526002602052604080822080546001600160a01b0319166001600160a01b0386811691821790925591518493918716916000805160206153fb83398151915291a4505050565b61394b82826040518060200160405280600081525061465f565b5050565b600283810b900b60009081526012602052604081206004015460ff1661397857613978846122c9565b6000806000613986876133d7565b93509350509250670de0b6b3a76400008210156139de576139a781836151fb565b6139b18383615261565b6139c3670de0b6b3a7640000886151fb565b6139cd91906151fb565b6139d79190615070565b9350613a1c565b670de0b6b3a76400006139f182846151fb565b6139fb9190615070565b613a058383615261565b613a0f90876151fb565b613a199190615070565b93505b600287810b900b60009081526012602052604081206003015415613a7157600288810b900b6000908152601260205260409020600301548490613a609087906151fb565b613a6a9190615070565b9050613a81565b613a7e8560008585613c00565b90505b600087815260066020908152604080832060028c810b900b84528252808320849055601290915281206003018054839290613abd908490615058565b90915550613ad390508886600060018082613d2f565b505050509392505050565b600283810b900b60009081526012602052604081206004015460ff16613b0757613b07846122c9565b6000806000613b15876133d7565b93509350935050670de0b6b3a76400008282613b319190615261565b613b3b90876151fb565b613b459190615070565b600288810b900b6000908152601260205260408120600301549195509015613b9e57600288810b900b6000908152601260205260409020600301548490613b8d9087906151fb565b613b979190615070565b9050613bae565b613bab6000868585613c00565b90505b600087815260066020908152604080832060028c810b900b84528252808320849055601290915281206003018054839290613bea908490615058565b90915550613ad390508860008760018083613d2f565b60008082613c16670de0b6b3a7640000876151fb565b613c209190615070565b670de0b6b3a7640000613c3386896151fb565b613c3d9190615070565b613c479190615058565b90506000613cc1670de0b6b3a764000085613c6282896151fb565b613c6c9190615070565b613c7e90670de0b6b3a7640000615261565b613c88898b6151fb565b613c9291906151fb565b613c9c9190615070565b613ca79060046151fb565b613cb26002856150c7565b613cbc9190615058565b614692565b905083613cd686670de0b6b3a76400006151fb565b613ce09190615070565b613cf290670de0b6b3a7640000615261565b613cfd9060026151fb565b670de0b6b3a7640000613d108385615058565b613d1a91906151fb565b613d249190615070565b979650505050505050565b600083613d5c57600287810b900b600090815260126020526040902054613d57908790615261565b613d7d565b600287810b900b600090815260126020526040902054613d7d908790615058565b9050600083613daf57600288810b900b600090815260126020526040902060010154613daa908790615261565b613dd3565b600288810b900b600090815260126020526040902060010154613dd3908790615058565b600289810b900b6000908152601260205260409020838155600101819055905084613e0b5786600e54613e069190615261565b613e19565b86600e54613e199190615058565b600e5583613e345785600f54613e2f9190615261565b613e42565b85600f54613e429190615058565b600f558215613fe85781158015613e8a5750601354601290600090613e6b9060020b6001615012565b600290810b900b815260208101919091526040016000206004015460ff165b8015613ea05750601354600289810b91810b900b145b15613f19576013805460020b906000613eb883615314565b91906101000a81548162ffffff021916908360020b62ffffff16021790555050876001613ee59190615012565b60020b8860020b7fd574b3e557912c2f77746e9b82d60793270e94af3c27d050f3ac93fb8bbd47ac60405160405180910390a35b80158015613f595750601354601290600090613f3a9060019060020b61521a565b600290810b900b815260208101919091526040016000206004015460ff165b8015613f6f5750601354600289810b91810b900b145b15613fe8576013805460020b906000613f87836152a4565b91906101000a81548162ffffff021916908360020b62ffffff16021790555050600188613fb4919061521a565b60020b8860020b7fd574b3e557912c2f77746e9b82d60793270e94af3c27d050f3ac93fb8bbd47ac60405160405180910390a35b5050505050505050565b6000828152600660209081526040808320600287810b900b84529091528120805490829055821561406457600285810b900b60009081526012602052604090206003810154905461404390836151fb565b61404d9190615070565b915061405f8583600080600080613d2f565b6140ab565b600285810b900b6000908152601260205260409020600381015460019091015461408e90836151fb565b6140989190615070565b91506140ab856000846000806000613d2f565b600285810b900b600090815260126020526040812060030180548392906140d3908490615261565b909155509195945050505050565b60006140ec82612252565b90506140fa81600084614572565b61410560008361303a565b6001600160a01b038116600090815260036020526040812080546001929061412e908490615261565b909155505060008281526002602052604080822080546001600160a01b0319169055518391906001600160a01b038416906000805160206153fb833981519152908390a45050565b614181848484613798565b61418d84848484614702565b612bb95760405162461bcd60e51b81526004016109cc90614f50565b670de0b6b3a76400007f00000000000000000000000000000000000000000000000000000000000000007f00000000000000000000000000000000000000000000000000000000000000005b60008460020b131561426f5760648460020b131561423e57670de0b6b3a764000061422082856151fb565b61422a9190615070565b925061423760648561521a565b93506141f5565b670de0b6b3a764000061425183856151fb565b61425b9190615070565b925083614267816152a4565b9450506141f5565b60008460020b12156130165760648460020b13156142b8578061429a670de0b6b3a7640000856151fb565b6142a49190615070565b92506142b1846064615012565b935061426f565b816142cb670de0b6b3a7640000856151fb565b6142d59190615070565b9250836142e181615314565b94505061426f565b60608161430d5750506040805180820190915260018152600360fc1b602082015290565b8160005b8115614337578061432181615336565b91506143309050600a83615070565b9150614311565b6000816001600160401b0381111561435f57634e487b7160e01b600052604160045260246000fd5b6040519080825280601f01601f191660200182016040528015614389576020820181803683370190505b5090505b84156137905761439e600183615261565b91506143ab600a86615351565b6143b6906030615058565b60f81b8183815181106143d957634e487b7160e01b600052603260045260246000fd5b60200101906001600160f81b031916908160001a9053506143fb600a86615070565b945061438d565b600081614411575060006135c4565b600061441f87878787613c00565b90506000811161445a5760405162461bcd60e51b81526004016109cc906020808252600490820152632420a4b760e11b604082015260600190565b87156144e95783614473670de0b6b3a7640000836151fb565b61447d9190615070565b6144879088615058565b83670de0b6b3a764000061449b88856151fb565b6144a59190615070565b6144af9089615058565b6144b99190615261565b6144c383806151fb565b6144cd9190615070565b6144d79190615261565b9150811561352d578161352981615336565b670de0b6b3a76400006144fc86836151fb565b6145069190615070565b6145109087615058565b8385614524670de0b6b3a7640000856151fb565b61452e9190615070565b614538908a615058565b6145429190615261565b61454c83806151fb565b6145569190615070565b6145609190615261565b915081156135c257816135be81615336565b6000818152600b60209081526040808320546001600160a01b038088168552600984528285208286529093529083209290925583161561464b576001600160a01b0383166000908152600a60205260408120805490826145d183615336565b9091555090508061461557806145e681615336565b6001600160a01b0386166000908152600a60205260408120805492945091925061460f83615336565b91905055505b6001600160a01b03841660009081526009602090815260408083208484528252808320869055858352600b909152902055612bb9565b506000908152600b60205260408120555050565b614669838361480c565b6146766000848484614702565b610afd5760405162461bcd60e51b81526004016109cc90614f50565b600060038211156146f357508060006146ac600283615070565b6146b7906001615058565b90505b818110156146ed579050806002816146d28186615070565b6146dc9190615058565b6146e69190615070565b90506146ba565b50919050565b81156146fd575060015b919050565b60006001600160a01b0384163b1561480457604051630a85bd0160e11b81526001600160a01b0385169063150b7a0290614746903390899088908890600401614ea6565b602060405180830381600087803b15801561476057600080fd5b505af1925050508015614790575060408051601f3d908101601f1916820190925261478d91810190614d61565b60015b6147ea573d8080156147be576040519150601f19603f3d011682016040523d82523d6000602084013e6147c3565b606091505b5080516147e25760405162461bcd60e51b81526004016109cc90614f50565b805181602001fd5b6001600160e01b031916630a85bd0160e11b149050613790565b506001613790565b6001600160a01b0382166148625760405162461bcd60e51b815260206004820181905260248201527f4552433732313a206d696e7420746f20746865207a65726f206164647265737360448201526064016109cc565b61486b8161301d565b156148b75760405162461bcd60e51b815260206004820152601c60248201527b115490cdcc8c4e881d1bdad95b88185b1c9958591e481b5a5b9d195960221b60448201526064016109cc565b6148c360008383614572565b6001600160a01b03821660009081526003602052604081208054600192906148ec908490615058565b909155505060008181526002602052604080822080546001600160a01b0319166001600160a01b03861690811790915590518392906000805160206153fb833981519152908290a45050565b60405180610100016040528060008152602001600081526020016000815260200160008152602001600081526020016000815260200160008152602001600081525090565b604080516080810182526000808252602082018190529181019190915260608082015290565b60008083601f8401126149b4578182fd5b5081356001600160401b038111156149ca578182fd5b602083019150836020828501011115612abf57600080fd5b8035600281900b81146146fd57600080fd5b600060208284031215614a05578081fd5b8135612f65816153c1565b600060208284031215614a21578081fd5b8151612f65816153c1565b60008060408385031215614a3e578081fd5b8235614a49816153c1565b91506020830135614a59816153c1565b809150509250929050565b600080600060608486031215614a78578081fd5b8335614a83816153c1565b92506020840135614a93816153c1565b929592945050506040919091013590565b60008060008060808587031215614ab9578081fd5b8435614ac4816153c1565b93506020850135614ad4816153c1565b92506040850135915060608501356001600160401b0380821115614af6578283fd5b818701915087601f830112614b09578283fd5b813581811115614b1b57614b1b6153ab565b604051601f8201601f19908116603f01168101908382118183101715614b4357614b436153ab565b816040528281528a6020848701011115614b5b578586fd5b82602086016020830137918201602001949094529598949750929550505050565b60008060408385031215614b8e578182fd5b8235614b99816153c1565b91506020830135614a59816153d6565b600080600080600060808688031215614bc0578081fd5b8535614bcb816153c1565b94506020860135614bdb816153d6565b93506040860135925060608601356001600160401b03811115614bfc578182fd5b614c08888289016149a3565b969995985093965092949392505050565b60008060008060008060a08789031215614c31578081fd5b8635614c3c816153c1565b9550614c4a602088016149e2565b9450614c58604088016149e2565b93506060870135925060808701356001600160401b03811115614c79578182fd5b614c8589828a016149a3565b979a9699509497509295939492505050565b60008060408385031215614ca9578182fd5b8235614cb4816153c1565b946020939093013593505050565b600080600080600060808688031215614cd9578283fd5b8535614ce4816153c1565b9450602086013593506040860135925060608601356001600160401b03811115614bfc578182fd5b600060208284031215614d1d578081fd5b8151612f65816153d6565b60008060408385031215614d3a578182fd5b8235614cb4816153d6565b600060208284031215614d56578081fd5b8135612f65816153e4565b600060208284031215614d72578081fd5b8151612f65816153e4565b600060208284031215614d8e578081fd5b612f65826149e2565b600060208284031215614da8578081fd5b5035919050565b600060208284031215614dc0578081fd5b5051919050565b60008060408385031215614dd9578182fd5b82359150614de9602084016149e2565b90509250929050565b81835281816020850137506000828201602090810191909152601f909101601f19169091010190565b60008151808452614e33816020860160208601615278565b601f01601f19169290920160200192915050565b60008251614e59818460208701615278565b9190910192915050565b60008351614e75818460208801615278565b835190830190614e89818360208801615278565b01949350505050565b6001600160a01b0391909116815260200190565b6001600160a01b03858116825284166020820152604081018390526080606082018190526000906135c490830184614e1b565b6020808252825182820181905260009190848201906040850190845b81811015614f1157835183529284019291840191600101614ef5565b50909695505050505050565b8481528360208201526060604082015260006135c4606083018486614df2565b602081526000612f656020830184614e1b565b60208082526032908201527f4552433732313a207472616e7366657220746f206e6f6e20455243373231526560408201527131b2b4bb32b91034b6b83632b6b2b73a32b960711b606082015260800190565b60208082526031908201527f4552433732313a207472616e736665722063616c6c6572206973206e6f74206f6040820152701ddb995c881b9bdc88185c1c1c9bdd9959607a1b606082015260800190565b6020808252600590820152642839a4a91960d91b604082015260600190565b60008160020b8360020b82821282627fffff038213811516156150375761503761537f565b82627fffff1903821281161561504f5761504f61537f565b50019392505050565b6000821982111561506b5761506b61537f565b500190565b60008261507f5761507f615395565b500490565b600181815b808511156150bf5781600019048211156150a5576150a561537f565b808516156150b257918102915b93841c9390800290615089565b509250929050565b6000612f6560ff8416836000826150e0575060016108cc565b816150ed575060006108cc565b8160018114615103576002811461510d57615129565b60019150506108cc565b60ff84111561511e5761511e61537f565b50506001821b6108cc565b5060208310610133831016604e8410600b841016171561514c575081810a6108cc565b6151568383615084565b806000190482111561516a5761516a61537f565b029392505050565b60008160020b8360020b627fffff8382138484138383048511828216161561519c5761519c61537f565b627fffff19868512828116878305871216156151ba576151ba61537f565b8787129250858205871284841616156151d5576151d561537f565b858505871281841616156151eb576151eb61537f565b5050509290910295945050505050565b60008160001904831182151516156152155761521561537f565b500290565b60008160020b8360020b82811281627fffff19018312811516156152405761524061537f565b81627fffff0183138116156152575761525761537f565b5090039392505050565b6000828210156152735761527361537f565b500390565b60005b8381101561529357818101518382015260200161527b565b83811115612bb95750506000910152565b60008160020b627fffff198114156152be576152be61537f565b6000190192915050565b6000816152d7576152d761537f565b506000190190565b600181811c908216806152f357607f821691505b602082108114156146ed57634e487b7160e01b600052602260045260246000fd5b60008160020b627fffff81141561532d5761532d61537f565b60010192915050565b600060001982141561534a5761534a61537f565b5060010190565b60008261536057615360615395565b500690565b6000600160ff1b82141561537b5761537b61537f565b0390565b634e487b7160e01b600052601160045260246000fd5b634e487b7160e01b600052601260045260246000fd5b634e487b7160e01b600052604160045260246000fd5b6001600160a01b038116811461252c57600080fd5b801515811461252c57600080fd5b6001600160e01b03198116811461252c57600080fdfeddf252ad1be2c89b69c2b068fc378daa952ba7f163c4a11628f55a4df523b3efa26469706673582212202a965e86d19a21dcde8a91c1f39c1860ed555f10530fc917ac685eb68d4683f764736f6c63430008040033",
  "linkReferences": {},
  "deployedLinkReferences": {}
}