{
  "_format": "hh-sol-artifact-1",
  "contractName": "DesireSwapV0Pool",
  "sourceName": "contracts/Pool.sol",
  "abi": [
    {
      "inputs": [
        {
          "internalType": "address",
          "name": "factory_",
          "type": "address"
        },
        {
          "internalType": "address",
          "name": "swapRouter_",
          "type": "address"
        },
        {
          "internalType": "address",
          "name": "token0_",
          "type": "address"
        },
        {
          "internalType": "address",
          "name": "token1_",
          "type": "address"
        },
        {
          "internalType": "uint256",
          "name": "feePercentage_",
          "type": "uint256"
        },
        {
          "internalType": "uint256",
          "name": "ticksInRange_",
          "type": "uint256"
        },
        {
          "internalType": "string",
          "name": "name_",
          "type": "string"
        },
        {
          "internalType": "string",
          "name": "symbol_",
          "type": "string"
        }
      ],
      "stateMutability": "nonpayable",
      "type": "constructor"
    },
    {
      "anonymous": false,
      "inputs": [
        {
          "indexed": true,
          "internalType": "address",
          "name": "owner",
          "type": "address"
        },
        {
          "indexed": true,
          "internalType": "address",
          "name": "approved",
          "type": "address"
        },
        {
          "indexed": true,
          "internalType": "uint256",
          "name": "tokenId",
          "type": "uint256"
        }
      ],
      "name": "Approval",
      "type": "event"
    },
    {
      "anonymous": false,
      "inputs": [
        {
          "indexed": true,
          "internalType": "address",
          "name": "owner",
          "type": "address"
        },
        {
          "indexed": true,
          "internalType": "address",
          "name": "operator",
          "type": "address"
        },
        {
          "indexed": false,
          "internalType": "bool",
          "name": "approved",
          "type": "bool"
        }
      ],
      "name": "ApprovalForAll",
      "type": "event"
    },
    {
      "anonymous": false,
      "inputs": [
        {
          "indexed": true,
          "internalType": "address",
          "name": "to",
          "type": "address"
        },
        {
          "indexed": false,
          "internalType": "address",
          "name": "recipient",
          "type": "address"
        },
        {
          "indexed": true,
          "internalType": "int24",
          "name": "lowestRangeIndex",
          "type": "int24"
        },
        {
          "indexed": true,
          "internalType": "int24",
          "name": "highestRangeIndex",
          "type": "int24"
        },
        {
          "indexed": false,
          "internalType": "uint256",
          "name": "ticketID",
          "type": "uint256"
        },
        {
          "indexed": false,
          "internalType": "uint256",
          "name": "amount0Redeemed",
          "type": "uint256"
        },
        {
          "indexed": false,
          "internalType": "uint256",
          "name": "amount1Redeemed",
          "type": "uint256"
        }
      ],
      "name": "Burn",
      "type": "event"
    },
    {
      "anonymous": false,
      "inputs": [
        {
          "indexed": true,
          "internalType": "address",
          "name": "token",
          "type": "address"
        },
        {
          "indexed": false,
          "internalType": "uint256",
          "name": "amount",
          "type": "uint256"
        }
      ],
      "name": "CollectFee",
      "type": "event"
    },
    {
      "anonymous": false,
      "inputs": [
        {
          "indexed": true,
          "internalType": "address",
          "name": "msg_sender",
          "type": "address"
        },
        {
          "indexed": true,
          "internalType": "address",
          "name": "recipient",
          "type": "address"
        },
        {
          "indexed": false,
          "internalType": "uint256",
          "name": "amount0",
          "type": "uint256"
        },
        {
          "indexed": false,
          "internalType": "uint256",
          "name": "amount1",
          "type": "uint256"
        },
        {
          "indexed": false,
          "internalType": "uint256",
          "name": "paid0",
          "type": "uint256"
        },
        {
          "indexed": false,
          "internalType": "uint256",
          "name": "paid1",
          "type": "uint256"
        }
      ],
      "name": "Flash",
      "type": "event"
    },
    {
      "anonymous": false,
      "inputs": [
        {
          "indexed": true,
          "internalType": "int24",
          "name": "oldIndex",
          "type": "int24"
        },
        {
          "indexed": true,
          "internalType": "int24",
          "name": "newIndex",
          "type": "int24"
        }
      ],
      "name": "InUseRangeChanged",
      "type": "event"
    },
    {
      "anonymous": false,
      "inputs": [
        {
          "indexed": false,
          "internalType": "address",
          "name": "msgSender",
          "type": "address"
        },
        {
          "indexed": true,
          "internalType": "address",
          "name": "to",
          "type": "address"
        },
        {
          "indexed": true,
          "internalType": "int24",
          "name": "lowestRangeIndex",
          "type": "int24"
        },
        {
          "indexed": true,
          "internalType": "int24",
          "name": "highestRangeIndex",
          "type": "int24"
        },
        {
          "indexed": false,
          "internalType": "uint256",
          "name": "ticketID",
          "type": "uint256"
        },
        {
          "indexed": false,
          "internalType": "uint256",
          "name": "liqAdded",
          "type": "uint256"
        },
        {
          "indexed": false,
          "internalType": "uint256",
          "name": "amount0Added",
          "type": "uint256"
        },
        {
          "indexed": false,
          "internalType": "uint256",
          "name": "amount1Added",
          "type": "uint256"
        }
      ],
      "name": "Mint",
      "type": "event"
    },
    {
      "anonymous": false,
      "inputs": [
        {
          "indexed": true,
          "internalType": "address",
          "name": "msgSender",
          "type": "address"
        },
        {
          "indexed": true,
          "internalType": "address",
          "name": "to",
          "type": "address"
        },
        {
          "indexed": true,
          "internalType": "uint256",
          "name": "blockNumber",
          "type": "uint256"
        },
        {
          "indexed": false,
          "internalType": "int256",
          "name": "delta0",
          "type": "int256"
        },
        {
          "indexed": false,
          "internalType": "int256",
          "name": "delta1",
          "type": "int256"
        }
      ],
      "name": "Swap",
      "type": "event"
    },
    {
      "anonymous": false,
      "inputs": [
        {
          "indexed": true,
          "internalType": "address",
          "name": "from",
          "type": "address"
        },
        {
          "indexed": true,
          "internalType": "address",
          "name": "to",
          "type": "address"
        },
        {
          "indexed": true,
          "internalType": "uint256",
          "name": "tokenId",
          "type": "uint256"
        }
      ],
      "name": "Transfer",
      "type": "event"
    },
    {
      "inputs": [
        {
          "internalType": "int24",
          "name": "index",
          "type": "int24"
        }
      ],
      "name": "activate",
      "outputs": [],
      "stateMutability": "nonpayable",
      "type": "function"
    },
    {
      "inputs": [
        {
          "internalType": "address",
          "name": "to",
          "type": "address"
        },
        {
          "internalType": "uint256",
          "name": "tokenId",
          "type": "uint256"
        }
      ],
      "name": "approve",
      "outputs": [],
      "stateMutability": "nonpayable",
      "type": "function"
    },
    {
      "inputs": [],
      "name": "balance0",
      "outputs": [
        {
          "internalType": "uint256",
          "name": "",
          "type": "uint256"
        }
      ],
      "stateMutability": "view",
      "type": "function"
    },
    {
      "inputs": [],
      "name": "balance1",
      "outputs": [
        {
          "internalType": "uint256",
          "name": "",
          "type": "uint256"
        }
      ],
      "stateMutability": "view",
      "type": "function"
    },
    {
      "inputs": [
        {
          "internalType": "address",
          "name": "owner",
          "type": "address"
        }
      ],
      "name": "balanceOf",
      "outputs": [
        {
          "internalType": "uint256",
          "name": "",
          "type": "uint256"
        }
      ],
      "stateMutability": "view",
      "type": "function"
    },
    {
      "inputs": [
        {
          "internalType": "address",
          "name": "to",
          "type": "address"
        },
        {
          "internalType": "uint256",
          "name": "ticketId",
          "type": "uint256"
        }
      ],
      "name": "burn",
      "outputs": [
        {
          "internalType": "uint256",
          "name": "",
          "type": "uint256"
        },
        {
          "internalType": "uint256",
          "name": "",
          "type": "uint256"
        }
      ],
      "stateMutability": "nonpayable",
      "type": "function"
    },
    {
      "inputs": [
        {
          "internalType": "address",
          "name": "token",
          "type": "address"
        },
        {
          "internalType": "uint256",
          "name": "amount",
          "type": "uint256"
        }
      ],
      "name": "collectFee",
      "outputs": [],
      "stateMutability": "nonpayable",
      "type": "function"
    },
    {
      "inputs": [],
      "name": "factory",
      "outputs": [
        {
          "internalType": "address",
          "name": "",
          "type": "address"
        }
      ],
      "stateMutability": "view",
      "type": "function"
    },
    {
      "inputs": [],
      "name": "feePercentage",
      "outputs": [
        {
          "internalType": "uint256",
          "name": "",
          "type": "uint256"
        }
      ],
      "stateMutability": "view",
      "type": "function"
    },
    {
      "inputs": [
        {
          "internalType": "address",
          "name": "recipient",
          "type": "address"
        },
        {
          "internalType": "uint256",
          "name": "amount0",
          "type": "uint256"
        },
        {
          "internalType": "uint256",
          "name": "amount1",
          "type": "uint256"
        },
        {
          "internalType": "bytes",
          "name": "data",
          "type": "bytes"
        }
      ],
      "name": "flash",
      "outputs": [],
      "stateMutability": "nonpayable",
      "type": "function"
    },
    {
      "inputs": [
        {
          "internalType": "address",
          "name": "owner_",
          "type": "address"
        }
      ],
      "name": "getAddressTicketIdList",
      "outputs": [
        {
          "internalType": "uint256[]",
          "name": "ticketIdList",
          "type": "uint256[]"
        }
      ],
      "stateMutability": "view",
      "type": "function"
    },
    {
      "inputs": [
        {
          "internalType": "address",
          "name": "owner_",
          "type": "address"
        },
        {
          "internalType": "uint256",
          "name": "position_",
          "type": "uint256"
        }
      ],
      "name": "getAddressTickets",
      "outputs": [
        {
          "internalType": "uint256",
          "name": "",
          "type": "uint256"
        }
      ],
      "stateMutability": "view",
      "type": "function"
    },
    {
      "inputs": [
        {
          "internalType": "address",
          "name": "owner_",
          "type": "address"
        }
      ],
      "name": "getAddressTicketsAmount",
      "outputs": [
        {
          "internalType": "uint256",
          "name": "",
          "type": "uint256"
        }
      ],
      "stateMutability": "view",
      "type": "function"
    },
    {
      "inputs": [
        {
          "internalType": "uint256",
          "name": "tokenId",
          "type": "uint256"
        }
      ],
      "name": "getApproved",
      "outputs": [
        {
          "internalType": "address",
          "name": "",
          "type": "address"
        }
      ],
      "stateMutability": "view",
      "type": "function"
    },
    {
      "inputs": [
        {
          "internalType": "int24",
          "name": "index",
          "type": "int24"
        }
      ],
      "name": "getFullRangeInfo",
      "outputs": [
        {
          "internalType": "uint256",
          "name": "_reserve0",
          "type": "uint256"
        },
        {
          "internalType": "uint256",
          "name": "_reserve1",
          "type": "uint256"
        },
        {
          "internalType": "uint256",
          "name": "_sqrtPriceBottom",
          "type": "uint256"
        },
        {
          "internalType": "uint256",
          "name": "_sqrtPriceTop",
          "type": "uint256"
        },
        {
          "internalType": "uint256",
          "name": "_supplyCoefficient",
          "type": "uint256"
        },
        {
          "internalType": "bool",
          "name": "_activated",
          "type": "bool"
        }
      ],
      "stateMutability": "view",
      "type": "function"
    },
    {
      "inputs": [],
      "name": "getLastBalances",
      "outputs": [
        {
          "internalType": "uint256",
          "name": "_lastBalance0",
          "type": "uint256"
        },
        {
          "internalType": "uint256",
          "name": "_lastBalance1",
          "type": "uint256"
        }
      ],
      "stateMutability": "view",
      "type": "function"
    },
    {
      "inputs": [],
      "name": "getNextTicketId",
      "outputs": [
        {
          "internalType": "uint256",
          "name": "",
          "type": "uint256"
        }
      ],
      "stateMutability": "view",
      "type": "function"
    },
    {
      "inputs": [
        {
          "internalType": "uint256",
          "name": "ticketId_",
          "type": "uint256"
        }
      ],
      "name": "getTicketData",
      "outputs": [
        {
          "components": [
            {
              "internalType": "int24",
              "name": "lowestRangeIndex",
              "type": "int24"
            },
            {
              "internalType": "int24",
              "name": "highestRangeIndex",
              "type": "int24"
            },
            {
              "internalType": "uint256",
              "name": "liqAdded",
              "type": "uint256"
            }
          ],
          "internalType": "struct ITicket.TicketData",
          "name": "",
          "type": "tuple"
        }
      ],
      "stateMutability": "view",
      "type": "function"
    },
    {
      "inputs": [
        {
          "internalType": "uint256",
          "name": "ticketId_",
          "type": "uint256"
        }
      ],
      "name": "getTicketPosition",
      "outputs": [
        {
          "internalType": "uint256",
          "name": "",
          "type": "uint256"
        }
      ],
      "stateMutability": "view",
      "type": "function"
    },
    {
      "inputs": [
        {
          "internalType": "uint256",
          "name": "ticketId_",
          "type": "uint256"
        },
        {
          "internalType": "int24",
          "name": "index_",
          "type": "int24"
        }
      ],
      "name": "getTicketSupplyData",
      "outputs": [
        {
          "internalType": "uint256",
          "name": "",
          "type": "uint256"
        }
      ],
      "stateMutability": "view",
      "type": "function"
    },
    {
      "inputs": [],
      "name": "getTotalReserves",
      "outputs": [
        {
          "internalType": "uint256",
          "name": "_totalReserve0",
          "type": "uint256"
        },
        {
          "internalType": "uint256",
          "name": "_totalReserve1",
          "type": "uint256"
        }
      ],
      "stateMutability": "view",
      "type": "function"
    },
    {
      "inputs": [],
      "name": "highestActivatedRange",
      "outputs": [
        {
          "internalType": "int24",
          "name": "",
          "type": "int24"
        }
      ],
      "stateMutability": "view",
      "type": "function"
    },
    {
      "inputs": [],
      "name": "inUseInfo",
      "outputs": [
        {
          "internalType": "int24",
          "name": "usingRange",
          "type": "int24"
        },
        {
          "internalType": "uint256",
          "name": "sqrtCurrentPrice",
          "type": "uint256"
        },
        {
          "internalType": "uint256",
          "name": "inUseLiq",
          "type": "uint256"
        },
        {
          "internalType": "uint256",
          "name": "inUseReserve0",
          "type": "uint256"
        },
        {
          "internalType": "uint256",
          "name": "inUseReserve1",
          "type": "uint256"
        }
      ],
      "stateMutability": "view",
      "type": "function"
    },
    {
      "inputs": [],
      "name": "inUseRange",
      "outputs": [
        {
          "internalType": "int24",
          "name": "",
          "type": "int24"
        }
      ],
      "stateMutability": "view",
      "type": "function"
    },
    {
      "inputs": [
        {
          "internalType": "int24",
          "name": "_startingInUseRange",
          "type": "int24"
        }
      ],
      "name": "initialize",
      "outputs": [],
      "stateMutability": "nonpayable",
      "type": "function"
    },
    {
      "inputs": [],
      "name": "initialized",
      "outputs": [
        {
          "internalType": "bool",
          "name": "",
          "type": "bool"
        }
      ],
      "stateMutability": "view",
      "type": "function"
    },
    {
      "inputs": [
        {
          "internalType": "address",
          "name": "owner",
          "type": "address"
        },
        {
          "internalType": "address",
          "name": "operator",
          "type": "address"
        }
      ],
      "name": "isApprovedForAll",
      "outputs": [
        {
          "internalType": "bool",
          "name": "",
          "type": "bool"
        }
      ],
      "stateMutability": "view",
      "type": "function"
    },
    {
      "inputs": [],
      "name": "lowestActivatedRange",
      "outputs": [
        {
          "internalType": "int24",
          "name": "",
          "type": "int24"
        }
      ],
      "stateMutability": "view",
      "type": "function"
    },
    {
      "inputs": [
        {
          "internalType": "address",
          "name": "to",
          "type": "address"
        },
        {
          "internalType": "int24",
          "name": "lowestRangeIndex",
          "type": "int24"
        },
        {
          "internalType": "int24",
          "name": "highestRangeIndex",
          "type": "int24"
        },
        {
          "internalType": "uint256",
          "name": "liqToAdd",
          "type": "uint256"
        },
        {
          "internalType": "bytes",
          "name": "data",
          "type": "bytes"
        }
      ],
      "name": "mint",
      "outputs": [
        {
          "internalType": "uint256",
          "name": "ticketId",
          "type": "uint256"
        },
        {
          "internalType": "uint256",
          "name": "amount0",
          "type": "uint256"
        },
        {
          "internalType": "uint256",
          "name": "amount1",
          "type": "uint256"
        }
      ],
      "stateMutability": "nonpayable",
      "type": "function"
    },
    {
      "inputs": [],
      "name": "name",
      "outputs": [
        {
          "internalType": "string",
          "name": "",
          "type": "string"
        }
      ],
      "stateMutability": "view",
      "type": "function"
    },
    {
      "inputs": [
        {
          "internalType": "uint256",
          "name": "tokenId",
          "type": "uint256"
        }
      ],
      "name": "ownerOf",
      "outputs": [
        {
          "internalType": "address",
          "name": "",
          "type": "address"
        }
      ],
      "stateMutability": "view",
      "type": "function"
    },
    {
      "inputs": [],
      "name": "protocolFeeIsOn",
      "outputs": [
        {
          "internalType": "bool",
          "name": "",
          "type": "bool"
        }
      ],
      "stateMutability": "view",
      "type": "function"
    },
    {
      "inputs": [],
      "name": "protocolFeePart",
      "outputs": [
        {
          "internalType": "uint256",
          "name": "",
          "type": "uint256"
        }
      ],
      "stateMutability": "view",
      "type": "function"
    },
    {
      "inputs": [
        {
          "internalType": "int24",
          "name": "",
          "type": "int24"
        }
      ],
      "name": "ranges",
      "outputs": [
        {
          "internalType": "uint256",
          "name": "reserve0",
          "type": "uint256"
        },
        {
          "internalType": "uint256",
          "name": "reserve1",
          "type": "uint256"
        },
        {
          "internalType": "uint256",
          "name": "sqrtPriceBottom",
          "type": "uint256"
        },
        {
          "internalType": "uint256",
          "name": "supplyCoefficient",
          "type": "uint256"
        },
        {
          "internalType": "bool",
          "name": "activated",
          "type": "bool"
        }
      ],
      "stateMutability": "view",
      "type": "function"
    },
    {
      "inputs": [
        {
          "internalType": "address",
          "name": "from",
          "type": "address"
        },
        {
          "internalType": "address",
          "name": "to",
          "type": "address"
        },
        {
          "internalType": "uint256",
          "name": "tokenId",
          "type": "uint256"
        }
      ],
      "name": "safeTransferFrom",
      "outputs": [],
      "stateMutability": "nonpayable",
      "type": "function"
    },
    {
      "inputs": [
        {
          "internalType": "address",
          "name": "from",
          "type": "address"
        },
        {
          "internalType": "address",
          "name": "to",
          "type": "address"
        },
        {
          "internalType": "uint256",
          "name": "tokenId",
          "type": "uint256"
        },
        {
          "internalType": "bytes",
          "name": "_data",
          "type": "bytes"
        }
      ],
      "name": "safeTransferFrom",
      "outputs": [],
      "stateMutability": "nonpayable",
      "type": "function"
    },
    {
      "inputs": [
        {
          "internalType": "address",
          "name": "operator",
          "type": "address"
        },
        {
          "internalType": "bool",
          "name": "approved",
          "type": "bool"
        }
      ],
      "name": "setApprovalForAll",
      "outputs": [],
      "stateMutability": "nonpayable",
      "type": "function"
    },
    {
      "inputs": [
        {
          "internalType": "bool",
          "name": "_protocolFeeIsOn",
          "type": "bool"
        },
        {
          "internalType": "uint256",
          "name": "_protocolFeePart",
          "type": "uint256"
        }
      ],
      "name": "setProtocolFee",
      "outputs": [],
      "stateMutability": "nonpayable",
      "type": "function"
    },
    {
      "inputs": [],
      "name": "setSwapRouter",
      "outputs": [],
      "stateMutability": "nonpayable",
      "type": "function"
    },
    {
      "inputs": [],
      "name": "sqrtRangeMultiplier",
      "outputs": [
        {
          "internalType": "uint256",
          "name": "",
          "type": "uint256"
        }
      ],
      "stateMutability": "view",
      "type": "function"
    },
    {
      "inputs": [
        {
          "internalType": "bytes4",
          "name": "interfaceId",
          "type": "bytes4"
        }
      ],
      "name": "supportsInterface",
      "outputs": [
        {
          "internalType": "bool",
          "name": "",
          "type": "bool"
        }
      ],
      "stateMutability": "view",
      "type": "function"
    },
    {
      "inputs": [
        {
          "internalType": "address",
          "name": "to",
          "type": "address"
        },
        {
          "internalType": "bool",
          "name": "zeroForOne",
          "type": "bool"
        },
        {
          "internalType": "int256",
          "name": "amount",
          "type": "int256"
        },
        {
          "internalType": "bytes",
          "name": "data",
          "type": "bytes"
        }
      ],
      "name": "swap",
      "outputs": [
        {
          "internalType": "int256",
          "name": "",
          "type": "int256"
        },
        {
          "internalType": "int256",
          "name": "",
          "type": "int256"
        }
      ],
      "stateMutability": "nonpayable",
      "type": "function"
    },
    {
      "inputs": [],
      "name": "swapRouter",
      "outputs": [
        {
          "internalType": "address",
          "name": "",
          "type": "address"
        }
      ],
      "stateMutability": "view",
      "type": "function"
    },
    {
      "inputs": [],
      "name": "symbol",
      "outputs": [
        {
          "internalType": "string",
          "name": "",
          "type": "string"
        }
      ],
      "stateMutability": "view",
      "type": "function"
    },
    {
      "inputs": [],
      "name": "token0",
      "outputs": [
        {
          "internalType": "address",
          "name": "",
          "type": "address"
        }
      ],
      "stateMutability": "view",
      "type": "function"
    },
    {
      "inputs": [],
      "name": "token1",
      "outputs": [
        {
          "internalType": "address",
          "name": "",
          "type": "address"
        }
      ],
      "stateMutability": "view",
      "type": "function"
    },
    {
      "inputs": [
        {
          "internalType": "uint256",
          "name": "tokenId",
          "type": "uint256"
        }
      ],
      "name": "tokenURI",
      "outputs": [
        {
          "internalType": "string",
          "name": "",
          "type": "string"
        }
      ],
      "stateMutability": "view",
      "type": "function"
    },
    {
      "inputs": [
        {
          "internalType": "address",
          "name": "from",
          "type": "address"
        },
        {
          "internalType": "address",
          "name": "to",
          "type": "address"
        },
        {
          "internalType": "uint256",
          "name": "tokenId",
          "type": "uint256"
        }
      ],
      "name": "transferFrom",
      "outputs": [],
      "stateMutability": "nonpayable",
      "type": "function"
    }
  ],
  "bytecode": "0x6101406040526001600855600c805461ff0019166101001790556702c68af0bb140000600d553480156200003257600080fd5b5060405162005a2038038062005a208339810160408190526200005591620002b9565b8181818181600090805190602001906200007192919062000143565b5080516200008790600190602084019062000143565b5050600c805460608d811b6001600160601b031990811660805261ff01600160b01b0319909216620100006001600160a01b038f1602179092558a821b811660a0529089901b1660c05250505061012084905260e0839052670de0b6b3a76400005b83156200013057670de0b6b3a76400006200010d670de0e42ce52097a083620003a1565b62000119919062000380565b9050836200012781620003c3565b945050620000e9565b6101005250620004469650505050505050565b8280546200015190620003dd565b90600052602060002090601f016020900481019282620001755760008555620001c0565b82601f106200019057805160ff1916838001178555620001c0565b82800160010185558215620001c0579182015b82811115620001c0578251825591602001919060010190620001a3565b50620001ce929150620001d2565b5090565b5b80821115620001ce5760008155600101620001d3565b80516001600160a01b03811681146200020157600080fd5b919050565b600082601f83011262000217578081fd5b81516001600160401b038082111562000234576200023462000430565b604051601f8301601f19908116603f011681019082821181831017156200025f576200025f62000430565b816040528381526020925086838588010111156200027b578485fd5b8491505b838210156200029e57858201830151818301840152908201906200027f565b83821115620002af57848385830101525b9695505050505050565b600080600080600080600080610100898b031215620002d6578384fd5b620002e189620001e9565b9750620002f160208a01620001e9565b96506200030160408a01620001e9565b95506200031160608a01620001e9565b60808a015160a08b015160c08c015192975090955093506001600160401b03808211156200033d578384fd5b6200034b8c838d0162000206565b935060e08b015191508082111562000361578283fd5b50620003708b828c0162000206565b9150509295985092959890939650565b6000826200039c57634e487b7160e01b81526012600452602481fd5b500490565b6000816000190483118215151615620003be57620003be6200041a565b500290565b600081620003d557620003d56200041a565b506000190190565b600181811c90821680620003f257607f821691505b602082108114156200041457634e487b7160e01b600052602260045260246000fd5b50919050565b634e487b7160e01b600052601160045260246000fd5b634e487b7160e01b600052604160045260246000fd5b60805160601c60a05160601c60c05160601c60e05161010051610120516154cb620005556000396000818161054401528181610f160152818161101101528181611e6c01528181611ead01526132ec01526000818161038b0152818161211e0152818161236001528181612463015281816134ea0152614295015260006121960152600081816106e20152818161115f0152818161168e01528181611f320152818161295c0152612d0a0152600081816102bc01528181610b3501528181611139015281816115e601528181611f01015261292d01526000818161062301528181610a6401528181610bf3015281816114490152818161153701528181612be70152612d4101526154cb6000f3fe608060405234801561001057600080fd5b50600436106102405760003560e01c80636e664079116101375780636e664079146104c85780636f2faebf146104fe57806370a082311461051157806395d89b41146105245780639dc29fac1461052c578063a001ecdd1461053f578063a22cb46514610566578063b0d827b514610579578063b1ed252114610599578063b88d4fde146105b9578063bb2dcb60146105cc578063bbf34469146105de578063c31c9c07146105f1578063c34ff9fd1461060a578063c45a01551461061e578063c45c4f5814610645578063c6abb1d01461064d578063c846266614610660578063c87b56dd146106ca578063d21220a7146106dd578063d9895e6a14610704578063e985e9c514610799578063ea570027146107ac578063f83c3d08146107cc57600080fd5b806301ffc9a71461024557806306fdde031461026d578063081812fc14610282578063095ea7b3146102a25780630dfe1681146102b7578063158ef93e146102de57806319e7b786146102eb5780631c69ad00146102f35780631f18b37114610309578063222e2f951461033157806323b872dd1461033a578063242693d31461034d57806325ba60ec1461035857806326381025146103605780632ec0ff6c14610373578063349593a3146103865780633c50594f146103ad5780633c6d5c72146103df5780634213cd32146103ea57806342842e0e14610418578063490e6cbc1461042b5780635029f54d1461043e5780635273f2bc146104805780636352211e146104b5575b600080fd5b610258610253366004614d0e565b6107e0565b60405190151581526020015b60405180910390f35b610275610832565b6040516102649190614f06565b610295610290366004614d60565b6108c4565b6040516102649190614e5b565b6102b56102b0366004614c60565b610951565b005b6102957f000000000000000000000000000000000000000000000000000000000000000081565b600c546102589060ff1681565b6102b5610a62565b6102fb610b1b565b604051908152602001610264565b61031c610317366004614b72565b610bbf565b60408051928352602083019190915201610264565b6102fb600d5481565b6102b5610348366004614a2d565b6113fb565b600e54600f5461031c565b6008546102fb565b6102fb61036e3660046149bd565b61142c565b6102b5610381366004614c60565b611447565b6102fb7f000000000000000000000000000000000000000000000000000000000000000081565b6102fb6103bb366004614d90565b6000918252600660209081526040808420600293840b90930b845291905290205490565b60105460115461031c565b6103fd6103f8366004614be2565b6117a2565b60408051938452602084019290925290820152606001610264565b6102b5610426366004614a2d565b611e41565b6102b5610439366004614c8b565b611e5c565b61045161044c366004614d46565b6120eb565b6040805196875260208701959095529385019290925260608401526080830152151560a082015260c001610264565b610488612182565b6040805160029690960b86526020860194909452928401919091526060830152608082015260a001610264565b6102956104c3366004614d60565b612239565b6102fb6104d6366004614c60565b6001600160a01b03919091166000908152600960209081526040808320938352929052205490565b6102b561050c366004614d46565b6122b0565b6102fb61051f3660046149bd565b612527565b6102756125ae565b61031c61053a366004614c60565b6125bd565b6102fb7f000000000000000000000000000000000000000000000000000000000000000081565b6102b5610574366004614b45565b612aec565b6102fb610587366004614d60565b6000908152600b602052604090205490565b6013546105a69060020b81565b60405160029190910b8152602001610264565b6102b56105c7366004614a6d565b612bad565b600c5461025890610100900460ff1681565b6102b56105ec366004614cf1565b612be5565b600c54610295906201000090046001600160a01b031681565b6013546105a690600160301b900460020b81565b6102957f000000000000000000000000000000000000000000000000000000000000000081565b6102fb612cf0565b6102b561065b366004614d46565b612d3f565b6106a061066e366004614d46565b601260205260009081526040902080546001820154600283015460038401546004909401549293919290919060ff1685565b6040805195865260208601949094529284019190915260608301521515608082015260a001610264565b6102756106d8366004614d60565b612ef5565b6102957f000000000000000000000000000000000000000000000000000000000000000081565b61076f610712366004614d60565b6040805160608082018352600080835260208084018290529284018190529384526007825292829020825193840183528054600281810b810b810b86526301000000909104810b810b900b91840191909152600101549082015290565b604080518251600290810b825260208085015190910b908201529181015190820152606001610264565b6102586107a73660046149f5565b612fcd565b6107bf6107ba3660046149bd565b612ffb565b6040516102649190614ea2565b6013546105a6906301000000900460020b81565b60006001600160e01b031982166380ac58cd60e01b148061081157506001600160e01b03198216635b5e139f60e01b145b8061082c57506301ffc9a760e01b6001600160e01b03198316145b92915050565b6060600080546108419061535a565b80601f016020809104026020016040519081016040528092919081815260200182805461086d9061535a565b80156108ba5780601f1061088f576101008083540402835291602001916108ba565b820191906000526020600020905b81548152906001019060200180831161089d57829003601f168201915b5050505050905090565b60006108cf8261307e565b6109355760405162461bcd60e51b815260206004820152602c60248201527f4552433732313a20617070726f76656420717565727920666f72206e6f6e657860448201526b34b9ba32b73a103a37b5b2b760a11b60648201526084015b60405180910390fd5b506000908152600460205260409020546001600160a01b031690565b600061095c82612239565b9050806001600160a01b0316836001600160a01b031614156109ca5760405162461bcd60e51b815260206004820152602160248201527f4552433732313a20617070726f76616c20746f2063757272656e74206f776e656044820152603960f91b606482015260840161092c565b336001600160a01b03821614806109e657506109e68133612fcd565b610a535760405162461bcd60e51b815260206004820152603860248201527f4552433732313a20617070726f76652063616c6c6572206973206e6f74206f776044820152771b995c881b9bdc88185c1c1c9bdd995908199bdc88185b1b60421b606482015260840161092c565b610a5d838361309b565b505050565b7f00000000000000000000000000000000000000000000000000000000000000006001600160a01b031663c31c9c076040518163ffffffff1660e01b815260040160206040518083038186803b158015610abb57600080fd5b505afa158015610acf573d6000803e3d6000fd5b505050506040513d601f19601f82011682018060405250810190610af391906149d9565b600c60026101000a8154816001600160a01b0302191690836001600160a01b03160217905550565b6040516370a0823160e01b81526000906001600160a01b037f000000000000000000000000000000000000000000000000000000000000000016906370a0823190610b6a903090600401614e5b565b60206040518083038186803b158015610b8257600080fd5b505afa158015610b96573d6000803e3d6000fd5b505050506040513d601f19601f82011682018060405250810190610bba9190614d78565b905090565b600c5460009081906201000090046001600160a01b03163314610cc4576040516303f45d4160e01b81526001600160a01b037f000000000000000000000000000000000000000000000000000000000000000016906303f45d4190610c28903390600401614e5b565b60206040518083038186803b158015610c4057600080fd5b505afa158015610c54573d6000803e3d6000fd5b505050506040513d601f19601f82011682018060405250810190610c789190614cd5565b610cc45760405162461bcd60e51b815260206004820152601f60248201527f44535630504f4f4c2873776170293a206e6f745f616c6c6f776c697374656400604482015260640161092c565b60006040518060800160405280896001600160a01b03168152602001881515815260200187815260200186868080601f0160208091040260200160405190810160405280939291908181526020018383808284376000920182905250939094525050604080516101008101825260105481526011546020820152808201839052606081018390526080810183905260a0810183905260c0810183905260e08101839052601354918501519495509391925082918291829160029190910b90821315610ef2578660400151610d97906153e0565b9150866020015115610e0757600f54821115610de75760405162461bcd60e51b815260206004820152600f60248201526e504f4f4c2873776170293a2054523160881b604482015260640161092c565b600281810b900b6000908152601260205260409020600101549450610e64565b600e54821115610e4b5760405162461bcd60e51b815260206004820152600f60248201526e0504f4f4c2873776170293a2054523608c1b604482015260640161092c565b600281810b900b60009081526012602052604090205494505b84821115610ec257610e7b81886020015187613109565b610e8590856150ea565b9350610e9185836152f3565b601354602089015191935060020b9150610de757600281810b900b6000908152601260205260409020549450610e64565b610ed181886020015184613109565b610edb90856150ea565b93508660400151610eeb906153e0565b925061112b565b60008760400151131561112b57604087015191506000670de0b6b3a7640000610f3b7f00000000000000000000000000000000000000000000000000000000000000008561528d565b610f459190615102565b9050610f50826134b9565b60e08b0181905260c08b0182905260a08b0183905260808b0184905260208c0151600094610f8b9491939092610f86888b6152f3565b613522565b90505b8860200151610fa1578760800151610fa7565b8760a001515b81111561108f576020890151610fd290849080610fc8578a60800151613109565b8a60a00151613109565b610fdc90856152f3565b93508860200151610ff1578760800151610ff7565b8760a001515b61100190866150ea565b9450670de0b6b3a76400006110367f00000000000000000000000000000000000000000000000000000000000000008661528d565b6110409190615102565b60135460020b93509150611053836134b9565b60e08c0181905260c08c0182905260a08c0183905260808c0184905260208d015161108894909390929091610f86888b6152f3565b9050610f8e565b60006110a0848b6020015184613109565b9050848111156110fd5760405162461bcd60e51b815260206004820152602260248201527f504f4f4c2873776170293a2054727920646966666572656e7420616d6f756e7460448201526124a760f11b606482015260840161092c565b61110781866152f3565b945061111382876150ea565b9550848a6040015161112591906152f3565b96505050505b611187876020015161115d577f000000000000000000000000000000000000000000000000000000000000000061117f565b7f00000000000000000000000000000000000000000000000000000000000000005b88518561365d565b336001600160a01b031663482357eb88602001516111ad576111a8856153e0565b6111af565b855b89602001516111be57866111c7565b6111c7866153e0565b8e8e6040518563ffffffff1660e01b81526004016111e89493929190614ee6565b600060405180830381600087803b15801561120257600080fd5b505af1158015611216573d6000803e3d6000fd5b50505050611222610b1b565b604087015261122f612cf0565b606087015260208701511561129257855161124b9085906150ea565b866040015110158015611271575082866020015161126991906152f3565b866060015110155b61128d5760405162461bcd60e51b815260040161092c90614fa2565b6112e1565b8386602001516112a291906150ea565b8660600151101580156112c5575085516112bd9084906152f3565b866040015110155b6112e15760405162461bcd60e51b815260040161092c90614fa2565b6112f986604001518760600151601091909155601155565b611301614901565b955086602001511561138257865143906001600160a01b0316337f453be16f272d63a7cf83a171f12cdd6ec417913cb2b4f49aeeef4aefc031a72e87611346886153e0565b6040805192835260208301919091520160405180910390a4611366614946565b965083611372846153e0565b98509850505050505050506113f1565b61138a614946565b805190975043906001600160a01b0316337f453be16f272d63a7cf83a171f12cdd6ec417913cb2b4f49aeeef4aefc031a72e6113c5876153e0565b60408051918252602082018a90520160405180910390a46113e5836153e0565b98509296505050505050505b9550959350505050565b611405338261375d565b6114215760405162461bcd60e51b815260040161092c90615053565b610a5d838383613827565b6001600160a01b03166000908152600a602052604090205490565b7f00000000000000000000000000000000000000000000000000000000000000006001600160a01b0316638da5cb5b6040518163ffffffff1660e01b815260040160206040518083038186803b1580156114a057600080fd5b505afa1580156114b4573d6000803e3d6000fd5b505050506040513d601f19601f820116820180604052508101906114d891906149d9565b6001600160a01b0316336001600160a01b0316146115315760405162461bcd60e51b8152602060048201526016602482015275504f4f4c28636f6c6c656374466565293a206572723160501b604482015260640161092c565b6115cc827f00000000000000000000000000000000000000000000000000000000000000006001600160a01b031663c415b95c6040518163ffffffff1660e01b815260040160206040518083038186803b15801561158e57600080fd5b505afa1580156115a2573d6000803e3d6000fd5b505050506040513d601f19601f820116820180604052508101906115c691906149d9565b8361365d565b600e546040516370a0823160e01b81526001600160a01b037f000000000000000000000000000000000000000000000000000000000000000016906370a082319061161b903090600401614e5b565b60206040518083038186803b15801561163357600080fd5b505afa158015611647573d6000803e3d6000fd5b505050506040513d601f19601f8201168201806040525081019061166b9190614d78565b101580156117165750600f546040516370a0823160e01b81526001600160a01b037f000000000000000000000000000000000000000000000000000000000000000016906370a08231906116c3903090600401614e5b565b60206040518083038186803b1580156116db57600080fd5b505afa1580156116ef573d6000803e3d6000fd5b505050506040513d601f19601f820116820180604052508101906117139190614d78565b10155b61175b5760405162461bcd60e51b81526020600482015260166024820152752827a7a61431b7b63632b1ba2332b2949d1032b9391960511b604482015260640161092c565b816001600160a01b03167fdfeef5879c25440d1418a79a16489f0e739d22ac040c8c76f7b998fc704edeb88260405161179691815260200190565b60405180910390a25050565b600c546000908190819060ff166117fb5760405162461bcd60e51b815260206004820152601f60248201527f44535630504f4f4c286d696e74293a206e6f745f696e697469616c697a656400604482015260640161092c565b8760020b8760020b121561184b5760405162461bcd60e51b815260206004820152601760248201527644535630504f4f4c286d696e74293a20496e646578657360481b604482015260640161092c565b600060405180610100016040528060105481526020016011548152602001600081526020016000815260200160008152602001600081526020016000815260200160008152509050600860008154809291906118a6906153b1565b9190505593506118b68a856139c0565b6013546000858152600760205260409020805460028b810b62ffffff90811663010000000265ffffffffffff199093168e830b918216179290921783556001929092018a905591810b919082900b121561194857885b8a60020b8160020b126119425761192481878b6139de565b61192e90866150ea565b94508061193a81615336565b91505061190c565b50611cb8565b8060020b8960020b121561198e57895b8960020b8160020b136119425761197081878b613b57565b61197a90856150ea565b9350806119868161538f565b915050611958565b600061199b8260016150a4565b90505b8960020b8160020b136119d4576119b681878b6139de565b6119c090866150ea565b9450806119cc8161538f565b91505061199e565b5060006119e26001836152ac565b90505b8a60020b8160020b12611a1b576119fd81878b613b57565b611a0790856150ea565b935080611a1381615336565b9150506119e5565b50600281810b900b60009081526012602052604090206004015460ff16611a4557611a45816122b0565b611a4e816134b9565b60e0860181905260c0860182905260a0860183905260808601849052600093611a7a9390929091613cb3565b905060008084608001516000148015611a95575060a0850151155b15611b3a5760028560e001518660c00151611ab0919061528d565b8660c001518760e00151611ac491906152f3565b611ad6670de0b6b3a76400008f61528d565b611ae0919061528d565b611aea9190615102565b611af49190615102565b91506002670de0b6b3a76400008660c001518760e00151611b1591906152f3565b611b1f908e61528d565b611b299190615102565b611b339190615102565b9050611b75565b8285608001518c611b4b919061528d565b611b559190615102565b9150828560a001518c611b68919061528d565b611b729190615102565b90505b6000611ba9838760800151611b8a91906150ea565b838860a00151611b9a91906150ea565b8860c001518960e00151613cb3565b9050611bb583896150ea565b9750611bc182886150ea565b600286810b900b60009081526012602052604090206003015490975015611c3f5783611bed81836152f3565b600287810b900b600090815260126020526040902060030154611c10919061528d565b611c1a9190615102565b60008a815260066020908152604080832060028a810b900b8452909152902055611c62565b6000898152600660209081526040808320600289810b900b845290915290208190555b6000898152600660209081526040808320600289810b900b845282528083205460129092528220600301805491929091611c9d9084906150ea565b90915550611cb390508584846001806000613de2565b505050505b604051637b52f4f760e01b81523390637b52f4f790611ce190879087908c908c90600401614ee6565b600060405180830381600087803b158015611cfb57600080fd5b505af1158015611d0f573d6000803e3d6000fd5b50505050611d1b610b1b565b6040830152611d28612cf0565b60608301528151611d3a9085906150ea565b826040015110158015611d605750828260200151611d5891906150ea565b826060015110155b611dac5760405162461bcd60e51b815260206004820181905260248201527f504f4f4c286d696e74293a2042414c414e4345535f4152455f544f4f5f4c4f57604482015260640161092c565b6040805133815260208101879052908101899052606081018590526080810184905260028a810b91908c900b906001600160a01b038e16907f0ef23dbed0ea024864438901c1124e19c53127c263e6d85a0b217e55d1f8b8169060a00160405180910390a4611e2982604001518360600151601091909155601155565b611e31614901565b9150505096509650969350505050565b610a5d83838360405180602001604052806000815250612bad565b6000670de0b6b3a7640000611e917f00000000000000000000000000000000000000000000000000000000000000008761528d565b611e9b9190615102565b90506000670de0b6b3a7640000611ed27f00000000000000000000000000000000000000000000000000000000000000008761528d565b611edc9190615102565b90506000611ee8610b1b565b90506000611ef4612cf0565b90508715611f2757611f277f00000000000000000000000000000000000000000000000000000000000000008a8a61365d565b8615611f5857611f587f00000000000000000000000000000000000000000000000000000000000000008a8961365d565b604051630e19c67d60e01b81523390630e19c67d90611f8190879087908b908b90600401614ee6565b600060405180830381600087803b158015611f9b57600080fd5b505af1158015611faf573d6000803e3d6000fd5b505050506000611fbd610b1b565b90506000611fc9612cf0565b905081611fd687866150ea565b11156120165760405162461bcd60e51b815260206004820152600f60248201526e0504f4f4c28666c617368293a20463608c1b604482015260640161092c565b8061202186856150ea565b11156120615760405162461bcd60e51b815260206004820152600f60248201526e504f4f4c28666c617368293a20463160881b604482015260640161092c565b600061206d85846152f3565b9050600061207b85846152f3565b601085905560118490559050604080518d8152602081018d9052908101839052606081018290526001600160a01b038e169033907fbdbdb71d7860376ba52b25a5028beea23581364a40522f6bcfb86bb1f2dca6339060800160405180910390a350505050505050505050505050565b600281810b810b600090815260126020526040812080546001820154919093015490918080670de0b6b3a76400006121437f00000000000000000000000000000000000000000000000000000000000000008661528d565b61214d9190615102565b600297880b90970b600090815260126020526040902060038101546004909101549698959794969495909460ff169350915050565b60135460009081908190819081906121be907f00000000000000000000000000000000000000000000000000000000000000009060020b615204565b94506000806000806121cf896134b9565b93509350935093506121e384848484613cb3565b9650806121f8670de0b6b3a76400008961528d565b6122029190615102565b61220c90856150ea565b61221e670de0b6b3a76400008961528d565b6122289190615102565b989996975092959194509092505050565b6000818152600260205260408120546001600160a01b03168061082c5760405162461bcd60e51b815260206004820152602960248201527f4552433732313a206f776e657220717565727920666f72206e6f6e657869737460448201526832b73a103a37b5b2b760b91b606482015260840161092c565b600281810b900b60009081526012602052604090206004015460ff161561230f5760405162461bcd60e51b8152602060048201526013602482015272504f4f4c286163746976617465293a2050414160681b604482015260640161092c565b60135463010000009004600290810b810b9082900b131561241a57601354600090612345906301000000900460020b60016150a4565b90505b8160020b8160020b136123f657670de0b6b3a76400007f00000000000000000000000000000000000000000000000000000000000000006012600061238e6001866152ac565b60020b60020b8152602001908152602001600020600201546123b0919061528d565b6123ba9190615102565b600282810b810b600090815260126020526040902090810191909155600401805460ff19166001179055806123ee8161538f565b915050612348565b506013805465ffffff0000001916630100000062ffffff600285900b160217905550565b601354600160301b9004600290810b810b9082900b12156125245760135460009061245190600190600160301b900460020b6152ac565b90505b8160020b8160020b12612502577f0000000000000000000000000000000000000000000000000000000000000000670de0b6b3a76400006012600061249a8560016150a4565b60020b60020b8152602001908152602001600020600201546124bc919061528d565b6124c69190615102565b600282810b810b600090815260126020526040902090810191909155600401805460ff19166001179055806124fa81615336565b915050612454565b506013805462ffffff60301b1916600160301b62ffffff600285900b16021790555b50565b60006001600160a01b0382166125925760405162461bcd60e51b815260206004820152602a60248201527f4552433732313a2062616c616e636520717565727920666f7220746865207a65604482015269726f206164647265737360b01b606482015260840161092c565b506001600160a01b031660009081526003602052604090205490565b6060600180546108419061535a565b6000806125c98361307e565b6126055760405162461bcd60e51b815260206004820152600d60248201526c0504f4f4c286275726e293a203609c1b604482015260640161092c565b61260e83612239565b6001600160a01b0316336001600160a01b03161461269257612630338461375d565b61266c5760405162461bcd60e51b815260206004820152600d60248201526c504f4f4c286275726e293a203160981b604482015260640161092c565b61267583612239565b6001600160a01b0316326001600160a01b03161461269257600080fd5b604080516101008101825260105481526011546020808301919091526000828401819052606083018190526080830181905260a0830181905260c0830181905260e08301819052601354878252600790925292909220549091600290810b9163010000008104820b9190810b9083810b9083900b121561275357815b8160020b8160020b1261274d57612727818960016140d3565b8560800181815161273891906150ea565b9052508061274581615336565b91505061270e565b50612928565b8260020b8160020b13156127a257805b8260020b8160020b1361274d5761277c818960006140d3565b8560a00181815161278d91906150ea565b9052508061279a8161538f565b915050612763565b815b8360020b8160020b13156127e4576127be818960016140d3565b856080018181516127cf91906150ea565b905250806127dc81615336565b9150506127a4565b50805b8360020b8160020b121561282757612801818960006140d3565b8560a00181815161281291906150ea565b9052508061281f8161538f565b9150506127e7565b506000878152600660209081526040808320600287810b900b84528252808320805490849055601290925290912060038101549054612866908361528d565b6128709190615102565b60c0860152600284810b900b6000908152601260205260409020600381015460019091015461289f908361528d565b6128a99190615102565b60e086015260c08501516080860180516128c49083906150ea565b90525060e085015160a0860180516128dd9083906150ea565b90525060c085015160e08601516128f991869160008080613de2565b600284810b900b600090815260126020526040812060030180548392906129219084906152f3565b9091555050505b6129577f000000000000000000000000000000000000000000000000000000000000000089866080015161365d565b6129867f0000000000000000000000000000000000000000000000000000000000000000898660a0015161365d565b61298e610b1b565b604085015261299b612cf0565b6060850152608084015184516129b191906152f3565b8460400151101580156129db57508360a0015184602001516129d391906152f3565b846060015110155b612a275760405162461bcd60e51b815260206004820181905260248201527f504f4f4c286275726e293a2042414c414e4345535f4152455f544f305f4c4f57604482015260640161092c565b8160020b8160020b612a3889612239565b6001600160a01b03167f0b557284304b8283f8be757e1a8cea2735fc957b7a9c6936c41bffd3dae646d58b8b89608001518a60a00151604051612a9f94939291906001600160a01b0394909416845260208401929092526040830152606082015260800190565b60405180910390a4612ab0876141c2565b612ac884604001518560600151601091909155601155565b608084015160a0850151612ada614901565b509096509450505050505b9250929050565b6001600160a01b038216331415612b415760405162461bcd60e51b815260206004820152601960248201527822a9219b99189d1030b8383937bb32903a379031b0b63632b960391b604482015260640161092c565b3360008181526005602090815260408083206001600160a01b03871680855290835292819020805460ff191686151590811790915590519081529192917f17307eab39ab6107e8899845ad3d59bd9653f200f220920489ca2b5937696c31910160405180910390a35050565b612bb7338361375d565b612bd35760405162461bcd60e51b815260040161092c90615053565b612bdf84848484614257565b50505050565b7f00000000000000000000000000000000000000000000000000000000000000006001600160a01b0316638da5cb5b6040518163ffffffff1660e01b815260040160206040518083038186803b158015612c3e57600080fd5b505afa158015612c52573d6000803e3d6000fd5b505050506040513d601f19601f82011682018060405250810190612c7691906149d9565b6001600160a01b0316336001600160a01b031614612cd25760405162461bcd60e51b81526020600482015260196024820152782827a7a61439b2b9283937ba37b1b7b62332b2949d1032b93960391b604482015260640161092c565b600c80549215156101000261ff001990931692909217909155600d55565b6040516370a0823160e01b81526000906001600160a01b037f000000000000000000000000000000000000000000000000000000000000000016906370a0823190610b6a903090600401614e5b565b7f00000000000000000000000000000000000000000000000000000000000000006001600160a01b0316638da5cb5b6040518163ffffffff1660e01b815260040160206040518083038186803b158015612d9857600080fd5b505afa158015612dac573d6000803e3d6000fd5b505050506040513d601f19601f82011682018060405250810190612dd091906149d9565b6001600160a01b0316336001600160a01b031614612e295760405162461bcd60e51b8152602060048201526016602482015275504f4f4c28696e697469616c697a65293a206572723160501b604482015260640161092c565b600c5460ff1615612e765760405162461bcd60e51b81526020600482015260176024820152762827a7a61434b734ba34b0b634bd32b2149d1032b9391960491b604482015260640161092c565b612e7f8161428a565b600291820b80830b60009081526012602052604090209283019190915560049091018054600160ff199182168117909255600c805490911690911790556013805465ffffffffffff191662ffffff909216918217630100000083021762ffffff60301b1916600160301b92909202919091179055565b6060612f008261307e565b612f645760405162461bcd60e51b815260206004820152602f60248201527f4552433732314d657461646174613a2055524920717565727920666f72206e6f60448201526e3732bc34b9ba32b73a103a37b5b2b760891b606482015260840161092c565b6000612f7b60408051602081019091526000815290565b90506000815111612f9b5760405180602001604052806000815250612fc6565b80612fa584614335565b604051602001612fb6929190614e2c565b6040516020818303038152906040525b9392505050565b6001600160a01b03918216600090815260056020908152604080832093909416825291909152205460ff1690565b606060006130088361142c565b905060015b818111613077576001600160a01b0384166000908152600960209081526040808320848452909152902054835184908390811061305a57634e487b7160e01b600052603260045260246000fd5b60209081029190910101528061306f816153b1565b91505061300d565b5050919050565b6000908152600260205260409020546001600160a01b0316151590565b600081815260046020526040902080546001600160a01b0319166001600160a01b03841690811790915581906130d082612239565b6001600160a01b03167f8c5be1e5ebec7d5bd14f71427d1e84f3dd0314c0f7b2291e5b200ac8c7c3b92560405160405180910390a45050565b60008082116131715760405162461bcd60e51b815260206004820152602e60248201527f44535630504f4f4c2873776170496e52616e6765293a2074727920646966666560448201526d3932b73a1030b6b7bab73a1024a760911b606482015260840161092c565b601354600285810b91810b900b146131c75760405162461bcd60e51b815260206004820152601960248201527844535630504f4f4c2873776170496e52616e6765293a20574960381b604482015260640161092c565b600060405180610100016040528060105481526020016011548152602001600081526020016000815260200160008152602001600081526020016000815260200160008152509050613218856134b9565b60e085015260c084015260a0830152608082015283801561323d57508060a001518311155b80613255575083158015613255575080608001518311155b6132ba5760405162461bcd60e51b815260206004820152603060248201527f44535630504f4f4c2873776170496e52616e6765293a20494e5355464649434960448201526f454e545f504f534954494f4e5f4c495160801b606482015260840161092c565b60006132da8583608001518460a001518560c001518660e001518961444e565b90506000670de0b6b3a76400006133117f00000000000000000000000000000000000000000000000000000000000000008461528d565b61331b9190615102565b905061332781836150ea565b600c54909450610100900460ff161561336857670de0b6b3a7640000600d5482613351919061528d565b61335b9190615102565b61336590856152f3565b91505b85156134145761338a83608001518460a001518560c001518660e00151613cb3565b6133bc83856080015161339d91906150ea565b878660a001516133ad91906152f3565b8660c001518760e00151613cb3565b10156133da5760405162461bcd60e51b815260040161092c90614fd7565b8260a001518511156133fe5760405162461bcd60e51b815260040161092c90614f6b565b61340f878387600160006001613de2565b6134a5565b61343083608001518460a001518560c001518660e00151613cb3565b61345386856080015161344391906152f3565b848660a001516133ad91906150ea565b10156134715760405162461bcd60e51b815260040161092c90614fd7565b82608001518511156134955760405162461bcd60e51b815260040161092c90614f6b565b6134a58786846000600180613de2565b6134ad614901565b92505050509392505050565b600281810b810b60009081526012602052604081208054600182015491909301549091670de0b6b3a764000061350f7f00000000000000000000000000000000000000000000000000000000000000008461528d565b6135199190615102565b90509193509193565b60008061353187878787613cb3565b9050600081116135535760405162461bcd60e51b815260040161092c90615024565b87156135d857828461356d670de0b6b3a76400008461528d565b6135779190615102565b61358190896150ea565b61358b91906150ea565b613595828061528d565b61359f9190615102565b670de0b6b3a76400006135b2878461528d565b6135bc9190615102565b6135c690886150ea565b6135d091906152f3565b915050613653565b82670de0b6b3a76400006135ec878461528d565b6135f69190615102565b61360090886150ea565b61360a91906150ea565b613614828061528d565b61361e9190615102565b84613631670de0b6b3a76400008461528d565b61363b9190615102565b61364590896150ea565b61364f91906152f3565b9150505b9695505050505050565b604080516001600160a01b038481166024830152604480830185905283518084039091018152606490920183526020820180516001600160e01b031663a9059cbb60e01b17905291516000928392908716916136b99190614e10565b6000604051808303816000865af19150503d80600081146136f6576040519150601f19603f3d011682016040523d82523d6000602084013e6136fb565b606091505b50915091508180156137255750805115806137255750808060200190518101906137259190614cd5565b6137565760405162461bcd60e51b815260206004820152600260248201526114d560f21b604482015260640161092c565b5050505050565b60006137688261307e565b6137c95760405162461bcd60e51b815260206004820152602c60248201527f4552433732313a206f70657261746f7220717565727920666f72206e6f6e657860448201526b34b9ba32b73a103a37b5b2b760a11b606482015260840161092c565b60006137d483612239565b9050806001600160a01b0316846001600160a01b0316148061380f5750836001600160a01b0316613804846108c4565b6001600160a01b0316145b8061381f575061381f8185612fcd565b949350505050565b826001600160a01b031661383a82612239565b6001600160a01b0316146138a25760405162461bcd60e51b815260206004820152602960248201527f4552433732313a207472616e73666572206f6620746f6b656e2074686174206960448201526839903737ba1037bbb760b91b606482015260840161092c565b6001600160a01b0382166139045760405162461bcd60e51b8152602060048201526024808201527f4552433732313a207472616e7366657220746f20746865207a65726f206164646044820152637265737360e01b606482015260840161092c565b61390f838383614541565b61391a60008261309b565b6001600160a01b03831660009081526003602052604081208054600192906139439084906152f3565b90915550506001600160a01b03821660009081526003602052604081208054600192906139719084906150ea565b909155505060008181526002602052604080822080546001600160a01b0319166001600160a01b03868116918217909255915184939187169160008051602061547683398151915291a4505050565b6139da82826040518060200160405280600081525061462e565b5050565b600283810b900b60009081526012602052604081206004015460ff16613a0757613a07846122b0565b6000806000613a15876134b9565b935093505092508082613a28919061528d565b613a3283836152f3565b613a44670de0b6b3a76400008861528d565b613a4e919061528d565b613a589190615102565b600288810b900b60009081526012602052604090206003015490945015613ace57600287810b900b6000908152601260205260409020600301548390613a9f90869061528d565b613aa99190615102565b600087815260066020908152604080832060028c810b900b8452909152902055613afc565b613adb8460008484613cb3565b600087815260066020908152604080832060028c810b900b84529091529020555b600086815260066020908152604080832060028b810b900b845282528083205460129092528220600301805491929091613b379084906150ea565b90915550613b4d90508785600060018082613de2565b5050509392505050565b600283810b900b60009081526012602052604081206004015460ff16613b8057613b80846122b0565b6000806000613b8e876134b9565b93509350935050670de0b6b3a76400008282613baa91906152f3565b613bb4908761528d565b613bbe9190615102565b600288810b900b60009081526012602052604090206003015490945015613c3457600287810b900b6000908152601260205260409020600301548390613c0590869061528d565b613c0f9190615102565b600087815260066020908152604080832060028c810b900b8452909152902055613c62565b613c416000858484613cb3565b600087815260066020908152604080832060028c810b900b84529091529020555b600086815260066020908152604080832060028b810b900b845282528083205460129092528220600301805491929091613c9d9084906150ea565b90915550613b4d90508760008660018083613de2565b60008082613cc9670de0b6b3a76400008761528d565b613cd39190615102565b670de0b6b3a7640000613ce6868961528d565b613cf09190615102565b613cfa91906150ea565b90506000613d74670de0b6b3a764000085613d15828961528d565b613d1f9190615102565b613d3190670de0b6b3a76400006152f3565b613d3b898b61528d565b613d45919061528d565b613d4f9190615102565b613d5a90600461528d565b613d65600285615159565b613d6f91906150ea565b614661565b905083613d8986670de0b6b3a764000061528d565b613d939190615102565b613da590670de0b6b3a76400006152f3565b613db090600261528d565b670de0b6b3a7640000613dc383856150ea565b613dcd919061528d565b613dd79190615102565b979650505050505050565b82613e0d57600286810b900b600090815260126020526040902054613e089086906152f3565b613e2e565b600286810b900b600090815260126020526040902054613e2e9086906150ea565b600287810b900b60009081526012602052604090205581613e7257600286810b900b600090815260126020526040902060010154613e6d9085906152f3565b613e96565b600286810b900b600090815260126020526040902060010154613e969085906150ea565b600287810b900b60009081526012602052604090206001015582613ec75784600e54613ec291906152f3565b613ed5565b84600e54613ed591906150ea565b600e5581613ef05783600f54613eeb91906152f3565b613efe565b83600f54613efe91906150ea565b600f5580156140cb57600286810b900b600090815260126020526040902054158015613f5857506013546000906012908290613f3e9060020b60016150a4565b60020b60020b815260200190815260200160002060000154115b8015613f6e5750601354600287810b91810b900b145b15613fe7576013805460020b906000613f868361538f565b91906101000a81548162ffffff021916908360020b62ffffff16021790555050856001613fb391906150a4565b60020b8660020b7fd574b3e557912c2f77746e9b82d60793270e94af3c27d050f3ac93fb8bbd47ac60405160405180910390a35b600286810b900b60009081526012602052604090206001015415801561403c575060135460009060129082906140229060019060020b6152ac565b60020b60020b815260200190815260200160002060010154115b80156140525750601354600287810b91810b900b145b156140cb576013805460020b90600061406a83615336565b91906101000a81548162ffffff021916908360020b62ffffff1602179055505060018661409791906152ac565b60020b8660020b7fd574b3e557912c2f77746e9b82d60793270e94af3c27d050f3ac93fb8bbd47ac60405160405180910390a35b505050505050565b6000828152600660209081526040808320600287810b900b84529091528120805490829055821561414557600285810b900b600090815260126020526040902060038101549054614124908361528d565b61412e9190615102565b91506141408583600080600080613de2565b61418c565b600285810b900b6000908152601260205260409020600381015460019091015461416f908361528d565b6141799190615102565b915061418c856000846000806000613de2565b600285810b900b600090815260126020526040812060030180548392906141b49084906152f3565b909155509195945050505050565b60006141cd82612239565b90506141db81600084614541565b6141e660008361309b565b6001600160a01b038116600090815260036020526040812080546001929061420f9084906152f3565b909155505060008281526002602052604080822080546001600160a01b0319169055518391906001600160a01b03841690600080516020615476833981519152908390a45050565b614262848484613827565b61426e848484846146cb565b612bdf5760405162461bcd60e51b815260040161092c90614f19565b670de0b6b3a76400007f00000000000000000000000000000000000000000000000000000000000000005b60008360020b13156142f257670de0b6b3a76400006142d4828461528d565b6142de9190615102565b9150826142ea81615336565b9350506142b5565b60008360020b121561432f5780614311670de0b6b3a76400008461528d565b61431b9190615102565b9150826143278161538f565b9350506142f2565b50919050565b6060816143595750506040805180820190915260018152600360fc1b602082015290565b8160005b8115614383578061436d816153b1565b915061437c9050600a83615102565b915061435d565b6000816001600160401b038111156143ab57634e487b7160e01b600052604160045260246000fd5b6040519080825280601f01601f1916602001820160405280156143d5576020820181803683370190505b5090505b841561381f576143ea6001836152f3565b91506143f7600a866153cc565b6144029060306150ea565b60f81b81838151811061442557634e487b7160e01b600052603260045260246000fd5b60200101906001600160f81b031916908160001a905350614447600a86615102565b94506143d9565b60008061445d87878787613cb3565b90506000811161447f5760405162461bcd60e51b815260040161092c90615024565b87156144f25783614498670de0b6b3a76400008361528d565b6144a29190615102565b6144ac90886150ea565b83670de0b6b3a76400006144c0888561528d565b6144ca9190615102565b6144d490896150ea565b6144de91906152f3565b6144e8838061528d565b6135c69190615102565b670de0b6b3a7640000614505868361528d565b61450f9190615102565b61451990876150ea565b838561452d670de0b6b3a76400008561528d565b6145379190615102565b6144d4908a6150ea565b6000818152600b60209081526040808320546001600160a01b038088168552600984528285208286529093529083209290925583161561461a576001600160a01b0383166000908152600a60205260408120805490826145a0836153b1565b909155509050806145e457806145b5816153b1565b6001600160a01b0386166000908152600a6020526040812080549294509192506145de836153b1565b91905055505b6001600160a01b03841660009081526009602090815260408083208484528252808320869055858352600b909152902055612bdf565b506000908152600b60205260408120555050565b61463883836147d5565b61464560008484846146cb565b610a5d5760405162461bcd60e51b815260040161092c90614f19565b600060038211156146bc575080600061467b600283615102565b6146869060016150ea565b90505b8181101561432f579050806002816146a18186615102565b6146ab91906150ea565b6146b59190615102565b9050614689565b81156146c6575060015b919050565b60006001600160a01b0384163b156147cd57604051630a85bd0160e11b81526001600160a01b0385169063150b7a029061470f903390899088908890600401614e6f565b602060405180830381600087803b15801561472957600080fd5b505af1925050508015614759575060408051601f3d908101601f1916820190925261475691810190614d2a565b60015b6147b3573d808015614787576040519150601f19603f3d011682016040523d82523d6000602084013e61478c565b606091505b5080516147ab5760405162461bcd60e51b815260040161092c90614f19565b805181602001fd5b6001600160e01b031916630a85bd0160e11b14905061381f565b50600161381f565b6001600160a01b03821661482b5760405162461bcd60e51b815260206004820181905260248201527f4552433732313a206d696e7420746f20746865207a65726f2061646472657373604482015260640161092c565b6148348161307e565b156148805760405162461bcd60e51b815260206004820152601c60248201527b115490cdcc8c4e881d1bdad95b88185b1c9958591e481b5a5b9d195960221b604482015260640161092c565b61488c60008383614541565b6001600160a01b03821660009081526003602052604081208054600192906148b59084906150ea565b909155505060008181526002602052604080822080546001600160a01b0319166001600160a01b0386169081179091559051839290600080516020615476833981519152908290a45050565b60405180610100016040528060008152602001600081526020016000815260200160008152602001600081526020016000815260200160008152602001600081525090565b604080516080810182526000808252602082018190529181019190915260608082015290565b60008083601f84011261497d578182fd5b5081356001600160401b03811115614993578182fd5b602083019150836020828501011115612ae557600080fd5b8035600281900b81146146c657600080fd5b6000602082840312156149ce578081fd5b8135612fc68161543c565b6000602082840312156149ea578081fd5b8151612fc68161543c565b60008060408385031215614a07578081fd5b8235614a128161543c565b91506020830135614a228161543c565b809150509250929050565b600080600060608486031215614a41578081fd5b8335614a4c8161543c565b92506020840135614a5c8161543c565b929592945050506040919091013590565b60008060008060808587031215614a82578081fd5b8435614a8d8161543c565b93506020850135614a9d8161543c565b92506040850135915060608501356001600160401b0380821115614abf578283fd5b818701915087601f830112614ad2578283fd5b813581811115614ae457614ae4615426565b604051601f8201601f19908116603f01168101908382118183101715614b0c57614b0c615426565b816040528281528a6020848701011115614b24578586fd5b82602086016020830137918201602001949094529598949750929550505050565b60008060408385031215614b57578182fd5b8235614b628161543c565b91506020830135614a2281615451565b600080600080600060808688031215614b89578081fd5b8535614b948161543c565b94506020860135614ba481615451565b93506040860135925060608601356001600160401b03811115614bc5578182fd5b614bd18882890161496c565b969995985093965092949392505050565b60008060008060008060a08789031215614bfa578081fd5b8635614c058161543c565b9550614c13602088016149ab565b9450614c21604088016149ab565b93506060870135925060808701356001600160401b03811115614c42578182fd5b614c4e89828a0161496c565b979a9699509497509295939492505050565b60008060408385031215614c72578182fd5b8235614c7d8161543c565b946020939093013593505050565b600080600080600060808688031215614ca2578283fd5b8535614cad8161543c565b9450602086013593506040860135925060608601356001600160401b03811115614bc5578182fd5b600060208284031215614ce6578081fd5b8151612fc681615451565b60008060408385031215614d03578182fd5b8235614c7d81615451565b600060208284031215614d1f578081fd5b8135612fc68161545f565b600060208284031215614d3b578081fd5b8151612fc68161545f565b600060208284031215614d57578081fd5b612fc6826149ab565b600060208284031215614d71578081fd5b5035919050565b600060208284031215614d89578081fd5b5051919050565b60008060408385031215614da2578182fd5b82359150614db2602084016149ab565b90509250929050565b81835281816020850137506000828201602090810191909152601f909101601f19169091010190565b60008151808452614dfc81602086016020860161530a565b601f01601f19169290920160200192915050565b60008251614e2281846020870161530a565b9190910192915050565b60008351614e3e81846020880161530a565b835190830190614e5281836020880161530a565b01949350505050565b6001600160a01b0391909116815260200190565b6001600160a01b038581168252841660208201526040810183905260806060820181905260009061365390830184614de4565b6020808252825182820181905260009190848201906040850190845b81811015614eda57835183529284019291840191600101614ebe565b50909695505050505050565b848152836020820152606060408201526000613653606083018486614dbb565b602081526000612fc66020830184614de4565b60208082526032908201527f4552433732313a207472616e7366657220746f206e6f6e20455243373231526560408201527131b2b4bb32b91034b6b83632b6b2b73a32b960711b606082015260800190565b6020808252601d908201527f504f4f4c2873776170496e52616e6765293a2045546654206572726f72000000604082015260600190565b6020808252818101527f504f4f4c2873776170293a2042414c414e4345535f4152455f54304f5f4c4f57604082015260600190565b6020808252602d908201527f504f4f4c2873776170496e52616e6765293a204c49515f434f4546464943494560408201526c4e545f49535f544f4f5f4c4f5760981b606082015260800190565b60208082526015908201527454727920646966666572656e7420616d6f756e747360581b604082015260600190565b60208082526031908201527f4552433732313a207472616e736665722063616c6c6572206973206e6f74206f6040820152701ddb995c881b9bdc88185c1c1c9bdd9959607a1b606082015260800190565b60008160020b8360020b82821282627fffff038213811516156150c9576150c96153fa565b82627fffff190382128116156150e1576150e16153fa565b50019392505050565b600082198211156150fd576150fd6153fa565b500190565b60008261511157615111615410565b500490565b600181815b80851115615151578160001904821115615137576151376153fa565b8085161561514457918102915b93841c939080029061511b565b509250929050565b6000612fc660ff8416836000826151725750600161082c565b8161517f5750600061082c565b8160018114615195576002811461519f576151bb565b600191505061082c565b60ff8411156151b0576151b06153fa565b50506001821b61082c565b5060208310610133831016604e8410600b84101617156151de575081810a61082c565b6151e88383615116565b80600019048211156151fc576151fc6153fa565b029392505050565b60008160020b8360020b627fffff8382138484138383048511828216161561522e5761522e6153fa565b627fffff198685128281168783058712161561524c5761524c6153fa565b878712925085820587128484161615615267576152676153fa565b8585058712818416161561527d5761527d6153fa565b5050509290910295945050505050565b60008160001904831182151516156152a7576152a76153fa565b500290565b60008160020b8360020b82811281627fffff19018312811516156152d2576152d26153fa565b81627fffff0183138116156152e9576152e96153fa565b5090039392505050565b600082821015615305576153056153fa565b500390565b60005b8381101561532557818101518382015260200161530d565b83811115612bdf5750506000910152565b60008160020b627fffff19811415615350576153506153fa565b6000190192915050565b600181811c9082168061536e57607f821691505b6020821081141561432f57634e487b7160e01b600052602260045260246000fd5b60008160020b627fffff8114156153a8576153a86153fa565b60010192915050565b60006000198214156153c5576153c56153fa565b5060010190565b6000826153db576153db615410565b500690565b6000600160ff1b8214156153f6576153f66153fa565b0390565b634e487b7160e01b600052601160045260246000fd5b634e487b7160e01b600052601260045260246000fd5b634e487b7160e01b600052604160045260246000fd5b6001600160a01b038116811461252457600080fd5b801515811461252457600080fd5b6001600160e01b03198116811461252457600080fdfeddf252ad1be2c89b69c2b068fc378daa952ba7f163c4a11628f55a4df523b3efa2646970667358221220ef8304f6159bbee07d126c8e8790476f25cc1a8ea764a7fcf91c681ad8032d8164736f6c63430008040033",
  "linkReferences": {},
  "deployedLinkReferences": {}
}