{
  "_format": "hh-sol-artifact-1",
  "contractName": "LiquidityManager",
  "sourceName": "contracts/LiquidityManager.sol",
  "abi": [
    {
      "inputs": [
        {
          "internalType": "address",
          "name": "_factory",
          "type": "address"
        },
        {
          "internalType": "address",
          "name": "_WETH9",
          "type": "address"
        }
      ],
      "stateMutability": "nonpayable",
      "type": "constructor"
    },
    {
      "anonymous": false,
      "inputs": [
        {
          "indexed": true,
          "internalType": "address",
          "name": "recipient",
          "type": "address"
        },
        {
          "indexed": true,
          "internalType": "address",
          "name": "pool",
          "type": "address"
        },
        {
          "indexed": false,
          "internalType": "uint256",
          "name": "ticketId",
          "type": "uint256"
        }
      ],
      "name": "Redeem",
      "type": "event"
    },
    {
      "anonymous": false,
      "inputs": [
        {
          "indexed": true,
          "internalType": "address",
          "name": "recipient",
          "type": "address"
        },
        {
          "indexed": true,
          "internalType": "address",
          "name": "pool",
          "type": "address"
        },
        {
          "indexed": false,
          "internalType": "uint256",
          "name": "ticketId",
          "type": "uint256"
        }
      ],
      "name": "Supply",
      "type": "event"
    },
    {
      "inputs": [],
      "name": "WETH9",
      "outputs": [
        {
          "internalType": "address",
          "name": "",
          "type": "address"
        }
      ],
      "stateMutability": "view",
      "type": "function"
    },
    {
      "inputs": [
        {
          "internalType": "uint256",
          "name": "amount0Owed",
          "type": "uint256"
        },
        {
          "internalType": "uint256",
          "name": "amount1Owed",
          "type": "uint256"
        },
        {
          "internalType": "bytes",
          "name": "data",
          "type": "bytes"
        }
      ],
      "name": "desireSwapV0MintCallback",
      "outputs": [],
      "stateMutability": "nonpayable",
      "type": "function"
    },
    {
      "inputs": [],
      "name": "factory",
      "outputs": [
        {
          "internalType": "address",
          "name": "",
          "type": "address"
        }
      ],
      "stateMutability": "view",
      "type": "function"
    },
    {
      "inputs": [],
      "name": "refundETH",
      "outputs": [],
      "stateMutability": "payable",
      "type": "function"
    },
    {
      "inputs": [
        {
          "components": [
            {
              "internalType": "address",
              "name": "token0",
              "type": "address"
            },
            {
              "internalType": "address",
              "name": "token1",
              "type": "address"
            },
            {
              "internalType": "uint256",
              "name": "fee",
              "type": "uint256"
            },
            {
              "internalType": "int24",
              "name": "lowestRangeIndex",
              "type": "int24"
            },
            {
              "internalType": "int24",
              "name": "highestRangeIndex",
              "type": "int24"
            },
            {
              "internalType": "uint256",
              "name": "liqToAdd",
              "type": "uint256"
            },
            {
              "internalType": "uint256",
              "name": "amount0Max",
              "type": "uint256"
            },
            {
              "internalType": "uint256",
              "name": "amount1Max",
              "type": "uint256"
            },
            {
              "internalType": "address",
              "name": "recipient",
              "type": "address"
            },
            {
              "internalType": "uint256",
              "name": "deadline",
              "type": "uint256"
            }
          ],
          "internalType": "struct ILiquidityManager.SupplyParams",
          "name": "params",
          "type": "tuple"
        }
      ],
      "name": "supply",
      "outputs": [
        {
          "internalType": "address",
          "name": "poolAddress",
          "type": "address"
        },
        {
          "internalType": "uint256",
          "name": "ticketId",
          "type": "uint256"
        },
        {
          "internalType": "uint256",
          "name": "amount0",
          "type": "uint256"
        },
        {
          "internalType": "uint256",
          "name": "amount1",
          "type": "uint256"
        }
      ],
      "stateMutability": "payable",
      "type": "function"
    },
    {
      "inputs": [
        {
          "internalType": "address",
          "name": "token",
          "type": "address"
        },
        {
          "internalType": "uint256",
          "name": "amountMinimum",
          "type": "uint256"
        },
        {
          "internalType": "address",
          "name": "recipient",
          "type": "address"
        }
      ],
      "name": "sweepToken",
      "outputs": [],
      "stateMutability": "payable",
      "type": "function"
    },
    {
      "inputs": [
        {
          "internalType": "uint256",
          "name": "amountMinimum",
          "type": "uint256"
        },
        {
          "internalType": "address",
          "name": "recipient",
          "type": "address"
        }
      ],
      "name": "unwrapWETH9",
      "outputs": [],
      "stateMutability": "payable",
      "type": "function"
    },
    {
      "stateMutability": "payable",
      "type": "receive"
    }
  ],
  "bytecode": "0x60c060405234801561001057600080fd5b5060405161159338038061159383398101604081905261002f91610069565b6001600160601b0319606092831b8116608052911b1660a05261009b565b80516001600160a01b038116811461006457600080fd5b919050565b6000806040838503121561007b578182fd5b6100848361004d565b91506100926020840161004d565b90509250929050565b60805160601c60a05160601c6114966100fd600039600081816074015281816101060152818161020e015281816102f60152818161094a015281816109900152610a160152600081816101700152818161037e01526104d601526114966000f3fe6080604052600436106100645760003560e01c806312210e8a146100d957806349404b7c146100e15780634aa4a4fc146100f45780637b52f4f71461013e578063c45a01551461015e578063c9d5d9e814610192578063df2ab5bb146101cf57600080fd5b366100d457336001600160a01b037f000000000000000000000000000000000000000000000000000000000000000016146100d25760405162461bcd60e51b81526020600482015260096024820152684e6f7420574554483960b81b60448201526064015b60405180910390fd5b005b600080fd5b6100d26101e2565b6100d26100ef366004611174565b6101f4565b34801561010057600080fd5b506101287f000000000000000000000000000000000000000000000000000000000000000081565b6040516101359190611292565b60405180910390f35b34801561014a57600080fd5b506100d26101593660046111a3565b610369565b34801561016a57600080fd5b506101287f000000000000000000000000000000000000000000000000000000000000000081565b6101a56101a0366004611144565b610400565b604080516001600160a01b0390951685526020850193909352918301526060820152608001610135565b6100d26101dd36600461101d565b6107a7565b47156101f2576101f23347610884565b565b6040516370a0823160e01b81526000906001600160a01b037f000000000000000000000000000000000000000000000000000000000000000016906370a0823190610243903090600401611292565b60206040518083038186803b15801561025b57600080fd5b505afa15801561026f573d6000803e3d6000fd5b505050506040513d601f19601f82011682018060405250810190610293919061115c565b9050828110156102da5760405162461bcd60e51b8152602060048201526012602482015271496e73756666696369656e7420574554483960701b60448201526064016100c9565b801561036457604051632e1a7d4d60e01b8152600481018290527f00000000000000000000000000000000000000000000000000000000000000006001600160a01b031690632e1a7d4d90602401600060405180830381600087803b15801561034257600080fd5b505af1158015610356573d6000803e3d6000fd5b505050506103648282610884565b505050565b60006103778284018461109f565b90506103a77f00000000000000000000000000000000000000000000000000000000000000008260000151610927565b5060208101516001600160a01b031632146103c157600080fd5b84156103db5780515160208201516103db91903388610948565b83156103f9576103f981600001516020015182602001513387610948565b5050505050565b6000808080610120850135804211156104515760405162461bcd60e51b8152602060048201526013602482015272151c985b9cd858dd1a5bdb881d1bdbc81bdb19606a1b60448201526064016100c9565b60008660a00135116104a35760405162461bcd60e51b815260206004820152601b60248201527a0445356304c4d28737570706c79293a206c69717569646974793d3602c1b60448201526064016100c9565b60006104cf6104b56020890189610fe5565b6104c560408a0160208b01610fe5565b8960400135610ad5565b90506104fb7f000000000000000000000000000000000000000000000000000000000000000082610b3b565b95506001600160a01b03861661054c5760405162461bcd60e51b81526020600482015260166024820152750445356304c4d28737570706c79293a20706f6f6c3d360541b60448201526064016100c9565b856001600160a01b038116634213cd3261056e6101208b016101008c01610fe5565b61057e60808c0160608d0161107e565b61058e60a08d0160808e0161107e565b60408051808201825288815233602091820190815282518a516001600160a01b0390811682850152928b0151831681850152928a015160608401525116608082015260a0808f013591016040516020818303038152906040526040518663ffffffff1660e01b81526004016106079594939291906112ca565b606060405180830381600087803b15801561062157600080fd5b505af1158015610635573d6000803e3d6000fd5b505050506040513d601f19601f82011682018060405250810190610659919061121d565b9197509550935060c088013585111561067186610bee565b9061068f5760405162461bcd60e51b81526004016100c99190611327565b508760e001358411156106a185610bee565b906106bf5760405162461bcd60e51b81526004016100c99190611327565b506001816001600160a01b03166325ba60ec6040518163ffffffff1660e01b815260040160206040518083038186803b1580156106fb57600080fd5b505afa15801561070f573d6000803e3d6000fd5b505050506040513d601f19601f82011682018060405250810190610733919061115c565b61073d91906113d4565b95506001600160a01b03871661075b6101208a016101008b01610fe5565b6001600160a01b03167fd1cf3d156d5f8f0d50f6c122ed609cec09d35c9b9fb3fff6ea0959134dae424e8860405161079591815260200190565b60405180910390a35050509193509193565b6040516370a0823160e01b81526000906001600160a01b038516906370a08231906107d6903090600401611292565b60206040518083038186803b1580156107ee57600080fd5b505afa158015610802573d6000803e3d6000fd5b505050506040513d601f19601f82011682018060405250810190610826919061115c565b90508281101561086d5760405162461bcd60e51b815260206004820152601260248201527124b739bab33334b1b4b2b73a103a37b5b2b760711b60448201526064016100c9565b801561087e5761087e848383610d32565b50505050565b604080516000808252602082019092526001600160a01b0384169083906040516108ae9190611276565b60006040518083038185875af1925050503d80600081146108eb576040519150601f19603f3d011682016040523d82523d6000602084013e6108f0565b606091505b50509050806103645760405162461bcd60e51b815260206004820152600360248201526253544560e81b60448201526064016100c9565b600061094183836000015184602001518560400151610e35565b9392505050565b7f00000000000000000000000000000000000000000000000000000000000000006001600160a01b0316846001600160a01b03161480156109895750804710155b15610aa8577f00000000000000000000000000000000000000000000000000000000000000006001600160a01b031663d0e30db0826040518263ffffffff1660e01b81526004016000604051808303818588803b1580156109e957600080fd5b505af11580156109fd573d6000803e3d6000fd5b505060405163a9059cbb60e01b81526001600160a01b037f000000000000000000000000000000000000000000000000000000000000000016935063a9059cbb9250610a5091508590859060040161130e565b602060405180830381600087803b158015610a6a57600080fd5b505af1158015610a7e573d6000803e3d6000fd5b505050506040513d601f19601f82011682018060405250810190610aa2919061105e565b5061087e565b6001600160a01b038316301415610ac957610ac4848383610d32565b61087e565b61087e84848484610ed7565b6040805160608101825260008082526020820181905291810191909152826001600160a01b0316846001600160a01b03161115610b10579192915b50604080516060810182526001600160a01b0394851681529290931660208301529181019190915290565b600081602001516001600160a01b031682600001516001600160a01b031610610b6357600080fd5b815160208301516040808501519051636263507760e11b81526001600160a01b0387169363c4c6a0ee93610b9e9391929091906004016112a6565b60206040518083038186803b158015610bb657600080fd5b505afa158015610bca573d6000803e3d6000fd5b505050506040513d601f19601f820116820180604052508101906109419190611001565b606081610c125750506040805180820190915260018152600360fc1b602082015290565b8160005b8115610c3c5780610c2681611417565b9150610c359050600a83611395565b9150610c16565b6000816001600160401b03811115610c6457634e487b7160e01b600052604160045260246000fd5b6040519080825280601f01601f191660200182016040528015610c8e576020820181803683370190505b509050815b8515610d2957610ca46001826113d4565b90506000610cb3600a88611395565b610cbe90600a6113b5565b610cc890886113d4565b610cd3906030611370565b905060008160f81b905080848481518110610cfe57634e487b7160e01b600052603260045260246000fd5b60200101906001600160f81b031916908160001a905350610d20600a89611395565b97505050610c93565b50949350505050565b600080846001600160a01b031663a9059cbb60e01b8585604051602401610d5a92919061130e565b60408051601f198184030181529181526020820180516001600160e01b03166001600160e01b0319909416939093179092529051610d989190611276565b6000604051808303816000865af19150503d8060008114610dd5576040519150601f19603f3d011682016040523d82523d6000602084013e610dda565b606091505b5091509150818015610e04575080511580610e04575080806020019051810190610e04919061105e565b6103f95760405162461bcd60e51b815260206004820152600260248201526114d560f21b60448201526064016100c9565b604051636263507760e11b81526000906001600160a01b0386169063c4c6a0ee90610e68908790879087906004016112a6565b60206040518083038186803b158015610e8057600080fd5b505afa158015610e94573d6000803e3d6000fd5b505050506040513d601f19601f82011682018060405250810190610eb89190611001565b9050336001600160a01b03821614610ecf57600080fd5b949350505050565b600080856001600160a01b03166323b872dd60e01b868686604051602401610f01939291906112a6565b60408051601f198184030181529181526020820180516001600160e01b03166001600160e01b0319909416939093179092529051610f3f9190611276565b6000604051808303816000865af19150503d8060008114610f7c576040519150601f19603f3d011682016040523d82523d6000602084013e610f81565b606091505b5091509150818015610fab575080511580610fab575080806020019051810190610fab919061105e565b610fdd5760405162461bcd60e51b815260206004820152600360248201526229aa2360e91b60448201526064016100c9565b505050505050565b600060208284031215610ff6578081fd5b813561094181611448565b600060208284031215611012578081fd5b815161094181611448565b600080600060608486031215611031578182fd5b833561103c81611448565b925060208401359150604084013561105381611448565b809150509250925092565b60006020828403121561106f578081fd5b81518015158114610941578182fd5b60006020828403121561108f578081fd5b81358060020b8114610941578182fd5b600081830360808112156110b1578182fd5b604051604081018181106001600160401b03821117156110df57634e487b7160e01b84526041600452602484fd5b60405260608212156110ef578283fd5b6110f761133a565b9150833561110481611448565b8252602084013561111481611448565b60208301526040848101359083015290815260608301359061113582611448565b60208101919091529392505050565b60006101408284031215611156578081fd5b50919050565b60006020828403121561116d578081fd5b5051919050565b60008060408385031215611186578182fd5b82359150602083013561119881611448565b809150509250929050565b600080600080606085870312156111b8578081fd5b843593506020850135925060408501356001600160401b03808211156111dc578283fd5b818701915087601f8301126111ef578283fd5b8135818111156111fd578384fd5b88602082850101111561120e578384fd5b95989497505060200194505050565b600080600060608486031215611231578283fd5b8351925060208401519150604084015190509250925092565b600081518084526112628160208601602086016113eb565b601f01601f19169290920160200192915050565b600082516112888184602087016113eb565b9190910192915050565b6001600160a01b0391909116815260200190565b6001600160a01b039384168152919092166020820152604081019190915260600190565b60018060a01b03861681528460020b60208201528360020b604082015282606082015260a06080820152600061130360a083018461124a565b979650505050505050565b6001600160a01b03929092168252602082015260400190565b602081526000610941602083018461124a565b604051606081016001600160401b038111828210171561136a57634e487b7160e01b600052604160045260246000fd5b60405290565b600060ff821660ff84168060ff0382111561138d5761138d611432565b019392505050565b6000826113b057634e487b7160e01b81526012600452602481fd5b500490565b60008160001904831182151516156113cf576113cf611432565b500290565b6000828210156113e6576113e6611432565b500390565b60005b838110156114065781810151838201526020016113ee565b8381111561087e5750506000910152565b600060001982141561142b5761142b611432565b5060010190565b634e487b7160e01b600052601160045260246000fd5b6001600160a01b038116811461145d57600080fd5b5056fea2646970667358221220d74a8747d6dd1d6987dfc36f0242565f33871fbf19a9579785837fac1db0b58e64736f6c63430008040033",
  "linkReferences": {},
  "deployedLinkReferences": {}
}