{
  "_format": "hh-sol-artifact-1",
  "contractName": "PositionViewer",
  "sourceName": "contracts/helpers/PositionViewer.sol",
  "abi": [
    {
      "inputs": [
        {
          "internalType": "address",
          "name": "poolAddress",
          "type": "address"
        }
      ],
      "name": "getCurrentSqrtPrice",
      "outputs": [
        {
          "internalType": "uint256",
          "name": "",
          "type": "uint256"
        }
      ],
      "stateMutability": "view",
      "type": "function"
    },
    {
      "inputs": [
        {
          "internalType": "address",
          "name": "poolAddress",
          "type": "address"
        },
        {
          "internalType": "uint256",
          "name": "ticketId",
          "type": "uint256"
        }
      ],
      "name": "getPositionData",
      "outputs": [
        {
          "components": [
            {
              "internalType": "address",
              "name": "poolAddress",
              "type": "address"
            },
            {
              "internalType": "address",
              "name": "token0",
              "type": "address"
            },
            {
              "internalType": "address",
              "name": "token1",
              "type": "address"
            },
            {
              "internalType": "uint256",
              "name": "ticketId",
              "type": "uint256"
            },
            {
              "internalType": "int24",
              "name": "lowestTick",
              "type": "int24"
            },
            {
              "internalType": "int24",
              "name": "highestTick",
              "type": "int24"
            },
            {
              "internalType": "uint256",
              "name": "amount0",
              "type": "uint256"
            },
            {
              "internalType": "uint256",
              "name": "amount1",
              "type": "uint256"
            },
            {
              "internalType": "uint256",
              "name": "feeAmount",
              "type": "uint256"
            },
            {
              "internalType": "address",
              "name": "owner",
              "type": "address"
            }
          ],
          "internalType": "struct PositionViewer.PositionData",
          "name": "",
          "type": "tuple"
        }
      ],
      "stateMutability": "view",
      "type": "function"
    },
    {
      "inputs": [
        {
          "internalType": "address",
          "name": "poolAddress",
          "type": "address"
        },
        {
          "internalType": "address",
          "name": "owner",
          "type": "address"
        }
      ],
      "name": "getPositionDataList",
      "outputs": [
        {
          "components": [
            {
              "internalType": "address",
              "name": "poolAddress",
              "type": "address"
            },
            {
              "internalType": "address",
              "name": "token0",
              "type": "address"
            },
            {
              "internalType": "address",
              "name": "token1",
              "type": "address"
            },
            {
              "internalType": "uint256",
              "name": "ticketId",
              "type": "uint256"
            },
            {
              "internalType": "int24",
              "name": "lowestTick",
              "type": "int24"
            },
            {
              "internalType": "int24",
              "name": "highestTick",
              "type": "int24"
            },
            {
              "internalType": "uint256",
              "name": "amount0",
              "type": "uint256"
            },
            {
              "internalType": "uint256",
              "name": "amount1",
              "type": "uint256"
            },
            {
              "internalType": "uint256",
              "name": "feeAmount",
              "type": "uint256"
            },
            {
              "internalType": "address",
              "name": "owner",
              "type": "address"
            }
          ],
          "internalType": "struct PositionViewer.PositionData[]",
          "name": "positionDataList",
          "type": "tuple[]"
        }
      ],
      "stateMutability": "view",
      "type": "function"
    },
    {
      "inputs": [
        {
          "internalType": "address",
          "name": "poolAddress",
          "type": "address"
        },
        {
          "internalType": "uint256",
          "name": "ticketId",
          "type": "uint256"
        }
      ],
      "name": "getTicketOwner",
      "outputs": [
        {
          "internalType": "address",
          "name": "",
          "type": "address"
        }
      ],
      "stateMutability": "view",
      "type": "function"
    }
  ],
  "bytecode": "0x608060405234801561001057600080fd5b5061128e806100206000396000f3fe608060405234801561001057600080fd5b506004361061004c5760003560e01c8063523a19ac14610051578063814d578b1461007a5780638a370b0a1461009b578063f200b2cd146100bb575b600080fd5b61006461005f366004610e24565b6100db565b6040516100719190611082565b60405180910390f35b61008d610088366004610dad565b610440565b604051908152602001610071565b6100ae6100a9366004610e24565b6105a7565b6040516100719190611006565b6100ce6100c9366004610dec565b61062c565b6040516100719190611033565b6100e3610d47565b826000806100f183866108c5565b915091506000604051806101400160405280886001600160a01b03168152602001856001600160a01b0316630dfe16816040518163ffffffff1660e01b815260040160206040518083038186803b15801561014b57600080fd5b505afa15801561015f573d6000803e3d6000fd5b505050506040513d601f19601f820116820180604052508101906101839190610dd0565b6001600160a01b03168152602001856001600160a01b031663d21220a76040518163ffffffff1660e01b815260040160206040518083038186803b1580156101ca57600080fd5b505afa1580156101de573d6000803e3d6000fd5b505050506040513d601f19601f820116820180604052508101906102029190610dd0565b6001600160a01b03168152602001878152602001856001600160a01b031663d9895e6a896040518263ffffffff1660e01b815260040161024491815260200190565b60806040518083038186803b15801561025c57600080fd5b505afa158015610270573d6000803e3d6000fd5b505050506040513d601f19601f820116820180604052508101906102949190610e69565b5160020b8152604051636cc4af3560e11b8152600481018990526020909101906001600160a01b0387169063d9895e6a9060240160806040518083038186803b1580156102e057600080fd5b505afa1580156102f4573d6000803e3d6000fd5b505050506040513d601f19601f820116820180604052508101906103189190610e69565b6020015160020b8152602001848152602001838152602001856001600160a01b031663ddca3f436040518163ffffffff1660e01b815260040160206040518083038186803b15801561036957600080fd5b505afa15801561037d573d6000803e3d6000fd5b505050506040513d601f19601f820116820180604052508101906103a19190610eeb565b8152602001856001600160a01b031663d9895e6a896040518263ffffffff1660e01b81526004016103d491815260200190565b60806040518083038186803b1580156103ec57600080fd5b505afa158015610400573d6000803e3d6000fd5b505050506040513d601f19601f820116820180604052508101906104249190610e69565b606001516001600160a01b031690529450505050505b92915050565b600080829050600080600080846001600160a01b0316635029f54d866001600160a01b031663b1ed25216040518163ffffffff1660e01b815260040160206040518083038186803b15801561049457600080fd5b505afa1580156104a8573d6000803e3d6000fd5b505050506040513d601f19601f820116820180604052508101906104cc9190610e4f565b6040516001600160e01b031960e084901b16815260029190910b600482015260240160c06040518083038186803b15801561050657600080fd5b505afa15801561051a573d6000803e3d6000fd5b505050506040513d601f19601f8201168201806040525081019061053e9190610f03565b505093509350935093506000610556858585856109ac565b9050670de0b6b3a764000061056b84836111b7565b61057591906110a9565b61057f9085611091565b610591670de0b6b3a7640000836111b7565b61059b91906110a9565b98975050505050505050565b60405163ad09340960e01b81526004810182905260009083906001600160a01b0382169063ad0934099060240160206040518083038186803b1580156105ec57600080fd5b505afa158015610600573d6000803e3d6000fd5b505050506040513d601f19601f820116820180604052508101906106249190610dd0565b949350505050565b604051632638102560e01b815260609083906000906001600160a01b03831690632638102590610660908790600401611006565b60206040518083038186803b15801561067857600080fd5b505afa15801561068c573d6000803e3d6000fd5b505050506040513d601f19601f820116820180604052508101906106b09190610eeb565b9050600060015b8281101561076957604051631a3dac3360e01b81526000906001600160a01b03861690631a3dac33906106f0908a90869060040161101a565b60206040518083038186803b15801561070857600080fd5b505afa15801561071c573d6000803e3d6000fd5b505050506040513d601f19601f820116820180604052508101906107409190610eeb565b9050801561075657826107528161120f565b9350505b50806107618161120f565b9150506106b7565b50806001600160401b0381111561079057634e487b7160e01b600052604160045260246000fd5b6040519080825280602002602001820160405280156107c957816020015b6107b6610d47565b8152602001906001900390816107ae5790505b5093506000905060015b828110156108bb57604051631a3dac3360e01b81526000906001600160a01b03861690631a3dac339061080c908a90869060040161101a565b60206040518083038186803b15801561082457600080fd5b505afa158015610838573d6000803e3d6000fd5b505050506040513d601f19601f8201168201806040525081019061085c9190610eeb565b905080156108a85761086e88826100db565b86848151811061088e57634e487b7160e01b600052603260045260246000fd5b602002602001018190525082806108a49061120f565b9350505b50806108b38161120f565b9150506107d3565b5050505092915050565b604051636cc4af3560e11b8152600481018290526000908190849082906001600160a01b0383169063d9895e6a9060240160806040518083038186803b15801561090e57600080fd5b505afa158015610922573d6000803e3d6000fd5b505050506040513d601f19601f820116820180604052508101906109469190610e69565b8051602082015191925090815b8160020b8160020b136109a05760008061096e8b8b85610adb565b909250905061097d828a611091565b98506109898189611091565b975050508080610998906111ed565b915050610953565b50505050509250929050565b600080826109c2670de0b6b3a7640000876111b7565b6109cc91906110a9565b670de0b6b3a76400006109df86896111b7565b6109e991906110a9565b6109f39190611091565b90506000610a6d670de0b6b3a764000085610a0e82896111b7565b610a1891906110a9565b610a2a90670de0b6b3a76400006111d6565b610a34898b6111b7565b610a3e91906111b7565b610a4891906110a9565b610a539060046111b7565b610a5e60028561110c565b610a689190611091565b610cd7565b905083610a8286670de0b6b3a76400006111b7565b610a8c91906110a9565b610a9e90670de0b6b3a76400006111d6565b610aa99060026111b7565b670de0b6b3a7640000610abc8385611091565b610ac691906111b7565b610ad091906110a9565b979650505050505050565b604051633c50594f60e01b815260048101839052600282900b60248201526000908190859082906001600160a01b03831690633c50594f9060440160206040518083038186803b158015610b2e57600080fd5b505afa158015610b42573d6000803e3d6000fd5b505050506040513d601f19601f82011682018060405250810190610b669190610eeb565b604051635029f54d60e01b8152600287900b6004820152909150600090819081906001600160a01b03861690635029f54d9060240160c06040518083038186803b158015610bb357600080fd5b505afa158015610bc7573d6000803e3d6000fd5b505050506040513d601f19601f82011682018060405250810190610beb9190610f03565b50945050509250925060008411610c425760405162461bcd60e51b8152602060048201526016602482015275737570706c79206a65737420726f776e79207a65726f60501b60448201526064015b60405180910390fd5b60008111610c9c5760405162461bcd60e51b815260206004820152602160248201527f737570706c79436f656666696369656e74206a65737420726f776e79207a65726044820152606f60f81b6064820152608401610c39565b80610ca784866111b7565b610cb191906110a9565b965080610cbe83866111b7565b610cc891906110a9565b95505050505050935093915050565b60006003821115610d385750806000610cf16002836110a9565b610cfc906001611091565b90505b81811015610d3257905080600281610d1781866110a9565b610d219190611091565b610d2b91906110a9565b9050610cff565b50919050565b8115610d42575060015b919050565b6040805161014081018252600080825260208201819052918101829052606081018290526080810182905260a0810182905260c0810182905260e08101829052610100810182905261012081019190915290565b8051600281900b8114610d4257600080fd5b600060208284031215610dbe578081fd5b8135610dc981611240565b9392505050565b600060208284031215610de1578081fd5b8151610dc981611240565b60008060408385031215610dfe578081fd5b8235610e0981611240565b91506020830135610e1981611240565b809150509250929050565b60008060408385031215610e36578182fd5b8235610e4181611240565b946020939093013593505050565b600060208284031215610e60578081fd5b610dc982610d9b565b600060808284031215610e7a578081fd5b604051608081018181106001600160401b0382111715610ea857634e487b7160e01b83526041600452602483fd5b604052610eb483610d9b565b8152610ec260208401610d9b565b6020820152604083015160408201526060830151610edf81611240565b60608201529392505050565b600060208284031215610efc578081fd5b5051919050565b60008060008060008060c08789031215610f1b578182fd5b865195506020870151945060408701519350606087015192506080870151915060a08701518015158114610f4d578182fd5b809150509295509295509295565b6001600160a01b03169052565b610f73828251610f5b565b6020810151610f856020840182610f5b565b506040810151610f986040840182610f5b565b50606081015160608301526080810151610fb7608084018260020b9052565b5060a0810151610fcc60a084018260020b9052565b5060c081015160c083015260e081015160e08301526101008082015181840152506101208082015161100082850182610f5b565b50505050565b6001600160a01b0391909116815260200190565b6001600160a01b03929092168252602082015260400190565b6020808252825182820181905260009190848201906040850190845b8181101561107657611062838551610f68565b92840192610140929092019160010161104f565b50909695505050505050565b610140810161043a8284610f68565b600082198211156110a4576110a461122a565b500190565b6000826110c457634e487b7160e01b81526012600452602481fd5b500490565b600181815b808511156111045781600019048211156110ea576110ea61122a565b808516156110f757918102915b93841c93908002906110ce565b509250929050565b6000610dc960ff8416836000826111255750600161043a565b816111325750600061043a565b816001811461114857600281146111525761116e565b600191505061043a565b60ff8411156111635761116361122a565b50506001821b61043a565b5060208310610133831016604e8410600b8410161715611191575081810a61043a565b61119b83836110c9565b80600019048211156111af576111af61122a565b029392505050565b60008160001904831182151516156111d1576111d161122a565b500290565b6000828210156111e8576111e861122a565b500390565b60008160020b627fffff8114156112065761120661122a565b60010192915050565b60006000198214156112235761122361122a565b5060010190565b634e487b7160e01b600052601160045260246000fd5b6001600160a01b038116811461125557600080fd5b5056fea264697066735822122055a464bc4dbb88ba02021953f7c35d5a72296fa31d57f7a9539d803d5997c69364736f6c63430008040033",
  "linkReferences": {},
  "deployedLinkReferences": {}
}