{
  "_format": "hh-sol-artifact-1",
  "contractName": "PositionViewer",
  "sourceName": "contracts/helpers/PositionViewer.sol",
  "abi": [
    {
      "inputs": [
        {
          "internalType": "address",
          "name": "poolAddress",
          "type": "address"
        }
      ],
      "name": "getCurrentSqrtPrice",
      "outputs": [
        {
          "internalType": "uint256",
          "name": "",
          "type": "uint256"
        }
      ],
      "stateMutability": "view",
      "type": "function"
    },
    {
      "inputs": [
        {
          "internalType": "address",
          "name": "poolAddress",
          "type": "address"
        },
        {
          "internalType": "uint256",
          "name": "ticketId",
          "type": "uint256"
        }
      ],
      "name": "getPositionData",
      "outputs": [
        {
          "components": [
            {
              "internalType": "address",
              "name": "poolAddress",
              "type": "address"
            },
            {
              "internalType": "address",
              "name": "token0",
              "type": "address"
            },
            {
              "internalType": "address",
              "name": "token1",
              "type": "address"
            },
            {
              "internalType": "uint256",
              "name": "ticketId",
              "type": "uint256"
            },
            {
              "internalType": "int24",
              "name": "lowestTick",
              "type": "int24"
            },
            {
              "internalType": "int24",
              "name": "highestTick",
              "type": "int24"
            },
            {
              "internalType": "uint256",
              "name": "amount0",
              "type": "uint256"
            },
            {
              "internalType": "uint256",
              "name": "amount1",
              "type": "uint256"
            }
          ],
          "internalType": "struct PositionViewer.PositionData",
          "name": "",
          "type": "tuple"
        }
      ],
      "stateMutability": "view",
      "type": "function"
    },
    {
      "inputs": [
        {
          "internalType": "address",
          "name": "poolAddress",
          "type": "address"
        },
        {
          "internalType": "address",
          "name": "owner",
          "type": "address"
        }
      ],
      "name": "getPositionDataList",
      "outputs": [
        {
          "components": [
            {
              "internalType": "address",
              "name": "poolAddress",
              "type": "address"
            },
            {
              "internalType": "address",
              "name": "token0",
              "type": "address"
            },
            {
              "internalType": "address",
              "name": "token1",
              "type": "address"
            },
            {
              "internalType": "uint256",
              "name": "ticketId",
              "type": "uint256"
            },
            {
              "internalType": "int24",
              "name": "lowestTick",
              "type": "int24"
            },
            {
              "internalType": "int24",
              "name": "highestTick",
              "type": "int24"
            },
            {
              "internalType": "uint256",
              "name": "amount0",
              "type": "uint256"
            },
            {
              "internalType": "uint256",
              "name": "amount1",
              "type": "uint256"
            }
          ],
          "internalType": "struct PositionViewer.PositionData[]",
          "name": "positionDataList",
          "type": "tuple[]"
        }
      ],
      "stateMutability": "view",
      "type": "function"
    }
  ],
  "bytecode": "0x608060405234801561001057600080fd5b5061105d806100206000396000f3fe608060405234801561001057600080fd5b50600436106100415760003560e01c8063523a19ac14610046578063814d578b1461006f578063f200b2cd14610090575b600080fd5b610059610054366004610c60565b6100b0565b6040516100669190610e51565b60405180910390f35b61008261007d366004610be9565b610313565b604051908152602001610066565b6100a361009e366004610c28565b61047a565b6040516100669190610e02565b6100b8610b93565b826000806100c68386610711565b915091506000604051806101000160405280886001600160a01b03168152602001856001600160a01b0316630dfe16816040518163ffffffff1660e01b815260040160206040518083038186803b15801561012057600080fd5b505afa158015610134573d6000803e3d6000fd5b505050506040513d601f19601f820116820180604052508101906101589190610c0c565b6001600160a01b03168152602001856001600160a01b031663d21220a76040518163ffffffff1660e01b815260040160206040518083038186803b15801561019f57600080fd5b505afa1580156101b3573d6000803e3d6000fd5b505050506040513d601f19601f820116820180604052508101906101d79190610c0c565b6001600160a01b03168152602001878152602001856001600160a01b031663d9895e6a896040518263ffffffff1660e01b815260040161021991815260200190565b60606040518083038186803b15801561023157600080fd5b505afa158015610245573d6000803e3d6000fd5b505050506040513d601f19601f820116820180604052508101906102699190610ca5565b5160020b8152604051636cc4af3560e11b8152600481018990526020909101906001600160a01b0387169063d9895e6a9060240160606040518083038186803b1580156102b557600080fd5b505afa1580156102c9573d6000803e3d6000fd5b505050506040513d601f19601f820116820180604052508101906102ed9190610ca5565b6020015160020b8152602001848152602001838152509050809450505050505b92915050565b600080829050600080600080846001600160a01b0316635029f54d866001600160a01b031663b1ed25216040518163ffffffff1660e01b815260040160206040518083038186803b15801561036757600080fd5b505afa15801561037b573d6000803e3d6000fd5b505050506040513d601f19601f8201168201806040525081019061039f9190610c8b565b6040516001600160e01b031960e084901b16815260029190910b600482015260240160c06040518083038186803b1580156103d957600080fd5b505afa1580156103ed573d6000803e3d6000fd5b505050506040513d601f19601f820116820180604052508101906104119190610d2f565b505093509350935093506000610429858585856107f8565b9050670de0b6b3a764000061043e8483610f86565b6104489190610e78565b6104529085610e60565b610464670de0b6b3a764000083610f86565b61046e9190610e78565b98975050505050505050565b604051632638102560e01b81526001600160a01b03828116600483015260609184916000919083169063263810259060240160206040518083038186803b1580156104c457600080fd5b505afa1580156104d8573d6000803e3d6000fd5b505050506040513d601f19601f820116820180604052508101906104fc9190610d17565b9050600060015b828110156105b557604051636e66407960e01b81526000906001600160a01b03861690636e6640799061053c908a908690600401610de9565b60206040518083038186803b15801561055457600080fd5b505afa158015610568573d6000803e3d6000fd5b505050506040513d601f19601f8201168201806040525081019061058c9190610d17565b905080156105a2578261059e81610fde565b9350505b50806105ad81610fde565b915050610503565b50806001600160401b038111156105dc57634e487b7160e01b600052604160045260246000fd5b60405190808252806020026020018201604052801561061557816020015b610602610b93565b8152602001906001900390816105fa5790505b5093506000905060015b8281101561070757604051636e66407960e01b81526000906001600160a01b03861690636e66407990610658908a908690600401610de9565b60206040518083038186803b15801561067057600080fd5b505afa158015610684573d6000803e3d6000fd5b505050506040513d601f19601f820116820180604052508101906106a89190610d17565b905080156106f4576106ba88826100b0565b8684815181106106da57634e487b7160e01b600052603260045260246000fd5b602002602001018190525082806106f090610fde565b9350505b50806106ff81610fde565b91505061061f565b5050505092915050565b604051636cc4af3560e11b8152600481018290526000908190849082906001600160a01b0383169063d9895e6a9060240160606040518083038186803b15801561075a57600080fd5b505afa15801561076e573d6000803e3d6000fd5b505050506040513d601f19601f820116820180604052508101906107929190610ca5565b8051602082015191925090815b8160020b8160020b136107ec576000806107ba8b8b85610927565b90925090506107c9828a610e60565b98506107d58189610e60565b9750505080806107e490610fbc565b91505061079f565b50505050509250929050565b6000808261080e670de0b6b3a764000087610f86565b6108189190610e78565b670de0b6b3a764000061082b8689610f86565b6108359190610e78565b61083f9190610e60565b905060006108b9670de0b6b3a76400008561085a8289610f86565b6108649190610e78565b61087690670de0b6b3a7640000610fa5565b610880898b610f86565b61088a9190610f86565b6108949190610e78565b61089f906004610f86565b6108aa600285610edb565b6108b49190610e60565b610b23565b9050836108ce86670de0b6b3a7640000610f86565b6108d89190610e78565b6108ea90670de0b6b3a7640000610fa5565b6108f5906002610f86565b670de0b6b3a76400006109088385610e60565b6109129190610f86565b61091c9190610e78565b979650505050505050565b604051633c50594f60e01b815260048101839052600282900b60248201526000908190859082906001600160a01b03831690633c50594f9060440160206040518083038186803b15801561097a57600080fd5b505afa15801561098e573d6000803e3d6000fd5b505050506040513d601f19601f820116820180604052508101906109b29190610d17565b604051635029f54d60e01b8152600287900b6004820152909150600090819081906001600160a01b03861690635029f54d9060240160c06040518083038186803b1580156109ff57600080fd5b505afa158015610a13573d6000803e3d6000fd5b505050506040513d601f19601f82011682018060405250810190610a379190610d2f565b50945050509250925060008411610a8e5760405162461bcd60e51b8152602060048201526016602482015275737570706c79206a65737420726f776e79207a65726f60501b60448201526064015b60405180910390fd5b60008111610ae85760405162461bcd60e51b815260206004820152602160248201527f737570706c79436f656666696369656e74206a65737420726f776e79207a65726044820152606f60f81b6064820152608401610a85565b80610af38486610f86565b610afd9190610e78565b965080610b0a8386610f86565b610b149190610e78565b95505050505050935093915050565b60006003821115610b845750806000610b3d600283610e78565b610b48906001610e60565b90505b81811015610b7e57905080600281610b638186610e78565b610b6d9190610e60565b610b779190610e78565b9050610b4b565b50919050565b8115610b8e575060015b919050565b6040805161010081018252600080825260208201819052918101829052606081018290526080810182905260a0810182905260c0810182905260e081019190915290565b8051600281900b8114610b8e57600080fd5b600060208284031215610bfa578081fd5b8135610c058161100f565b9392505050565b600060208284031215610c1d578081fd5b8151610c058161100f565b60008060408385031215610c3a578081fd5b8235610c458161100f565b91506020830135610c558161100f565b809150509250929050565b60008060408385031215610c72578182fd5b8235610c7d8161100f565b946020939093013593505050565b600060208284031215610c9c578081fd5b610c0582610bd7565b600060608284031215610cb6578081fd5b604051606081018181106001600160401b0382111715610ce457634e487b7160e01b83526041600452602483fd5b604052610cf083610bd7565b8152610cfe60208401610bd7565b6020820152604083015160408201528091505092915050565b600060208284031215610d28578081fd5b5051919050565b60008060008060008060c08789031215610d47578182fd5b865195506020870151945060408701519350606087015192506080870151915060a08701518015158114610d79578182fd5b809150509295509295509295565b60018060a01b038082511683528060208301511660208401528060408301511660408401525060608101516060830152608081015160020b608083015260a081015160020b60a083015260c081015160c083015260e081015160e08301525050565b6001600160a01b03929092168252602082015260400190565b6020808252825182820181905260009190848201906040850190845b81811015610e4557610e31838551610d87565b928401926101009290920191600101610e1e565b50909695505050505050565b610100810161030d8284610d87565b60008219821115610e7357610e73610ff9565b500190565b600082610e9357634e487b7160e01b81526012600452602481fd5b500490565b600181815b80851115610ed3578160001904821115610eb957610eb9610ff9565b80851615610ec657918102915b93841c9390800290610e9d565b509250929050565b6000610c0560ff841683600082610ef45750600161030d565b81610f015750600061030d565b8160018114610f175760028114610f2157610f3d565b600191505061030d565b60ff841115610f3257610f32610ff9565b50506001821b61030d565b5060208310610133831016604e8410600b8410161715610f60575081810a61030d565b610f6a8383610e98565b8060001904821115610f7e57610f7e610ff9565b029392505050565b6000816000190483118215151615610fa057610fa0610ff9565b500290565b600082821015610fb757610fb7610ff9565b500390565b60008160020b627fffff811415610fd557610fd5610ff9565b60010192915050565b6000600019821415610ff257610ff2610ff9565b5060010190565b634e487b7160e01b600052601160045260246000fd5b6001600160a01b038116811461102457600080fd5b5056fea26469706673582212206dddd6e1359e22c63e870920310ca52fe585ef910f9b5fb5066cd9e6b9d2cf3b64736f6c63430008040033",
  "linkReferences": {},
  "deployedLinkReferences": {}
}