{
  "_format": "hh-sol-artifact-1",
  "contractName": "PositionViewer",
  "sourceName": "contracts/helpers/PositionViewer.sol",
  "abi": [
    {
      "inputs": [
        {
          "internalType": "address",
          "name": "poolAddress",
          "type": "address"
        }
      ],
      "name": "getCurrentSqrtPrice",
      "outputs": [
        {
          "internalType": "uint256",
          "name": "",
          "type": "uint256"
        }
      ],
      "stateMutability": "view",
      "type": "function"
    },
    {
      "inputs": [
        {
          "internalType": "address",
          "name": "poolAddress",
          "type": "address"
        },
        {
          "internalType": "uint256",
          "name": "ticketId",
          "type": "uint256"
        }
      ],
      "name": "getPositionData",
      "outputs": [
        {
          "components": [
            {
              "internalType": "address",
              "name": "poolAddress",
              "type": "address"
            },
            {
              "internalType": "address",
              "name": "token0",
              "type": "address"
            },
            {
              "internalType": "address",
              "name": "token1",
              "type": "address"
            },
            {
              "internalType": "uint256",
              "name": "ticketId",
              "type": "uint256"
            },
            {
              "internalType": "int24",
              "name": "lowestTick",
              "type": "int24"
            },
            {
              "internalType": "int24",
              "name": "highestTick",
              "type": "int24"
            },
            {
              "internalType": "uint256",
              "name": "amount0",
              "type": "uint256"
            },
            {
              "internalType": "uint256",
              "name": "amount1",
              "type": "uint256"
            },
            {
              "internalType": "uint256",
              "name": "feeAmount",
              "type": "uint256"
            },
            {
              "internalType": "address",
              "name": "owner",
              "type": "address"
            }
          ],
          "internalType": "struct PositionViewer.PositionData",
          "name": "",
          "type": "tuple"
        }
      ],
      "stateMutability": "view",
      "type": "function"
    },
    {
      "inputs": [
        {
          "internalType": "address",
          "name": "poolAddress",
          "type": "address"
        },
        {
          "internalType": "address",
          "name": "owner",
          "type": "address"
        }
      ],
      "name": "getPositionDataList",
      "outputs": [
        {
          "components": [
            {
              "internalType": "address",
              "name": "poolAddress",
              "type": "address"
            },
            {
              "internalType": "address",
              "name": "token0",
              "type": "address"
            },
            {
              "internalType": "address",
              "name": "token1",
              "type": "address"
            },
            {
              "internalType": "uint256",
              "name": "ticketId",
              "type": "uint256"
            },
            {
              "internalType": "int24",
              "name": "lowestTick",
              "type": "int24"
            },
            {
              "internalType": "int24",
              "name": "highestTick",
              "type": "int24"
            },
            {
              "internalType": "uint256",
              "name": "amount0",
              "type": "uint256"
            },
            {
              "internalType": "uint256",
              "name": "amount1",
              "type": "uint256"
            },
            {
              "internalType": "uint256",
              "name": "feeAmount",
              "type": "uint256"
            },
            {
              "internalType": "address",
              "name": "owner",
              "type": "address"
            }
          ],
          "internalType": "struct PositionViewer.PositionData[]",
          "name": "positionDataList",
          "type": "tuple[]"
        }
      ],
      "stateMutability": "view",
      "type": "function"
    }
  ],
  "bytecode": "0x608060405234801561001057600080fd5b506111b4806100206000396000f3fe608060405234801561001057600080fd5b50600436106100415760003560e01c8063523a19ac14610046578063814d578b1461006f578063f200b2cd14610090575b600080fd5b610059610054366004610d6e565b6100b0565b6040516100669190610fa8565b60405180910390f35b61008261007d366004610cf7565b610411565b604051908152602001610066565b6100a361009e366004610d36565b610578565b6040516100669190610f59565b6100b8610c91565b826000806100c6838661080f565b915091506000604051806101400160405280886001600160a01b03168152602001856001600160a01b0316630dfe16816040518163ffffffff1660e01b815260040160206040518083038186803b15801561012057600080fd5b505afa158015610134573d6000803e3d6000fd5b505050506040513d601f19601f820116820180604052508101906101589190610d1a565b6001600160a01b03168152602001856001600160a01b031663d21220a76040518163ffffffff1660e01b815260040160206040518083038186803b15801561019f57600080fd5b505afa1580156101b3573d6000803e3d6000fd5b505050506040513d601f19601f820116820180604052508101906101d79190610d1a565b6001600160a01b03168152602001878152602001856001600160a01b031663d9895e6a896040518263ffffffff1660e01b815260040161021991815260200190565b60606040518083038186803b15801561023157600080fd5b505afa158015610245573d6000803e3d6000fd5b505050506040513d601f19601f820116820180604052508101906102699190610db3565b5160020b8152604051636cc4af3560e11b8152600481018990526020909101906001600160a01b0387169063d9895e6a9060240160606040518083038186803b1580156102b557600080fd5b505afa1580156102c9573d6000803e3d6000fd5b505050506040513d601f19601f820116820180604052508101906102ed9190610db3565b6020015160020b8152602001848152602001838152602001856001600160a01b031663ddca3f436040518163ffffffff1660e01b815260040160206040518083038186803b15801561033e57600080fd5b505afa158015610352573d6000803e3d6000fd5b505050506040513d601f19601f820116820180604052508101906103769190610e25565b8152602001856001600160a01b0316636352211e896040518263ffffffff1660e01b81526004016103a991815260200190565b60206040518083038186803b1580156103c157600080fd5b505afa1580156103d5573d6000803e3d6000fd5b505050506040513d601f19601f820116820180604052508101906103f99190610d1a565b6001600160a01b031690529450505050505b92915050565b600080829050600080600080846001600160a01b0316635029f54d866001600160a01b031663b1ed25216040518163ffffffff1660e01b815260040160206040518083038186803b15801561046557600080fd5b505afa158015610479573d6000803e3d6000fd5b505050506040513d601f19601f8201168201806040525081019061049d9190610d99565b6040516001600160e01b031960e084901b16815260029190910b600482015260240160c06040518083038186803b1580156104d757600080fd5b505afa1580156104eb573d6000803e3d6000fd5b505050506040513d601f19601f8201168201806040525081019061050f9190610e3d565b505093509350935093506000610527858585856108f6565b9050670de0b6b3a764000061053c84836110dd565b6105469190610fcf565b6105509085610fb7565b610562670de0b6b3a7640000836110dd565b61056c9190610fcf565b98975050505050505050565b604051632638102560e01b81526001600160a01b03828116600483015260609184916000919083169063263810259060240160206040518083038186803b1580156105c257600080fd5b505afa1580156105d6573d6000803e3d6000fd5b505050506040513d601f19601f820116820180604052508101906105fa9190610e25565b9050600060015b828110156106b357604051631a3dac3360e01b81526000906001600160a01b03861690631a3dac339061063a908a908690600401610f40565b60206040518083038186803b15801561065257600080fd5b505afa158015610666573d6000803e3d6000fd5b505050506040513d601f19601f8201168201806040525081019061068a9190610e25565b905080156106a0578261069c81611135565b9350505b50806106ab81611135565b915050610601565b50806001600160401b038111156106da57634e487b7160e01b600052604160045260246000fd5b60405190808252806020026020018201604052801561071357816020015b610700610c91565b8152602001906001900390816106f85790505b5093506000905060015b8281101561080557604051631a3dac3360e01b81526000906001600160a01b03861690631a3dac3390610756908a908690600401610f40565b60206040518083038186803b15801561076e57600080fd5b505afa158015610782573d6000803e3d6000fd5b505050506040513d601f19601f820116820180604052508101906107a69190610e25565b905080156107f2576107b888826100b0565b8684815181106107d857634e487b7160e01b600052603260045260246000fd5b602002602001018190525082806107ee90611135565b9350505b50806107fd81611135565b91505061071d565b5050505092915050565b604051636cc4af3560e11b8152600481018290526000908190849082906001600160a01b0383169063d9895e6a9060240160606040518083038186803b15801561085857600080fd5b505afa15801561086c573d6000803e3d6000fd5b505050506040513d601f19601f820116820180604052508101906108909190610db3565b8051602082015191925090815b8160020b8160020b136108ea576000806108b88b8b85610a25565b90925090506108c7828a610fb7565b98506108d38189610fb7565b9750505080806108e290611113565b91505061089d565b50505050509250929050565b6000808261090c670de0b6b3a7640000876110dd565b6109169190610fcf565b670de0b6b3a764000061092986896110dd565b6109339190610fcf565b61093d9190610fb7565b905060006109b7670de0b6b3a76400008561095882896110dd565b6109629190610fcf565b61097490670de0b6b3a76400006110fc565b61097e898b6110dd565b61098891906110dd565b6109929190610fcf565b61099d9060046110dd565b6109a8600285611032565b6109b29190610fb7565b610c21565b9050836109cc86670de0b6b3a76400006110dd565b6109d69190610fcf565b6109e890670de0b6b3a76400006110fc565b6109f39060026110dd565b670de0b6b3a7640000610a068385610fb7565b610a1091906110dd565b610a1a9190610fcf565b979650505050505050565b604051633c50594f60e01b815260048101839052600282900b60248201526000908190859082906001600160a01b03831690633c50594f9060440160206040518083038186803b158015610a7857600080fd5b505afa158015610a8c573d6000803e3d6000fd5b505050506040513d601f19601f82011682018060405250810190610ab09190610e25565b604051635029f54d60e01b8152600287900b6004820152909150600090819081906001600160a01b03861690635029f54d9060240160c06040518083038186803b158015610afd57600080fd5b505afa158015610b11573d6000803e3d6000fd5b505050506040513d601f19601f82011682018060405250810190610b359190610e3d565b50945050509250925060008411610b8c5760405162461bcd60e51b8152602060048201526016602482015275737570706c79206a65737420726f776e79207a65726f60501b60448201526064015b60405180910390fd5b60008111610be65760405162461bcd60e51b815260206004820152602160248201527f737570706c79436f656666696369656e74206a65737420726f776e79207a65726044820152606f60f81b6064820152608401610b83565b80610bf184866110dd565b610bfb9190610fcf565b965080610c0883866110dd565b610c129190610fcf565b95505050505050935093915050565b60006003821115610c825750806000610c3b600283610fcf565b610c46906001610fb7565b90505b81811015610c7c57905080600281610c618186610fcf565b610c6b9190610fb7565b610c759190610fcf565b9050610c49565b50919050565b8115610c8c575060015b919050565b6040805161014081018252600080825260208201819052918101829052606081018290526080810182905260a0810182905260c0810182905260e08101829052610100810182905261012081019190915290565b8051600281900b8114610c8c57600080fd5b600060208284031215610d08578081fd5b8135610d1381611166565b9392505050565b600060208284031215610d2b578081fd5b8151610d1381611166565b60008060408385031215610d48578081fd5b8235610d5381611166565b91506020830135610d6381611166565b809150509250929050565b60008060408385031215610d80578182fd5b8235610d8b81611166565b946020939093013593505050565b600060208284031215610daa578081fd5b610d1382610ce5565b600060608284031215610dc4578081fd5b604051606081018181106001600160401b0382111715610df257634e487b7160e01b83526041600452602483fd5b604052610dfe83610ce5565b8152610e0c60208401610ce5565b6020820152604083015160408201528091505092915050565b600060208284031215610e36578081fd5b5051919050565b60008060008060008060c08789031215610e55578182fd5b865195506020870151945060408701519350606087015192506080870151915060a08701518015158114610e87578182fd5b809150509295509295509295565b6001600160a01b03169052565b610ead828251610e95565b6020810151610ebf6020840182610e95565b506040810151610ed26040840182610e95565b50606081015160608301526080810151610ef1608084018260020b9052565b5060a0810151610f0660a084018260020b9052565b5060c081015160c083015260e081015160e083015261010080820151818401525061012080820151610f3a82850182610e95565b50505050565b6001600160a01b03929092168252602082015260400190565b6020808252825182820181905260009190848201906040850190845b81811015610f9c57610f88838551610ea2565b928401926101409290920191600101610f75565b50909695505050505050565b610140810161040b8284610ea2565b60008219821115610fca57610fca611150565b500190565b600082610fea57634e487b7160e01b81526012600452602481fd5b500490565b600181815b8085111561102a57816000190482111561101057611010611150565b8085161561101d57918102915b93841c9390800290610ff4565b509250929050565b6000610d1360ff84168360008261104b5750600161040b565b816110585750600061040b565b816001811461106e576002811461107857611094565b600191505061040b565b60ff84111561108957611089611150565b50506001821b61040b565b5060208310610133831016604e8410600b84101617156110b7575081810a61040b565b6110c18383610fef565b80600019048211156110d5576110d5611150565b029392505050565b60008160001904831182151516156110f7576110f7611150565b500290565b60008282101561110e5761110e611150565b500390565b60008160020b627fffff81141561112c5761112c611150565b60010192915050565b600060001982141561114957611149611150565b5060010190565b634e487b7160e01b600052601160045260246000fd5b6001600160a01b038116811461117b57600080fd5b5056fea26469706673582212206158ad107af8dfec7fb26228fe1e7421bc9eabb428f668e26a830d5a20f73ec064736f6c63430008040033",
  "linkReferences": {},
  "deployedLinkReferences": {}
}