{
  "_format": "hh-sol-artifact-1",
  "contractName": "Quoter",
  "sourceName": "contracts/helpers/DesireQuoter.sol",
  "abi": [
    {
      "inputs": [
        {
          "internalType": "address",
          "name": "_factory",
          "type": "address"
        },
        {
          "internalType": "address",
          "name": "_WETH9",
          "type": "address"
        }
      ],
      "stateMutability": "nonpayable",
      "type": "constructor"
    },
    {
      "inputs": [],
      "name": "WETH9",
      "outputs": [
        {
          "internalType": "address",
          "name": "",
          "type": "address"
        }
      ],
      "stateMutability": "view",
      "type": "function"
    },
    {
      "inputs": [
        {
          "internalType": "int256",
          "name": "amount0Delta",
          "type": "int256"
        },
        {
          "internalType": "int256",
          "name": "amount1Delta",
          "type": "int256"
        },
        {
          "internalType": "bytes",
          "name": "path",
          "type": "bytes"
        }
      ],
      "name": "desireSwapV0SwapCallback",
      "outputs": [],
      "stateMutability": "view",
      "type": "function"
    },
    {
      "inputs": [],
      "name": "factory",
      "outputs": [
        {
          "internalType": "address",
          "name": "",
          "type": "address"
        }
      ],
      "stateMutability": "view",
      "type": "function"
    },
    {
      "inputs": [
        {
          "internalType": "bytes",
          "name": "path",
          "type": "bytes"
        },
        {
          "internalType": "uint256",
          "name": "amountIn",
          "type": "uint256"
        }
      ],
      "name": "quoteExactInput",
      "outputs": [
        {
          "internalType": "uint256",
          "name": "amountOut",
          "type": "uint256"
        }
      ],
      "stateMutability": "nonpayable",
      "type": "function"
    },
    {
      "inputs": [
        {
          "internalType": "address",
          "name": "tokenIn",
          "type": "address"
        },
        {
          "internalType": "address",
          "name": "tokenOut",
          "type": "address"
        },
        {
          "internalType": "uint256",
          "name": "fee",
          "type": "uint256"
        },
        {
          "internalType": "uint256",
          "name": "amountIn",
          "type": "uint256"
        },
        {
          "internalType": "uint256",
          "name": "sqrtPriceLimitX96",
          "type": "uint256"
        }
      ],
      "name": "quoteExactInputSingle",
      "outputs": [
        {
          "internalType": "uint256",
          "name": "amountOut",
          "type": "uint256"
        }
      ],
      "stateMutability": "nonpayable",
      "type": "function"
    },
    {
      "inputs": [
        {
          "internalType": "bytes",
          "name": "path",
          "type": "bytes"
        },
        {
          "internalType": "uint256",
          "name": "amountOut",
          "type": "uint256"
        }
      ],
      "name": "quoteExactOutput",
      "outputs": [
        {
          "internalType": "uint256",
          "name": "amountIn",
          "type": "uint256"
        }
      ],
      "stateMutability": "nonpayable",
      "type": "function"
    },
    {
      "inputs": [
        {
          "internalType": "address",
          "name": "tokenIn",
          "type": "address"
        },
        {
          "internalType": "address",
          "name": "tokenOut",
          "type": "address"
        },
        {
          "internalType": "uint256",
          "name": "fee",
          "type": "uint256"
        },
        {
          "internalType": "uint256",
          "name": "amountOut",
          "type": "uint256"
        },
        {
          "internalType": "uint256",
          "name": "sqrtPriceLimitX96",
          "type": "uint256"
        }
      ],
      "name": "quoteExactOutputSingle",
      "outputs": [
        {
          "internalType": "uint256",
          "name": "amountIn",
          "type": "uint256"
        }
      ],
      "stateMutability": "nonpayable",
      "type": "function"
    }
  ],
  "bytecode": "0x60c060405234801561001057600080fd5b50604051610f0b380380610f0b83398101604081905261002f91610069565b6001600160601b0319606092831b8116608052911b1660a05261009b565b80516001600160a01b038116811461006457600080fd5b919050565b6000806040838503121561007b578182fd5b6100848361004d565b91506100926020840161004d565b90509250929050565b60805160601c60a05160601c610e386100d3600039600060c5015260008181610117015281816102f101526105200152610e386000f3fe608060405234801561001057600080fd5b506004361061006d5760003560e01c80630a9af104146100725780632f80bb1d14610098578063482357eb146100ab5780634aa4a4fc146100c05780635a758f4c146100ff578063c45a015514610112578063cdca175314610139575b600080fd5b610085610080366004610a78565b61014c565b6040519081526020015b60405180910390f35b6100856100a6366004610ac8565b61025b565b6100be6100b9366004610b2d565b6102c0565b005b6100e77f000000000000000000000000000000000000000000000000000000000000000081565b6040516001600160a01b03909116815260200161008f565b61008561010d366004610a78565b6103a2565b6100e77f000000000000000000000000000000000000000000000000000000000000000081565b610085610147366004610ac8565b6104b8565b60006001600160a01b0380861690871610610168878787610506565b6001600160a01b03166353a14c2530838760008c8b8d60405160200161019093929190610c27565b6040516020818303038152906040526040518663ffffffff1660e01b81526004016101bf959493929190610c73565b6040805180830381600087803b1580156101d857600080fd5b505af1925050508015610208575060408051601f3d908101601f1916820190925261020591810190610b0a565b60015b61024e573d808015610236576040519150601f19603f3d011682016040523d82523d6000602084013e61023b565b606091505b50610245816105b1565b92505050610252565b5050505b95945050505050565b60005b60006102698461064d565b9050600080600061027987610687565b92509250925061028d8284838960006103a2565b955083156102a55761029e876106c3565b96506102b1565b859450505050506102ba565b5050505061025e565b92915050565b60008313806102cf5750600082135b6102d857600080fd5b60008060006102e684610687565b9250925092506103187f00000000000000000000000000000000000000000000000000000000000000008484846106f4565b50600080600080891361034a57856001600160a01b0316856001600160a01b031610888a61034590610da4565b61036a565b846001600160a01b0316866001600160a01b031610898961036a90610da4565b925092509250821561038157604051818152602081fd5b6000541561039757600054811461039757600080fd5b604051828152602081fd5b60006001600160a01b0380861690871610826103be5760008490555b6103c9878787610506565b6001600160a01b03166353a14c2530836103e288610da4565b60008b8b8e6040516020016103f993929190610c27565b6040516020818303038152906040526040518663ffffffff1660e01b8152600401610428959493929190610c73565b6040805180830381600087803b15801561044157600080fd5b505af1925050508015610471575060408051601f3d908101601f1916820190925261046e91810190610b0a565b60015b61024e573d80801561049f576040519150601f19603f3d011682016040523d82523d6000602084013e6104a4565b606091505b50836104af57600080555b610245816105b1565b60005b60006104c68461064d565b905060008060006104d687610687565b9250925092506104ea83838389600061014c565b955083156102a5576104fb876106c3565b9650505050506104bb565b604051636263507760e11b81526000906001600160a01b037f0000000000000000000000000000000000000000000000000000000000000000169063c4c6a0ee9061055990879087908790600401610c4f565b60206040518083038186803b15801561057157600080fd5b505afa158015610585573d6000803e3d6000fd5b505050506040513d601f19601f820116820180604052508101906105a99190610a55565b949350505050565b60008151602014610639576044825110156106065760405162461bcd60e51b815260206004820152601060248201526f2ab732bc3832b1ba32b21032b93937b960811b60448201526064015b60405180910390fd5b600482019150818060200190518101906106209190610b7a565b60405162461bcd60e51b81526004016105fd9190610cb3565b818060200190518101906102ba9190610be3565b600061065b60206014610d45565b6014610668602082610d45565b6106729190610d45565b61067c9190610d45565b825110159050919050565b60008080610695848261078e565b92506106a2846014610842565b90506106ba6106b360206014610d45565b859061078e565b91509193909250565b60606102ba6106d460206014610d45565b6106e060206014610d45565b84516106ec9190610d5d565b8491906108ef565b604051636263507760e11b81526000906001600160a01b0386169063c4c6a0ee9061072790879087908790600401610c4f565b60206040518083038186803b15801561073f57600080fd5b505afa158015610753573d6000803e3d6000fd5b505050506040513d601f19601f820116820180604052508101906107779190610a55565b9050336001600160a01b038216146105a957600080fd5b60008161079c816014610d45565b10156107df5760405162461bcd60e51b8152602060048201526012602482015271746f416464726573735f6f766572666c6f7760701b60448201526064016105fd565b6107ea826014610d45565b835110156108325760405162461bcd60e51b8152602060048201526015602482015274746f416464726573735f6f75744f66426f756e647360581b60448201526064016105fd565b500160200151600160601b900490565b600081610850816020610d45565b10156108935760405162461bcd60e51b8152602060048201526012602482015271746f55696e743235365f6f766572666c6f7760701b60448201526064016105fd565b61089e826020610d45565b835110156108e65760405162461bcd60e51b8152602060048201526015602482015274746f55696e743235365f6f75744f66426f756e647360581b60448201526064016105fd565b50016020015190565b6060816108fd81601f610d45565b101561091b5760405162461bcd60e51b81526004016105fd90610cc6565b826109268382610d45565b10156109445760405162461bcd60e51b81526004016105fd90610cc6565b61094e8284610d45565b845110156109925760405162461bcd60e51b8152602060048201526011602482015270736c6963655f6f75744f66426f756e647360781b60448201526064016105fd565b6060821580156109b157604051915060008252602082016040526109fb565b6040519150601f8416801560200281840101858101878315602002848b0101015b818310156109ea5780518352602092830192016109d2565b5050858452601f01601f1916604052505b50949350505050565b600082601f830112610a14578081fd5b8135610a27610a2282610d1e565b610cee565b818152846020838601011115610a3b578283fd5b816020850160208301379081016020019190915292915050565b600060208284031215610a66578081fd5b8151610a7181610dea565b9392505050565b600080600080600060a08688031215610a8f578081fd5b8535610a9a81610dea565b94506020860135610aaa81610dea565b94979496505050506040830135926060810135926080909101359150565b60008060408385031215610ada578182fd5b82356001600160401b03811115610aef578283fd5b610afb85828601610a04565b95602094909401359450505050565b60008060408385031215610b1c578182fd5b505080516020909101519092909150565b600080600060608486031215610b41578283fd5b833592506020840135915060408401356001600160401b03811115610b64578182fd5b610b7086828701610a04565b9150509250925092565b600060208284031215610b8b578081fd5b81516001600160401b03811115610ba0578182fd5b8201601f81018413610bb0578182fd5b8051610bbe610a2282610d1e565b818152856020838501011115610bd2578384fd5b610252826020830160208601610d74565b600060208284031215610bf4578081fd5b5051919050565b60008151808452610c13816020860160208601610d74565b601f01601f19169290920160200192915050565b6001600160601b0319606094851b811682526014820193909352921b16603482015260480190565b6001600160a01b039384168152919092166020820152604081019190915260600190565b60018060a01b0386168152841515602082015283604082015282606082015260a060808201526000610ca860a0830184610bfb565b979650505050505050565b602081526000610a716020830184610bfb565b6020808252600e908201526d736c6963655f6f766572666c6f7760901b604082015260600190565b604051601f8201601f191681016001600160401b0381118282101715610d1657610d16610dd4565b604052919050565b60006001600160401b03821115610d3757610d37610dd4565b50601f01601f191660200190565b60008219821115610d5857610d58610dbe565b500190565b600082821015610d6f57610d6f610dbe565b500390565b60005b83811015610d8f578181015183820152602001610d77565b83811115610d9e576000848401525b50505050565b6000600160ff1b821415610dba57610dba610dbe565b0390565b634e487b7160e01b600052601160045260246000fd5b634e487b7160e01b600052604160045260246000fd5b6001600160a01b0381168114610dff57600080fd5b5056fea2646970667358221220e388e308f39467fffabaeddaf3660422b9abfea04f0638194b7375173ff4d62264736f6c63430008040033",
  "linkReferences": {},
  "deployedLinkReferences": {}
}